{
  "address": "0x3387b78BCC2CD920Fd2195790Db847052b5fD54B",
  "abi": [
    {
      "inputs": [
        {
          "internalType": "address",
          "name": "daoBase",
          "type": "address"
        },
        {
          "internalType": "address",
          "name": "governanceTokenBase",
          "type": "address"
        },
        {
          "internalType": "string",
          "name": "distributionName",
          "type": "string"
        },
        {
          "components": [
            {
              "internalType": "uint64",
              "name": "major",
              "type": "uint64"
            },
            {
              "internalType": "uint64",
              "name": "minor",
              "type": "uint64"
            },
            {
              "internalType": "uint128",
              "name": "patch",
              "type": "uint128"
            }
          ],
          "internalType": "struct LibSemver.Version",
          "name": "version",
          "type": "tuple"
        }
      ],
      "stateMutability": "nonpayable",
      "type": "constructor"
    },
    {
      "inputs": [
        {
          "internalType": "bytes32",
          "name": "codeId",
          "type": "bytes32"
        }
      ],
      "name": "CodeNotFoundInIndex",
      "type": "error"
    },
    {
      "inputs": [],
      "name": "FailedDeployment",
      "type": "error"
    },
    {
      "inputs": [
        {
          "internalType": "uint256",
          "name": "balance",
          "type": "uint256"
        },
        {
          "internalType": "uint256",
          "name": "needed",
          "type": "uint256"
        }
      ],
      "name": "InsufficientBalance",
      "type": "error"
    },
    {
      "inputs": [
        {
          "internalType": "string",
          "name": "str",
          "type": "string"
        }
      ],
      "name": "StringTooLong",
      "type": "error"
    },
    {
      "anonymous": false,
      "inputs": [
        {
          "indexed": true,
          "internalType": "address",
          "name": "distributor",
          "type": "address"
        },
        {
          "indexed": false,
          "internalType": "address[]",
          "name": "instances",
          "type": "address[]"
        }
      ],
      "name": "Distributed",
      "type": "event"
    },
    {
      "inputs": [],
      "name": "contractURI",
      "outputs": [
        {
          "internalType": "string",
          "name": "",
          "type": "string"
        }
      ],
      "stateMutability": "pure",
      "type": "function"
    },
    {
      "inputs": [],
      "name": "get",
      "outputs": [
        {
          "internalType": "address[]",
          "name": "",
          "type": "address[]"
        },
        {
          "internalType": "bytes32",
          "name": "",
          "type": "bytes32"
        },
        {
          "internalType": "uint256",
          "name": "",
          "type": "uint256"
        }
      ],
      "stateMutability": "view",
      "type": "function"
    },
    {
      "inputs": [
        {
          "internalType": "bytes",
          "name": "data",
          "type": "bytes"
        }
      ],
      "name": "instantiate",
      "outputs": [
        {
          "internalType": "address[]",
          "name": "instances",
          "type": "address[]"
        },
        {
          "internalType": "bytes32",
          "name": "distributionName",
          "type": "bytes32"
        },
        {
          "internalType": "uint256",
          "name": "distributionVersion",
          "type": "uint256"
        }
      ],
      "stateMutability": "nonpayable",
      "type": "function"
    }
  ],
  "transactionHash": "0xdf1f0a96cbd72e3d1839929ab6abf54a41746b8594bc662103fb944c51235deb",
  "args": [
    "0xd7D24d6Ada65641FAcb46ed6cc9427032F44471c",
    "0xBd3073b48eA5ec7237D75Bd8E304E0334571f8F6",
    "Self-WIP-1",
    {
      "major": 1,
      "minor": 0,
      "patch": 0
    }
  ],
  "numDeployments": 1,
  "solcInputHash": "8a05f3133bc74bc4228c5088b3b87cc8",
  "bytecode": "0x610100604052346100535761001e610015610227565b9291909161024b565b60405161096b610432823960805181610746015260a05181610706015260c05181610775015260e05181610798015261096b90f35b600080fd5b634e487b7160e01b600052604160045260246000fd5b90601f01601f191681019081106001600160401b0382111761008f57604052565b610058565b906100a86100a160405190565b928361006e565b565b90565b6001600160a01b0381165b0361005357565b905051906100a8826100ad565b6001600160401b03811161008f57602090601f01601f19160190565b0190565b60005b8381106100ff5750506000910152565b81810151838201526020016100ef565b9092919261012461011f826100cc565b610094565b93818552602085019082840111610053576100a8926100ec565b9080601f830112156100535781516100aa9260200161010f565b6001600160401b0381166100b8565b905051906100a882610158565b6001600160801b0381166100b8565b905051906100a882610174565b9190606083820312610053576101d1906101aa6060610094565b936101b58282610167565b85526101c48260208301610167565b6020860152604001610183565b6040830152565b60c081830312610053576101ec82826100bf565b926101fa83602084016100bf565b604083015190936001600160401b0382116100535761021e816100aa93860161013e565b93606001610190565b610245610d9d8038038061023a81610094565b9283398101906101d8565b90919293565b60805260a052610267919061025f90610303565b60c0526103c0565b60e052565b6100aa6100aa6100aa9290565b61029a6102a36020936100e89361028e815190565b80835293849260200190565b958691016100ec565b601f01601f191690565b60208082526100aa92910190610279565b6102d76102d36102cc835190565b9260200190565b5190565b90602081106102e4575090565b6102f690600019906020036008021b90565b1690565b6100aa9061026c565b8061030c825190565b61031d610319601f61026c565b9190565b1161034957506100aa8161034361033e6103396100aa956102be565b6102fa565b915190565b1761026c565b61036c9061035660405190565b63305a27a960e01b8152918291600483016102ad565b0390fd5b6100aa9081906001600160401b031681565b61038f6100aa6100aa9290565b60ff1690565b6100aa906103a96103196100aa9460ff1690565b901b90565b6100aa9081906001600160801b031681565b61042d61042860406103f46103e46103df86516001600160401b031690565b610370565b6103ee60c0610382565b90610395565b61041861040e6103df60208801516001600160401b031690565b6103ee6080610382565b179301516001600160801b031690565b6103ae565b179056fe6080604052600436101561001257600080fd5b60003560e01c80636d4ce63c146100425780639ca33c9e1461003d5763e8a3d4850361005257610298565b610215565b6100fd565b600091031261005257565b600080fd5b6001600160a01b031690565b90565b9052565b0190565b9061008e61008761007d845190565b8084529260200190565b9260200190565b9060005b81811061009f5750505090565b9091926100c56100be60019286516001600160a01b0316815260200190565b9460200190565b929101610092565b6040906100f76100ef6100fb959796946060840190848203600086015261006e565b966020830152565b0152565b565b346100525761010d366004610047565b6101276101186102bf565b604051919391938493846100cd565b0390f35b634e487b7160e01b600052604160045260246000fd5b90601f01601f1916810190811067ffffffffffffffff82111761016357604052565b61012b565b906100fb61017560405190565b9283610141565b67ffffffffffffffff811161016357602090601f01601f19160190565b90826000939282370152565b909291926101ba6101b58261017c565b610168565b93818552602085019082840111610052576100fb92610199565b9080601f8301121561005257816020610063933591016101a5565b9060208282031261005257813567ffffffffffffffff81116100525761006392016101d4565b346100525761012761011861022b3660046101ef565b6104e3565b60005b8381106102435750506000910152565b8181015183820152602001610233565b61027461027d60209361006a93610268815190565b80835293849260200190565b95869101610230565b601f01601f191690565b602080825261006392910190610253565b34610052576102a8366004610047565b6101276102b3610668565b60405191829182610287565b6102c76106ef565b9192909190565b805b0361005257565b905051906100fb826102ce565b909291926102f46101b58261017c565b93818552602085019082840111610052576100fb92610230565b9080601f83011215610052578151610063926020016102e4565b6001600160a01b0381166102d0565b905051906100fb82610328565b9190916080818403126100525761035b6080610168565b9261036681836102d7565b8452602082015167ffffffffffffffff8111610052578161038891840161030e565b602085015260408201519167ffffffffffffffff8311610052576103b1826103be94830161030e565b6040860152606001610337565b6060830152565b9060208282031261005257815167ffffffffffffffff8111610052576100639201610344565b634e487b7160e01b600052603260045260246000fd5b9061040a825190565b81101561041b576020809102010190565b6103eb565b6100636100636100639290565b61006390610057906001600160a01b031682565b6100639061042d565b61006390610441565b9061049d6100fb9597969461048f6104af9360809661048260a088019260008901906001600160a01b03169052565b8682036020880152610253565b908482036040860152610253565b6001600160a01b039097166060830152565b01906001600160a01b03169052565b6040513d6000823e3d90fd5b6100669061044a565b6020810192916100fb91906104ca565b9061050b906104f06107cb565b9491939093916020610500825190565b8183010191016103c5565b61053a610535610535610528856105226000610420565b90610401565b516001600160a01b031690565b61044a565b636cf1dbed9061055460608401516001600160a01b031690565b906040602085015194015192610571610528876105226001610420565b3391833b15610052576105a861059d9360009793889461059060405190565b9a8b998a98899760e01b90565b875260048701610453565b03925af1801561064d57610652575b506105d2610535610535610535610528856105226001610420565b63c4d66de86105eb610535610528856105226000610420565b823b156100525761061e926106136000809461060660405190565b9687958694859360e01b90565b8352600483016104d3565b03925af1801561064d5761063157509290565b6106499060006106418183610141565b810190610047565b9290565b6104be565b6106629060006106418183610141565b386105b7565b61006361067460405190565b6e2220a7a234b9ba3934b13aba34b7b760891b6020820152600f8152610063602f82610141565b67ffffffffffffffff81116101635760208091020190565b906106c06101b58361069b565b918252565b369037565b906100fb6106d7836106b3565b926020806106e5869361069b565b92019103906106c5565b6107016106fc6002610420565b6106ca565b6107417f0000000000000000000000000000000000000000000000000000000000000000610733836105226000610420565b906001600160a01b03169052565b6107737f0000000000000000000000000000000000000000000000000000000000000000610733836105226001610420565b7f000000000000000000000000000000000000000000000000000000000000000090917f000000000000000000000000000000000000000000000000000000000000000090565b60208082526100639291019061006e565b6107d36106ef565b825192916107e0846106ca565b9460005b8581101561081d5761081890610812610808610803610528848a610401565b61086d565b610733838b610401565b60010190565b6107e4565b5092509250923381906108666108537fe3cc25159981d843f19d5a7611997a66ca6e772edd134fb611c7b29aded7bb8a9261044a565b9261085d60405190565b918291826107ba565b0390a29290565b6100639061087b6000610420565b906108aa565b9081526040810192916100fb9160200152565b6100576100636100639290565b61006390610894565b6108b33061044a565b82903110610937576037916e5af43d82803e903d91602b57fd5bf382763d602d80600a3d3981f3363d3d373d3d3d363d7300000060099460601b60e81c1760005260781b17602052f0908161091b61090e61005760006108a1565b916001600160a01b031690565b1461092257565b63b06ebf3d60e01b60009081528060045b0390fd5b506109413061044a565b63cf47918160e01b6000908152918291610933919031600461088156fea164736f6c634300081c000a",
  "devdoc": {
    "errors": {
      "FailedDeployment()": [
        {
          "details": "The deployment failed."
        }
      ],
      "InsufficientBalance(uint256,uint256)": [
        {
          "details": "The ETH balance of the account is not enough to perform the operation."
        }
      ]
    },
    "events": {
      "Distributed(address,address[])": {
        "params": {
          "distributor": "The address of the entity that performed the distribution.",
          "instances": "An array of addresses that were produced."
        }
      }
    },
    "kind": "dev",
    "methods": {
      "constructor": {
        "details": "Constructor for the DAODistribution contractWARNING: distributionName must be less than 31 bytes long to comply with ShortStrings immutable format",
        "params": {
          "daoBase": "Address of the WORLD_DAO implementation that will be cloned",
          "distributionName": "Name for this distribution (must be less than 31 bytes)",
          "governanceTokenBase": "Address of the GovernanceToken implementation that will be cloned",
          "version": "Semantic version for this distribution"
        }
      },
      "contractURI()": {
        "details": "Used for metadata and discovery purposes",
        "returns": {
          "_0": "string The contract URI"
        }
      },
      "get()": {
        "details": "Wrapper around the internal sources function",
        "returns": {
          "_0": "address[] Array of source implementation addresses",
          "_1": "bytes32 Distribution name",
          "_2": "uint256 Distribution version"
        }
      },
      "instantiate(bytes)": {
        "custom:security": "Sets msg.sender (WIP contract) as the token minter",
        "details": "Clones both DAO and token contracts and initializes them with country-specific data",
        "params": {
          "data": "Encoded InstantiationData containing country information and initial governance authority"
        },
        "returns": {
          "distributionName": "Name of this distribution as bytes32",
          "distributionVersion": "Version of this distribution as uint256",
          "instances": "Array of deployed contract addresses [GovernanceToken, WORLD_DAO]"
        }
      }
    },
    "version": 1
  },
  "userdoc": {
    "events": {
      "Distributed(address,address[])": {
        "notice": "Emitted when a distribution occurs."
      }
    },
    "kind": "user",
    "methods": {
      "constructor": {
        "notice": "Sets up the distribution system with references to all required implementation contracts"
      },
      "contractURI()": {
        "notice": "Returns the contract URI for this distribution"
      },
      "get()": {
        "notice": "Public accessor for sources data"
      },
      "instantiate(bytes)": {
        "notice": "Creates a new DAO and GovernanceToken pair for a country"
      }
    },
    "version": 1
  },
  "storageLayout": {
    "storage": [],
    "types": null
  }
}