{
  "address": "0x53E56b6e1caf8CE92D2C1dcC42c0fA6e4b77e5E5",
  "abi": [
    {
      "inputs": [],
      "stateMutability": "nonpayable",
      "type": "constructor"
    },
    {
      "inputs": [],
      "name": "CheckpointUnorderedInsertion",
      "type": "error"
    },
    {
      "inputs": [],
      "name": "ECDSAInvalidSignature",
      "type": "error"
    },
    {
      "inputs": [
        {
          "internalType": "uint256",
          "name": "length",
          "type": "uint256"
        }
      ],
      "name": "ECDSAInvalidSignatureLength",
      "type": "error"
    },
    {
      "inputs": [
        {
          "internalType": "bytes32",
          "name": "s",
          "type": "bytes32"
        }
      ],
      "name": "ECDSAInvalidSignatureS",
      "type": "error"
    },
    {
      "inputs": [
        {
          "internalType": "uint256",
          "name": "increasedSupply",
          "type": "uint256"
        },
        {
          "internalType": "uint256",
          "name": "cap",
          "type": "uint256"
        }
      ],
      "name": "ERC20ExceededSafeSupply",
      "type": "error"
    },
    {
      "inputs": [
        {
          "internalType": "address",
          "name": "spender",
          "type": "address"
        },
        {
          "internalType": "uint256",
          "name": "allowance",
          "type": "uint256"
        },
        {
          "internalType": "uint256",
          "name": "needed",
          "type": "uint256"
        }
      ],
      "name": "ERC20InsufficientAllowance",
      "type": "error"
    },
    {
      "inputs": [
        {
          "internalType": "address",
          "name": "sender",
          "type": "address"
        },
        {
          "internalType": "uint256",
          "name": "balance",
          "type": "uint256"
        },
        {
          "internalType": "uint256",
          "name": "needed",
          "type": "uint256"
        }
      ],
      "name": "ERC20InsufficientBalance",
      "type": "error"
    },
    {
      "inputs": [
        {
          "internalType": "address",
          "name": "approver",
          "type": "address"
        }
      ],
      "name": "ERC20InvalidApprover",
      "type": "error"
    },
    {
      "inputs": [
        {
          "internalType": "address",
          "name": "receiver",
          "type": "address"
        }
      ],
      "name": "ERC20InvalidReceiver",
      "type": "error"
    },
    {
      "inputs": [
        {
          "internalType": "address",
          "name": "sender",
          "type": "address"
        }
      ],
      "name": "ERC20InvalidSender",
      "type": "error"
    },
    {
      "inputs": [
        {
          "internalType": "address",
          "name": "spender",
          "type": "address"
        }
      ],
      "name": "ERC20InvalidSpender",
      "type": "error"
    },
    {
      "inputs": [
        {
          "internalType": "uint256",
          "name": "deadline",
          "type": "uint256"
        }
      ],
      "name": "ERC2612ExpiredSignature",
      "type": "error"
    },
    {
      "inputs": [
        {
          "internalType": "address",
          "name": "signer",
          "type": "address"
        },
        {
          "internalType": "address",
          "name": "owner",
          "type": "address"
        }
      ],
      "name": "ERC2612InvalidSigner",
      "type": "error"
    },
    {
      "inputs": [
        {
          "internalType": "uint256",
          "name": "timepoint",
          "type": "uint256"
        },
        {
          "internalType": "uint48",
          "name": "clock",
          "type": "uint48"
        }
      ],
      "name": "ERC5805FutureLookup",
      "type": "error"
    },
    {
      "inputs": [],
      "name": "ERC6372InconsistentClock",
      "type": "error"
    },
    {
      "inputs": [
        {
          "internalType": "address",
          "name": "account",
          "type": "address"
        },
        {
          "internalType": "uint256",
          "name": "currentNonce",
          "type": "uint256"
        }
      ],
      "name": "InvalidAccountNonce",
      "type": "error"
    },
    {
      "inputs": [],
      "name": "InvalidInitialization",
      "type": "error"
    },
    {
      "inputs": [],
      "name": "NotInitializing",
      "type": "error"
    },
    {
      "inputs": [
        {
          "internalType": "uint8",
          "name": "bits",
          "type": "uint8"
        },
        {
          "internalType": "uint256",
          "name": "value",
          "type": "uint256"
        }
      ],
      "name": "SafeCastOverflowedUintDowncast",
      "type": "error"
    },
    {
      "inputs": [
        {
          "internalType": "uint256",
          "name": "expiry",
          "type": "uint256"
        }
      ],
      "name": "VotesExpiredSignature",
      "type": "error"
    },
    {
      "anonymous": false,
      "inputs": [
        {
          "indexed": true,
          "internalType": "address",
          "name": "owner",
          "type": "address"
        },
        {
          "indexed": true,
          "internalType": "address",
          "name": "spender",
          "type": "address"
        },
        {
          "indexed": false,
          "internalType": "uint256",
          "name": "value",
          "type": "uint256"
        }
      ],
      "name": "Approval",
      "type": "event"
    },
    {
      "anonymous": false,
      "inputs": [
        {
          "indexed": true,
          "internalType": "address",
          "name": "delegator",
          "type": "address"
        },
        {
          "indexed": true,
          "internalType": "address",
          "name": "fromDelegate",
          "type": "address"
        },
        {
          "indexed": true,
          "internalType": "address",
          "name": "toDelegate",
          "type": "address"
        }
      ],
      "name": "DelegateChanged",
      "type": "event"
    },
    {
      "anonymous": false,
      "inputs": [
        {
          "indexed": true,
          "internalType": "address",
          "name": "delegate",
          "type": "address"
        },
        {
          "indexed": false,
          "internalType": "uint256",
          "name": "previousVotes",
          "type": "uint256"
        },
        {
          "indexed": false,
          "internalType": "uint256",
          "name": "newVotes",
          "type": "uint256"
        }
      ],
      "name": "DelegateVotesChanged",
      "type": "event"
    },
    {
      "anonymous": false,
      "inputs": [],
      "name": "EIP712DomainChanged",
      "type": "event"
    },
    {
      "anonymous": false,
      "inputs": [
        {
          "indexed": false,
          "internalType": "uint64",
          "name": "version",
          "type": "uint64"
        }
      ],
      "name": "Initialized",
      "type": "event"
    },
    {
      "anonymous": false,
      "inputs": [
        {
          "indexed": true,
          "internalType": "address",
          "name": "from",
          "type": "address"
        },
        {
          "indexed": true,
          "internalType": "address",
          "name": "to",
          "type": "address"
        },
        {
          "indexed": false,
          "internalType": "uint256",
          "name": "value",
          "type": "uint256"
        }
      ],
      "name": "Transfer",
      "type": "event"
    },
    {
      "inputs": [],
      "name": "CLOCK_MODE",
      "outputs": [
        {
          "internalType": "string",
          "name": "",
          "type": "string"
        }
      ],
      "stateMutability": "pure",
      "type": "function"
    },
    {
      "inputs": [],
      "name": "DOMAIN_SEPARATOR",
      "outputs": [
        {
          "internalType": "bytes32",
          "name": "",
          "type": "bytes32"
        }
      ],
      "stateMutability": "view",
      "type": "function"
    },
    {
      "inputs": [],
      "name": "_DAO",
      "outputs": [
        {
          "internalType": "address",
          "name": "",
          "type": "address"
        }
      ],
      "stateMutability": "view",
      "type": "function"
    },
    {
      "inputs": [
        {
          "internalType": "address",
          "name": "owner",
          "type": "address"
        },
        {
          "internalType": "address",
          "name": "spender",
          "type": "address"
        }
      ],
      "name": "allowance",
      "outputs": [
        {
          "internalType": "uint256",
          "name": "",
          "type": "uint256"
        }
      ],
      "stateMutability": "view",
      "type": "function"
    },
    {
      "inputs": [
        {
          "internalType": "address",
          "name": "spender",
          "type": "address"
        },
        {
          "internalType": "uint256",
          "name": "value",
          "type": "uint256"
        }
      ],
      "name": "approve",
      "outputs": [
        {
          "internalType": "bool",
          "name": "",
          "type": "bool"
        }
      ],
      "stateMutability": "nonpayable",
      "type": "function"
    },
    {
      "inputs": [
        {
          "internalType": "address",
          "name": "account",
          "type": "address"
        }
      ],
      "name": "balanceOf",
      "outputs": [
        {
          "internalType": "uint256",
          "name": "",
          "type": "uint256"
        }
      ],
      "stateMutability": "view",
      "type": "function"
    },
    {
      "inputs": [
        {
          "internalType": "address",
          "name": "account",
          "type": "address"
        },
        {
          "internalType": "uint32",
          "name": "pos",
          "type": "uint32"
        }
      ],
      "name": "checkpoints",
      "outputs": [
        {
          "components": [
            {
              "internalType": "uint48",
              "name": "_key",
              "type": "uint48"
            },
            {
              "internalType": "uint208",
              "name": "_value",
              "type": "uint208"
            }
          ],
          "internalType": "struct Checkpoints.Checkpoint208",
          "name": "",
          "type": "tuple"
        }
      ],
      "stateMutability": "view",
      "type": "function"
    },
    {
      "inputs": [],
      "name": "clock",
      "outputs": [
        {
          "internalType": "uint48",
          "name": "",
          "type": "uint48"
        }
      ],
      "stateMutability": "view",
      "type": "function"
    },
    {
      "inputs": [],
      "name": "decimals",
      "outputs": [
        {
          "internalType": "uint8",
          "name": "",
          "type": "uint8"
        }
      ],
      "stateMutability": "view",
      "type": "function"
    },
    {
      "inputs": [
        {
          "internalType": "address",
          "name": "delegatee",
          "type": "address"
        }
      ],
      "name": "delegate",
      "outputs": [],
      "stateMutability": "nonpayable",
      "type": "function"
    },
    {
      "inputs": [
        {
          "internalType": "address",
          "name": "delegatee",
          "type": "address"
        },
        {
          "internalType": "uint256",
          "name": "nonce",
          "type": "uint256"
        },
        {
          "internalType": "uint256",
          "name": "expiry",
          "type": "uint256"
        },
        {
          "internalType": "uint8",
          "name": "v",
          "type": "uint8"
        },
        {
          "internalType": "bytes32",
          "name": "r",
          "type": "bytes32"
        },
        {
          "internalType": "bytes32",
          "name": "s",
          "type": "bytes32"
        }
      ],
      "name": "delegateBySig",
      "outputs": [],
      "stateMutability": "nonpayable",
      "type": "function"
    },
    {
      "inputs": [
        {
          "internalType": "address",
          "name": "account",
          "type": "address"
        }
      ],
      "name": "delegates",
      "outputs": [
        {
          "internalType": "address",
          "name": "",
          "type": "address"
        }
      ],
      "stateMutability": "view",
      "type": "function"
    },
    {
      "inputs": [],
      "name": "eip712Domain",
      "outputs": [
        {
          "internalType": "bytes1",
          "name": "fields",
          "type": "bytes1"
        },
        {
          "internalType": "string",
          "name": "name",
          "type": "string"
        },
        {
          "internalType": "string",
          "name": "version",
          "type": "string"
        },
        {
          "internalType": "uint256",
          "name": "chainId",
          "type": "uint256"
        },
        {
          "internalType": "address",
          "name": "verifyingContract",
          "type": "address"
        },
        {
          "internalType": "bytes32",
          "name": "salt",
          "type": "bytes32"
        },
        {
          "internalType": "uint256[]",
          "name": "extensions",
          "type": "uint256[]"
        }
      ],
      "stateMutability": "view",
      "type": "function"
    },
    {
      "inputs": [
        {
          "internalType": "uint256",
          "name": "timepoint",
          "type": "uint256"
        }
      ],
      "name": "getPastTotalSupply",
      "outputs": [
        {
          "internalType": "uint256",
          "name": "",
          "type": "uint256"
        }
      ],
      "stateMutability": "view",
      "type": "function"
    },
    {
      "inputs": [
        {
          "internalType": "address",
          "name": "account",
          "type": "address"
        },
        {
          "internalType": "uint256",
          "name": "timepoint",
          "type": "uint256"
        }
      ],
      "name": "getPastVotes",
      "outputs": [
        {
          "internalType": "uint256",
          "name": "",
          "type": "uint256"
        }
      ],
      "stateMutability": "view",
      "type": "function"
    },
    {
      "inputs": [
        {
          "internalType": "address",
          "name": "account",
          "type": "address"
        }
      ],
      "name": "getVotes",
      "outputs": [
        {
          "internalType": "uint256",
          "name": "",
          "type": "uint256"
        }
      ],
      "stateMutability": "view",
      "type": "function"
    },
    {
      "inputs": [
        {
          "internalType": "address",
          "name": "recipient",
          "type": "address"
        },
        {
          "internalType": "string",
          "name": "name",
          "type": "string"
        },
        {
          "internalType": "string",
          "name": "symbol",
          "type": "string"
        },
        {
          "internalType": "address",
          "name": "DAO",
          "type": "address"
        },
        {
          "internalType": "address",
          "name": "_minter",
          "type": "address"
        }
      ],
      "name": "initialize",
      "outputs": [],
      "stateMutability": "nonpayable",
      "type": "function"
    },
    {
      "inputs": [
        {
          "internalType": "address",
          "name": "to",
          "type": "address"
        },
        {
          "internalType": "uint256",
          "name": "amount",
          "type": "uint256"
        }
      ],
      "name": "mint",
      "outputs": [],
      "stateMutability": "nonpayable",
      "type": "function"
    },
    {
      "inputs": [],
      "name": "minter",
      "outputs": [
        {
          "internalType": "address",
          "name": "",
          "type": "address"
        }
      ],
      "stateMutability": "view",
      "type": "function"
    },
    {
      "inputs": [],
      "name": "name",
      "outputs": [
        {
          "internalType": "string",
          "name": "",
          "type": "string"
        }
      ],
      "stateMutability": "view",
      "type": "function"
    },
    {
      "inputs": [
        {
          "internalType": "address",
          "name": "owner",
          "type": "address"
        }
      ],
      "name": "nonces",
      "outputs": [
        {
          "internalType": "uint256",
          "name": "",
          "type": "uint256"
        }
      ],
      "stateMutability": "view",
      "type": "function"
    },
    {
      "inputs": [
        {
          "internalType": "address",
          "name": "account",
          "type": "address"
        }
      ],
      "name": "numCheckpoints",
      "outputs": [
        {
          "internalType": "uint32",
          "name": "",
          "type": "uint32"
        }
      ],
      "stateMutability": "view",
      "type": "function"
    },
    {
      "inputs": [
        {
          "internalType": "address",
          "name": "owner",
          "type": "address"
        },
        {
          "internalType": "address",
          "name": "spender",
          "type": "address"
        },
        {
          "internalType": "uint256",
          "name": "value",
          "type": "uint256"
        },
        {
          "internalType": "uint256",
          "name": "deadline",
          "type": "uint256"
        },
        {
          "internalType": "uint8",
          "name": "v",
          "type": "uint8"
        },
        {
          "internalType": "bytes32",
          "name": "r",
          "type": "bytes32"
        },
        {
          "internalType": "bytes32",
          "name": "s",
          "type": "bytes32"
        }
      ],
      "name": "permit",
      "outputs": [],
      "stateMutability": "nonpayable",
      "type": "function"
    },
    {
      "inputs": [],
      "name": "symbol",
      "outputs": [
        {
          "internalType": "string",
          "name": "",
          "type": "string"
        }
      ],
      "stateMutability": "view",
      "type": "function"
    },
    {
      "inputs": [],
      "name": "totalSupply",
      "outputs": [
        {
          "internalType": "uint256",
          "name": "",
          "type": "uint256"
        }
      ],
      "stateMutability": "view",
      "type": "function"
    },
    {
      "inputs": [
        {
          "internalType": "address",
          "name": "to",
          "type": "address"
        },
        {
          "internalType": "uint256",
          "name": "value",
          "type": "uint256"
        }
      ],
      "name": "transfer",
      "outputs": [
        {
          "internalType": "bool",
          "name": "",
          "type": "bool"
        }
      ],
      "stateMutability": "nonpayable",
      "type": "function"
    },
    {
      "inputs": [
        {
          "internalType": "address",
          "name": "from",
          "type": "address"
        },
        {
          "internalType": "address",
          "name": "to",
          "type": "address"
        },
        {
          "internalType": "uint256",
          "name": "value",
          "type": "uint256"
        }
      ],
      "name": "transferFrom",
      "outputs": [
        {
          "internalType": "bool",
          "name": "",
          "type": "bool"
        }
      ],
      "stateMutability": "nonpayable",
      "type": "function"
    }
  ],
  "transactionHash": "0x9e41aa10e47177863fe026cbd62db3d183ee44ccd7901bcf911d1635153b714e",
  "args": [],
  "numDeployments": 1,
  "solcInputHash": "5e9b77c4ebd8aeec569971877e3aefd1",
  "bytecode": "0x6080806040523460d2577ff0c57e16840df040f15088dc2f81fe391c3923bec73e23a9662efc9c229c6a005460ff8160401c1660c1576002600160401b03196001600160401b03821601605c575b60405161379190816100d88239f35b6001600160401b0319166001600160401b039081177ff0c57e16840df040f15088dc2f81fe391c3923bec73e23a9662efc9c229c6a005581527fc7f505b2f371ae2175ee4913f4499e1f2633a7b5936321eed1cdaeb6115181d290602090a13880604d565b63f92ee8a960e01b60005260046000fd5b600080fdfe6080604052600436101561001257600080fd5b60003560e01c806306fdde03146101c757806307546172146101c2578063095ea7b3146101bd57806318160ddd146101b857806323b872dd146101b3578063313ce567146101ae5780633644e515146101a95780633a46b1a8146101a457806340c10f191461019f5780634bf5d7e91461019a578063587cde1e146101955780635c19a95c1461019057806369a5f1c31461018b5780636cf1dbed146101865780636fcfff451461018157806370a082311461017c5780637ecebe001461017757806384b0196e146101725780638e539e8c1461016d57806391ddadf41461016857806395d89b41146101635780639ab24eb01461015e578063a9059cbb14610159578063c3cda52014610154578063d505accf1461014f578063dd62ed3e1461014a5763f1127ed81461014557600080fd5b6116ae565b611636565b611476565b6112e3565b61129d565b611253565b61116d565b61114a565b610feb565b610ef9565b610de3565b610d7f565b610ccf565b610a15565b6108ca565b6108a8565b61082c565b6107cd565b610729565b6105f5565b6105d2565b6105b6565b6104ab565b61046e565b61043d565b61037d565b61023f565b919082519283825260005b8481106102165750507fffffffffffffffffffffffffffffffffffffffffffffffffffffffffffffffe0601f8460006020809697860101520116010190565b806020809284010151828286010152016101d7565b90602061023c9281815201906101cc565b90565b346103785760006003193601126103785760405160007f52c63247e1f47db19d5ce0460030c497f067ca4cebf71ba98eeadabe20bace0354610280816117ab565b808452906001811690811561033657506001146102b8575b6102b4836102a88185038261094e565b6040519182918261022b565b0390f35b7f52c63247e1f47db19d5ce0460030c497f067ca4cebf71ba98eeadabe20bace0360009081527f2ae08a8e29253f69ac5d979a101956ab8f8d9d7ded63fa7a83b16fc47648eab0939250905b80821061031c575090915081016020016102a8610298565b919260018160209254838588010152019101909291610304565b7fffffffffffffffffffffffffffffffffffffffffffffffffffffffffffffff001660208086019190915291151560051b840190910191506102a89050610298565b600080fd5b3461037857600060031936011261037857602073ffffffffffffffffffffffffffffffffffffffff60005416604051908152f35b6004359073ffffffffffffffffffffffffffffffffffffffff8216820361037857565b6024359073ffffffffffffffffffffffffffffffffffffffff8216820361037857565b6064359073ffffffffffffffffffffffffffffffffffffffff8216820361037857565b6084359073ffffffffffffffffffffffffffffffffffffffff8216820361037857565b34610378576040600319360112610378576104636104596103b1565b602435903361246e565b602060405160018152f35b346103785760006003193601126103785760207f52c63247e1f47db19d5ce0460030c497f067ca4cebf71ba98eeadabe20bace0254604051908152f35b34610378576060600319360112610378576104c46103b1565b6104cc6103d4565b604435906105423361051d8573ffffffffffffffffffffffffffffffffffffffff166000527f52c63247e1f47db19d5ce0460030c497f067ca4cebf71ba98eeadabe20bace01602052604060002090565b9073ffffffffffffffffffffffffffffffffffffffff16600052602052604060002090565b54926000198410610564575b6105589350611cc3565b60405160018152602090f35b8284106105805761057b8361055895033383612584565b61054e565b82847ffb8f41b2000000000000000000000000000000000000000000000000000000006000523360045260245260445260646000fd5b3461037857600060031936011261037857602060405160128152f35b346103785760006003193601126103785760206105ed61260c565b604051908152f35b346103785760406003193601126103785761060e6103b1565b61066361065d6024359273ffffffffffffffffffffffffffffffffffffffff166000527fe8b26c30fad74198956032a3533d903385d56dd795af560196f9c78d4af40d01602052604060002090565b91611eb9565b906000908054829381600581116106ca575b50906020946106849284612821565b806106b05750505b79ffffffffffffffffffffffffffffffffffffffffffffffffffff60405191168152f35b6106b990611f46565b90825290829020015460301c61068c565b946106d4866126ac565b8603958611610724576020956106849385875265ffffffffffff8289892001541665ffffffffffff8516106000146107125750915b91925094610675565b92915061071e90611f55565b90610709565b6119e6565b34610378576040600319360112610378576107426103b1565b60243573ffffffffffffffffffffffffffffffffffffffff60005416330361076f5761076d91611f63565b005b60646040517f08c379a000000000000000000000000000000000000000000000000000000000815260206004820152601460248201527f4f6e6c79206d696e7465722063616e206d696e740000000000000000000000006044820152fd5b34610378576000600319360112610378576102b460408051906107f0818361094e565b600e82527f6d6f64653d74696d657374616d700000000000000000000000000000000000006020830152519182916020835260208301906101cc565b346103785760206003193601126103785773ffffffffffffffffffffffffffffffffffffffff61085a6103b1565b166000527fe8b26c30fad74198956032a3533d903385d56dd795af560196f9c78d4af40d00602052602073ffffffffffffffffffffffffffffffffffffffff60406000205416604051908152f35b346103785760206003193601126103785761076d6108c46103b1565b336120d1565b3461037857600060031936011261037857602073ffffffffffffffffffffffffffffffffffffffff60015416604051908152f35b7f4e487b7100000000000000000000000000000000000000000000000000000000600052604160045260246000fd5b6040810190811067ffffffffffffffff82111761094957604052565b6108fe565b90601f7fffffffffffffffffffffffffffffffffffffffffffffffffffffffffffffffe0910116810190811067ffffffffffffffff82111761094957604052565b6040519061099e60408361094e565b565b81601f820112156103785780359067ffffffffffffffff821161094957604051926109f3601f84017fffffffffffffffffffffffffffffffffffffffffffffffffffffffffffffffe0166020018561094e565b8284526020838301011161037857816000926020809301838601378301015290565b346103785760a060031936011261037857610a2e6103b1565b60243567ffffffffffffffff811161037857610a4e9036906004016109a0565b9060443567ffffffffffffffff811161037857610a6f9036906004016109a0565b610a776103f7565b610a7f61041a565b917ff0c57e16840df040f15088dc2f81fe391c3923bec73e23a9662efc9c229c6a00549467ffffffffffffffff610ad2610ac4610ac08960ff9060401c1690565b1590565b9767ffffffffffffffff1690565b1680159081610cc7575b6001149081610cbd575b159081610cb4575b50610c8a57610b6f9486610b6660017fffffffffffffffffffffffffffffffffffffffffffffffff00000000000000007ff0c57e16840df040f15088dc2f81fe391c3923bec73e23a9662efc9c229c6a005416177ff0c57e16840df040f15088dc2f81fe391c3923bec73e23a9662efc9c229c6a0055565b610c0f57611a2a565b610b7557005b610be07fffffffffffffffffffffffffffffffffffffffffffffff00ffffffffffffffff7ff0c57e16840df040f15088dc2f81fe391c3923bec73e23a9662efc9c229c6a0054167ff0c57e16840df040f15088dc2f81fe391c3923bec73e23a9662efc9c229c6a0055565b604051600181527fc7f505b2f371ae2175ee4913f4499e1f2633a7b5936321eed1cdaeb6115181d290602090a1005b610c85680100000000000000007fffffffffffffffffffffffffffffffffffffffffffffff00ffffffffffffffff7ff0c57e16840df040f15088dc2f81fe391c3923bec73e23a9662efc9c229c6a005416177ff0c57e16840df040f15088dc2f81fe391c3923bec73e23a9662efc9c229c6a0055565b611a2a565b7ff92ee8a90000000000000000000000000000000000000000000000000000000060005260046000fd5b90501538610aee565b303b159150610ae6565b879150610adc565b3461037857602060031936011261037857610d30610ceb6103b1565b73ffffffffffffffffffffffffffffffffffffffff166000527fe8b26c30fad74198956032a3533d903385d56dd795af560196f9c78d4af40d01602052604060002090565b5463ffffffff8111610d4d5760209063ffffffff60405191168152f35b7f6dfcc65000000000000000000000000000000000000000000000000000000000600052602060045260245260446000fd5b346103785760206003193601126103785760206105ed610d9d6103b1565b73ffffffffffffffffffffffffffffffffffffffff166000527f52c63247e1f47db19d5ce0460030c497f067ca4cebf71ba98eeadabe20bace0060205260406000205490565b346103785760206003193601126103785773ffffffffffffffffffffffffffffffffffffffff610e116103b1565b166000527f5ab42ced628888259c08ac98db1eb0cf702fc1501344311d8b100cd1bfe4bb006020526020604060002054604051908152f35b92939073ffffffffffffffffffffffffffffffffffffffff92610e9d610eab927f0f00000000000000000000000000000000000000000000000000000000000000875260e0602088015260e08701906101cc565b9085820360408701526101cc565b936060840152166080820152600060a082015260c08183039101526020808351928381520192019060005b818110610ee35750505090565b8251845260209384019390920191600101610ed6565b34610378576000600319360112610378577fa16a46d94261c7517cc8ff89f61c0ce93598e3c849801011dee649a6a557d100541580610fc2575b15610f6457610f406117fe565b610f48611911565b906102b4610f54611c8e565b6040519384933091469186610e49565b60646040517f08c379a000000000000000000000000000000000000000000000000000000000815260206004820152601560248201527f4549503731323a20556e696e697469616c697a656400000000000000000000006044820152fd5b507fa16a46d94261c7517cc8ff89f61c0ce93598e3c849801011dee649a6a557d1015415610f33565b3461037857602060031936011261037857611007600435611eb9565b60007fe8b26c30fad74198956032a3533d903385d56dd795af560196f9c78d4af40d0254819281600581116110d0575b5090602093611066927fe8b26c30fad74198956032a3533d903385d56dd795af560196f9c78d4af40d02612821565b80611090575079ffffffffffffffffffffffffffffffffffffffffffffffffffff60405191168152f35b908261109e6110cb93611f46565b917fe8b26c30fad74198956032a3533d903385d56dd795af560196f9c78d4af40d02815220015460301c90565b61068c565b936110da856126ac565b850394851161072457602094611066937fe8b26c30fad74198956032a3533d903385d56dd795af560196f9c78d4af40d02865265ffffffffffff8288882001541665ffffffffffff8516106000146111385750915b91925093611037565b92915061114490611f55565b9061112f565b3461037857600060031936011261037857602060405165ffffffffffff42168152f35b346103785760006003193601126103785760405160007f52c63247e1f47db19d5ce0460030c497f067ca4cebf71ba98eeadabe20bace04546111ae816117ab565b808452906001811690811561033657506001146111d5576102b4836102a88185038261094e565b7f52c63247e1f47db19d5ce0460030c497f067ca4cebf71ba98eeadabe20bace0460009081527f46a2803e59a4de4e7a4c574b1243f25977ac4c77d5a1a4a609b5394cebb4a2aa939250905b808210611239575090915081016020016102a8610298565b919260018160209254838588010152019101909291611221565b3461037857602060031936011261037857602079ffffffffffffffffffffffffffffffffffffffffffffffffffff61129461128f610ceb6103b1565b6123f0565b16604051908152f35b34610378576040600319360112610378576104636112b96103b1565b6024359033611cc3565b6064359060ff8216820361037857565b6084359060ff8216820361037857565b346103785760c0600319360112610378576112fc6103b1565b6024359060443561130b6112c3565b6084359060a43592804211611449579161139e93916113906113959460405160208101917fe48329057bfd03d55e49b547132e39cffd9c1820ad7b9d4c5307691425d15adf835273ffffffffffffffffffffffffffffffffffffffff8a1660408301528a606083015260808201526080815261138860a08261094e565b51902061241e565b612f0a565b90929192612fe5565b6113f08173ffffffffffffffffffffffffffffffffffffffff166000527f5ab42ced628888259c08ac98db1eb0cf702fc1501344311d8b100cd1bfe4bb00602052604060002080549060018201905590565b8093036114015761076d92506120d1565b73ffffffffffffffffffffffffffffffffffffffff91507f752d88c0000000000000000000000000000000000000000000000000000000006000521660045260245260446000fd5b7f4683af0e0000000000000000000000000000000000000000000000000000000060005260045260246000fd5b346103785760e06003193601126103785761148f6103b1565b6114976103d4565b60443590606435926114a76112d3565b60a43560c43590864211611608576115989261159361150e8673ffffffffffffffffffffffffffffffffffffffff166000527f5ab42ced628888259c08ac98db1eb0cf702fc1501344311d8b100cd1bfe4bb00602052604060002080549060018201905590565b9860405160208101917f6e71edae12b1b97f4d1f60370fef10105fa2faae0126114a169c64845d6126c9835273ffffffffffffffffffffffffffffffffffffffff89169b8c604084015273ffffffffffffffffffffffffffffffffffffffff8b1660608401528b608084015260a083015260c082015260c0815261138860e08261094e565b61245f565b9373ffffffffffffffffffffffffffffffffffffffff8516036115bf5761076d935061246e565b7f4b800e460000000000000000000000000000000000000000000000000000000060005273ffffffffffffffffffffffffffffffffffffffff8085166004521660245260446000fd5b867f627913020000000000000000000000000000000000000000000000000000000060005260045260246000fd5b346103785760406003193601126103785760206116a56116546103b1565b61051d61165f6103d4565b9173ffffffffffffffffffffffffffffffffffffffff166000527f52c63247e1f47db19d5ce0460030c497f067ca4cebf71ba98eeadabe20bace01602052604060002090565b54604051908152f35b34610378576040600319360112610378576116c76103b1565b6024359063ffffffff82168203610378576102b49161173a611748926116eb611caa565b506116f4611caa565b5073ffffffffffffffffffffffffffffffffffffffff166000527fe8b26c30fad74198956032a3533d903385d56dd795af560196f9c78d4af40d01602052604060002090565b611742611caa565b506130b2565b50604051906117568261092d565b5465ffffffffffff8116825260301c602082015260405191829182919091602079ffffffffffffffffffffffffffffffffffffffffffffffffffff81604084019565ffffffffffff8151168552015116910152565b90600182811c921680156117f4575b60208310146117c557565b7f4e487b7100000000000000000000000000000000000000000000000000000000600052602260045260246000fd5b91607f16916117ba565b604051906000827fa16a46d94261c7517cc8ff89f61c0ce93598e3c849801011dee649a6a557d1025491611831836117ab565b80835292600181169081156118d45750600114611855575b61099e9250038361094e565b507fa16a46d94261c7517cc8ff89f61c0ce93598e3c849801011dee649a6a557d102600090815290917f42ad5d3e1f2e6e70edcf6d991b8a3023d3fca8047a131592f9edb9fd9b89d57d5b8183106118b857505090602061099e92820101611849565b60209193508060019154838589010152019101909184926118a0565b6020925061099e9491507fffffffffffffffffffffffffffffffffffffffffffffffffffffffffffffff001682840152151560051b820101611849565b604051906000827fa16a46d94261c7517cc8ff89f61c0ce93598e3c849801011dee649a6a557d1035491611944836117ab565b80835292600181169081156118d457506001146119675761099e9250038361094e565b507fa16a46d94261c7517cc8ff89f61c0ce93598e3c849801011dee649a6a557d103600090815290917f5f9ce34815f8e11431c7bb75a8e6886a91478f7ffc1dbb0a98dc240fddd76b755b8183106119ca57505090602061099e92820101611849565b60209193508060019154838589010152019101909184926119b2565b7f4e487b7100000000000000000000000000000000000000000000000000000000600052601160045260246000fd5b9081621466a80291621466a883040361072457565b939291611a35612a51565b611a3d612a51565b815167ffffffffffffffff811161094957611a8181611a7c7f52c63247e1f47db19d5ce0460030c497f067ca4cebf71ba98eeadabe20bace03546117ab565b612aaa565b6020601f8211600114611b9b5761099e969593611aea611b3894611ac385611b799996611aef96600091611b90575b506000198260011b9260031b1c19161790565b7f52c63247e1f47db19d5ce0460030c497f067ca4cebf71ba98eeadabe20bace0355612be0565b6121c3565b611af7612a51565b73ffffffffffffffffffffffffffffffffffffffff167fffffffffffffffffffffffff00000000000000000000000000000000000000006001541617600155565b73ffffffffffffffffffffffffffffffffffffffff167fffffffffffffffffffffffff00000000000000000000000000000000000000006000541617600055565b611b8a670de0b6b3a7640000611a15565b90611f63565b905085015138611ab0565b7f52c63247e1f47db19d5ce0460030c497f067ca4cebf71ba98eeadabe20bace036000527fffffffffffffffffffffffffffffffffffffffffffffffffffffffffffffffe08216907f2ae08a8e29253f69ac5d979a101956ab8f8d9d7ded63fa7a83b16fc47648eab09160005b818110611c765750611b3894600185611aef9561099e9c9b9995611b799b98611aea9610611c5d575b5050811b017f52c63247e1f47db19d5ce0460030c497f067ca4cebf71ba98eeadabe20bace0355612be0565b86015160001960f88460031b161c191690553880611c31565b9192602060018192868a015181550194019201611c08565b60405190611c9d60208361094e565b6000808352366020840137565b60405190611cb78261092d565b60006020838281520152565b92919073ffffffffffffffffffffffffffffffffffffffff8416938415611e8a5773ffffffffffffffffffffffffffffffffffffffff82168015611e5b57600095611d4d8373ffffffffffffffffffffffffffffffffffffffff166000527f52c63247e1f47db19d5ce0460030c497f067ca4cebf71ba98eeadabe20bace00602052604060002090565b5496858810611e28578561099e979803611da68573ffffffffffffffffffffffffffffffffffffffff166000527f52c63247e1f47db19d5ce0460030c497f067ca4cebf71ba98eeadabe20bace00602052604060002090565b5550611df18473ffffffffffffffffffffffffffffffffffffffff166000527f52c63247e1f47db19d5ce0460030c497f067ca4cebf71ba98eeadabe20bace00602052604060002090565b8054860190556040518581527fddf252ad1be2c89b69c2b068fc378daa952ba7f163c4a11628f55a4df523b3ef90602090a36134d5565b85886064937fe450d38c000000000000000000000000000000000000000000000000000000008452600452602452604452fd5b7fec442f0500000000000000000000000000000000000000000000000000000000600052600060045260246000fd5b7f96c6fd1e00000000000000000000000000000000000000000000000000000000600052600060045260246000fd5b65ffffffffffff421680821015611f15575065ffffffffffff8111611ee35765ffffffffffff1690565b7f6dfcc65000000000000000000000000000000000000000000000000000000000600052603060045260245260446000fd5b907fecd3f81e0000000000000000000000000000000000000000000000000000000060005260045260245260446000fd5b90600019820191821161072457565b906001820180921161072457565b919073ffffffffffffffffffffffffffffffffffffffff8316928315611e5b577f52c63247e1f47db19d5ce0460030c497f067ca4cebf71ba98eeadabe20bace0254828101809111610724577f52c63247e1f47db19d5ce0460030c497f067ca4cebf71ba98eeadabe20bace025560009361201d8273ffffffffffffffffffffffffffffffffffffffff166000527f52c63247e1f47db19d5ce0460030c497f067ca4cebf71ba98eeadabe20bace00602052604060002090565b80548401905560405183815285907fddf252ad1be2c89b69c2b068fc378daa952ba7f163c4a11628f55a4df523b3ef90602090a37f52c63247e1f47db19d5ce0460030c497f067ca4cebf71ba98eeadabe20bace025479ffffffffffffffffffffffffffffffffffffffffffffffffffff908181116120a357505061099e929350613418565b7f1cb15d26000000000000000000000000000000000000000000000000000000008652600452602452604484fd5b73ffffffffffffffffffffffffffffffffffffffff81811660008181527fe8b26c30fad74198956032a3533d903385d56dd795af560196f9c78d4af40d006020526040812080548685167fffffffffffffffffffffffff00000000000000000000000000000000000000008216811790925561099e969416946121bd9390928691907f3134e8a2e6d97e929a7e54011ea5485d7d196dd5f0ba4d4ef95803e8e3fc257f9080a473ffffffffffffffffffffffffffffffffffffffff166000527f52c63247e1f47db19d5ce0460030c497f067ca4cebf71ba98eeadabe20bace0060205260406000205490565b91612888565b6121cb612a51565b604051906121da60408361094e565b600182527f3100000000000000000000000000000000000000000000000000000000000000602083015261220c612a51565b80519067ffffffffffffffff8211610949576122518261224c7fa16a46d94261c7517cc8ff89f61c0ce93598e3c849801011dee649a6a557d102546117ab565b612b1c565b602090601f831160011461230a579180612286926122ad95946000926122ff575b50506000198260011b9260031b1c19161790565b7fa16a46d94261c7517cc8ff89f61c0ce93598e3c849801011dee649a6a557d10255612d75565b6122d660007fa16a46d94261c7517cc8ff89f61c0ce93598e3c849801011dee649a6a557d10055565b61099e60007fa16a46d94261c7517cc8ff89f61c0ce93598e3c849801011dee649a6a557d10155565b015190503880612272565b7fa16a46d94261c7517cc8ff89f61c0ce93598e3c849801011dee649a6a557d1026000527fffffffffffffffffffffffffffffffffffffffffffffffffffffffffffffffe0831691907f42ad5d3e1f2e6e70edcf6d991b8a3023d3fca8047a131592f9edb9fd9b89d57d9260005b8181106123d857509160019391856122ad979694106123bf575b505050811b017fa16a46d94261c7517cc8ff89f61c0ce93598e3c849801011dee649a6a557d10255612d75565b015160001960f88460031b161c19169055388080612392565b92936020600181928786015181550195019301612378565b8054806123fe575050600090565b806000198101116107245760001991600052602060002001015460301c90565b60429061242961260c565b90604051917f19010000000000000000000000000000000000000000000000000000000000008352600283015260228201522090565b9161023c939161139593612f0a565b9073ffffffffffffffffffffffffffffffffffffffff82169182156125555773ffffffffffffffffffffffffffffffffffffffff8216938415612526578061251c7f8c5be1e5ebec7d5bd14f71427d1e84f3dd0314c0f7b2291e5b200ac8c7c3b9259461051d60209573ffffffffffffffffffffffffffffffffffffffff166000527f52c63247e1f47db19d5ce0460030c497f067ca4cebf71ba98eeadabe20bace01602052604060002090565b55604051908152a3565b7f94280d6200000000000000000000000000000000000000000000000000000000600052600060045260246000fd5b7fe602df0500000000000000000000000000000000000000000000000000000000600052600060045260246000fd5b9073ffffffffffffffffffffffffffffffffffffffff8216156125555773ffffffffffffffffffffffffffffffffffffffff8116156125265761051d6126099273ffffffffffffffffffffffffffffffffffffffff166000527f52c63247e1f47db19d5ce0460030c497f067ca4cebf71ba98eeadabe20bace01602052604060002090565b55565b6126146130f9565b61261c613163565b6040519060208201927f8b73c3c69bb8fe3d512ecc4cf759cc79239f7b179b0ffacaa9a75d522b39400f8452604083015260608201524660808201523060a082015260a0815261266d60c08261094e565b51902090565b811561267d570490565b7f4e487b7100000000000000000000000000000000000000000000000000000000600052601260045260246000fd5b600181111561023c578060017001000000000000000000000000000000008310156127df575b61278561277b61277161276761275d61275361274261278c9760048a680100000000000000006127919c10156127d2575b6401000000008110156127c5575b620100008110156127b8575b6101008110156127ab575b601081101561279e575b1015612796575b60030260011c90565b61274c818b612673565b0160011c90565b61274c818a612673565b61274c8189612673565b61274c8188612673565b61274c8187612673565b61274c8186612673565b8093612673565b821190565b900390565b60011b612739565b60041c9160021b91612732565b60081c9160041b91612728565b60101c9160081b9161271d565b60201c9160101b91612711565b60401c9160201b91612703565b505061279161278c61278561277b61277161276761275d6127536127426128068a60801c90565b98506801000000000000000097506126d29650505050505050565b91905b8382106128315750505090565b9091928083169080841860011c8201809211610724578460005265ffffffffffff82602060002001541665ffffffffffff8416106000146128765750925b9190612824565b93925061288290611f55565b9161286f565b919073ffffffffffffffffffffffffffffffffffffffff81169273ffffffffffffffffffffffffffffffffffffffff8116908482141580612a48575b6128d0575b5050505050565b816129a4575b5050826128e5575b80806128c9565b6129996129807fdec2bacdd2f05b59de34da9b523dff8be42e5e38e818c82fdb0bae774387a7249361297a61297479ffffffffffffffffffffffffffffffffffffffffffffffffffff9573ffffffffffffffffffffffffffffffffffffffff166000527fe8b26c30fad74198956032a3533d903385d56dd795af560196f9c78d4af40d01602052604060002090565b916131a8565b9061327d565b6040805192851683529316602082015291829190820190565b0390a23880806128de565b79ffffffffffffffffffffffffffffffffffffffffffffffffffff612a3e612980612a2f7fdec2bacdd2f05b59de34da9b523dff8be42e5e38e818c82fdb0bae774387a7249473ffffffffffffffffffffffffffffffffffffffff166000527fe8b26c30fad74198956032a3533d903385d56dd795af560196f9c78d4af40d01602052604060002090565b612a38886131a8565b9061321a565b0390a238806128d6565b508315156128c4565b60ff7ff0c57e16840df040f15088dc2f81fe391c3923bec73e23a9662efc9c229c6a005460401c1615612a8057565b7fd7e6bcf80000000000000000000000000000000000000000000000000000000060005260046000fd5b601f8111612ab6575050565b7f52c63247e1f47db19d5ce0460030c497f067ca4cebf71ba98eeadabe20bace036000526020600020906020601f840160051c83019310612b12575b601f0160051c01905b818110612b06575050565b60008155600101612afb565b9091508190612af2565b601f8111612b28575050565b7fa16a46d94261c7517cc8ff89f61c0ce93598e3c849801011dee649a6a557d1026000526020600020906020601f840160051c83019310612b84575b601f0160051c01905b818110612b78575050565b60008155600101612b6d565b9091508190612b64565b601f8211612b9b57505050565b6000526020600020906020601f840160051c83019310612bd6575b601f0160051c01905b818110612bca575050565b60008155600101612bbf565b9091508190612bb6565b90815167ffffffffffffffff811161094957612c4681612c207f52c63247e1f47db19d5ce0460030c497f067ca4cebf71ba98eeadabe20bace04546117ab565b7f52c63247e1f47db19d5ce0460030c497f067ca4cebf71ba98eeadabe20bace04612b8e565b602092601f8211600114612c9a57612c76929382916000926122ff5750506000198260011b9260031b1c19161790565b7f52c63247e1f47db19d5ce0460030c497f067ca4cebf71ba98eeadabe20bace0455565b7f52c63247e1f47db19d5ce0460030c497f067ca4cebf71ba98eeadabe20bace046000527fffffffffffffffffffffffffffffffffffffffffffffffffffffffffffffffe08216937f46a2803e59a4de4e7a4c574b1243f25977ac4c77d5a1a4a609b5394cebb4a2aa9160005b868110612d5d5750836001959610612d44575b505050811b017f52c63247e1f47db19d5ce0460030c497f067ca4cebf71ba98eeadabe20bace0455565b015160001960f88460031b161c19169055388080612d1a565b91926020600181928685015181550194019201612d07565b90815167ffffffffffffffff811161094957612ddb81612db57fa16a46d94261c7517cc8ff89f61c0ce93598e3c849801011dee649a6a557d103546117ab565b7fa16a46d94261c7517cc8ff89f61c0ce93598e3c849801011dee649a6a557d103612b8e565b602092601f8211600114612e2f57612e0b929382916000926122ff5750506000198260011b9260031b1c19161790565b7fa16a46d94261c7517cc8ff89f61c0ce93598e3c849801011dee649a6a557d10355565b7fa16a46d94261c7517cc8ff89f61c0ce93598e3c849801011dee649a6a557d1036000527fffffffffffffffffffffffffffffffffffffffffffffffffffffffffffffffe08216937f5f9ce34815f8e11431c7bb75a8e6886a91478f7ffc1dbb0a98dc240fddd76b759160005b868110612ef25750836001959610612ed9575b505050811b017fa16a46d94261c7517cc8ff89f61c0ce93598e3c849801011dee649a6a557d10355565b015160001960f88460031b161c19169055388080612eaf565b91926020600181928685015181550194019201612e9c565b91907f7fffffffffffffffffffffffffffffff5d576e7357a4501ddfe92f46681b20a08411612fa0579160209360809260ff60009560405194855216868401526040830152606082015282805260015afa15612f945760005173ffffffffffffffffffffffffffffffffffffffff811615612f885790600090600090565b50600090600190600090565b6040513d6000823e3d90fd5b50505060009160039190565b60041115612fb657565b7f4e487b7100000000000000000000000000000000000000000000000000000000600052602160045260246000fd5b612fee81612fac565b80612ff7575050565b61300081612fac565b60018103613032577ff645eedf0000000000000000000000000000000000000000000000000000000060005260046000fd5b61303b81612fac565b6002810361307157507ffce698f70000000000000000000000000000000000000000000000000000000060005260045260246000fd5b8061307d600392612fac565b146130855750565b7fd78bce0c0000000000000000000000000000000000000000000000000000000060005260045260246000fd5b80548210156130ca5760005260206000200190600090565b7f4e487b7100000000000000000000000000000000000000000000000000000000600052603260045260246000fd5b6131016117fe565b8051908115613111576020012090565b50507fa16a46d94261c7517cc8ff89f61c0ce93598e3c849801011dee649a6a557d10054801561313e5790565b507fc5d2460186f7233c927e7db2dcc703c0e500b653ca82273b7bfad8045d85a47090565b61316b611911565b805190811561317b576020012090565b50507fa16a46d94261c7517cc8ff89f61c0ce93598e3c849801011dee649a6a557d10154801561313e5790565b79ffffffffffffffffffffffffffffffffffffffffffffffffffff81116131e85779ffffffffffffffffffffffffffffffffffffffffffffffffffff1690565b7f6dfcc6500000000000000000000000000000000000000000000000000000000060005260d060045260245260446000fd5b9079ffffffffffffffffffffffffffffffffffffffffffffffffffff80613240846123f0565b921691160379ffffffffffffffffffffffffffffffffffffffffffffffffffff8111610724576132799165ffffffffffff42169061364c565b9091565b9079ffffffffffffffffffffffffffffffffffffffffffffffffffff806132a3846123f0565b921691160179ffffffffffffffffffffffffffffffffffffffffffffffffffff8111610724576132799165ffffffffffff42169061364c565b79ffffffffffffffffffffffffffffffffffffffffffffffffffff806133217fe8b26c30fad74198956032a3533d903385d56dd795af560196f9c78d4af40d026123f0565b921691160179ffffffffffffffffffffffffffffffffffffffffffffffffffff811161072457613279904265ffffffffffff167fe8b26c30fad74198956032a3533d903385d56dd795af560196f9c78d4af40d0261364c565b79ffffffffffffffffffffffffffffffffffffffffffffffffffff806133bf7fe8b26c30fad74198956032a3533d903385d56dd795af560196f9c78d4af40d026123f0565b921691160379ffffffffffffffffffffffffffffffffffffffffffffffffffff811161072457613279904265ffffffffffff167fe8b26c30fad74198956032a3533d903385d56dd795af560196f9c78d4af40d0261364c565b9073ffffffffffffffffffffffffffffffffffffffff61099e9261344361343e846131a8565b6132dc565b50501680156134bd575b7fe8b26c30fad74198956032a3533d903385d56dd795af560196f9c78d4af40d006020527fd4fb29e10204005f1a39963c6862b79a755e22f0177c53f05cdc3786c702f97454600091825260409091205473ffffffffffffffffffffffffffffffffffffffff9081169116612888565b6134ce6134c9836131a8565b61337a565b505061344d565b9073ffffffffffffffffffffffffffffffffffffffff8061099e9493169182156135a3575b16908115613590575b6000527fe8b26c30fad74198956032a3533d903385d56dd795af560196f9c78d4af40d0060205273ffffffffffffffffffffffffffffffffffffffff60406000205416906000527fe8b26c30fad74198956032a3533d903385d56dd795af560196f9c78d4af40d0060205273ffffffffffffffffffffffffffffffffffffffff6040600020541690612888565b61359c6134c9846131a8565b5050613503565b6135af61343e856131a8565b50506134fa565b805468010000000000000000811015610949576135d8916001820181556130b2565b61361d5781516020929092015160301b7fffffffffffffffffffffffffffffffffffffffffffffffffffff0000000000001665ffffffffffff92909216919091179055565b7f4e487b7100000000000000000000000000000000000000000000000000000000600052600060045260246000fd5b805492939280156137465761366361367091611f46565b8260005260206000200190565b8054603081901c9365ffffffffffff9182169291811680841161371c578793036136d557506136d192509065ffffffffffff7fffffffffffffffffffffffffffffffffffffffffffffffffffff00000000000083549260301b169116179055565b9190565b9150506136d1916136f56136e761098f565b65ffffffffffff9093168352565b79ffffffffffffffffffffffffffffffffffffffffffffffffffff861660208301526135b6565b7f2520601d0000000000000000000000000000000000000000000000000000000060005260046000fd5b509061377e916137576136e761098f565b79ffffffffffffffffffffffffffffffffffffffffffffffffffff851660208301526135b6565b6000919056fea164736f6c634300081c000a",
  "devdoc": {
    "custom:security-contact": "sirt@peeramid.xyz",
    "errors": {
      "CheckpointUnorderedInsertion()": [
        {
          "details": "A value was attempted to be inserted on a past checkpoint."
        }
      ],
      "ECDSAInvalidSignature()": [
        {
          "details": "The signature derives the `address(0)`."
        }
      ],
      "ECDSAInvalidSignatureLength(uint256)": [
        {
          "details": "The signature has an invalid length."
        }
      ],
      "ECDSAInvalidSignatureS(bytes32)": [
        {
          "details": "The signature has an S value that is in the upper half order."
        }
      ],
      "ERC20ExceededSafeSupply(uint256,uint256)": [
        {
          "details": "Total supply cap has been exceeded, introducing a risk of votes overflowing."
        }
      ],
      "ERC20InsufficientAllowance(address,uint256,uint256)": [
        {
          "details": "Indicates a failure with the `spender`s `allowance`. Used in transfers.",
          "params": {
            "allowance": "Amount of tokens a `spender` is allowed to operate with.",
            "needed": "Minimum amount required to perform a transfer.",
            "spender": "Address that may be allowed to operate on tokens without being their owner."
          }
        }
      ],
      "ERC20InsufficientBalance(address,uint256,uint256)": [
        {
          "details": "Indicates an error related to the current `balance` of a `sender`. Used in transfers.",
          "params": {
            "balance": "Current balance for the interacting account.",
            "needed": "Minimum amount required to perform a transfer.",
            "sender": "Address whose tokens are being transferred."
          }
        }
      ],
      "ERC20InvalidApprover(address)": [
        {
          "details": "Indicates a failure with the `approver` of a token to be approved. Used in approvals.",
          "params": {
            "approver": "Address initiating an approval operation."
          }
        }
      ],
      "ERC20InvalidReceiver(address)": [
        {
          "details": "Indicates a failure with the token `receiver`. Used in transfers.",
          "params": {
            "receiver": "Address to which tokens are being transferred."
          }
        }
      ],
      "ERC20InvalidSender(address)": [
        {
          "details": "Indicates a failure with the token `sender`. Used in transfers.",
          "params": {
            "sender": "Address whose tokens are being transferred."
          }
        }
      ],
      "ERC20InvalidSpender(address)": [
        {
          "details": "Indicates a failure with the `spender` to be approved. Used in approvals.",
          "params": {
            "spender": "Address that may be allowed to operate on tokens without being their owner."
          }
        }
      ],
      "ERC2612ExpiredSignature(uint256)": [
        {
          "details": "Permit deadline has expired."
        }
      ],
      "ERC2612InvalidSigner(address,address)": [
        {
          "details": "Mismatched signature."
        }
      ],
      "ERC5805FutureLookup(uint256,uint48)": [
        {
          "details": "Lookup to future votes is not available."
        }
      ],
      "ERC6372InconsistentClock()": [
        {
          "details": "The clock was incorrectly modified."
        }
      ],
      "InvalidAccountNonce(address,uint256)": [
        {
          "details": "The nonce used for an `account` is not the expected current nonce."
        }
      ],
      "InvalidInitialization()": [
        {
          "details": "The contract is already initialized."
        }
      ],
      "NotInitializing()": [
        {
          "details": "The contract is not initializing."
        }
      ],
      "SafeCastOverflowedUintDowncast(uint8,uint256)": [
        {
          "details": "Value doesn't fit in an uint of `bits` size."
        }
      ],
      "VotesExpiredSignature(uint256)": [
        {
          "details": "The signature used has expired."
        }
      ]
    },
    "events": {
      "Approval(address,address,uint256)": {
        "details": "Emitted when the allowance of a `spender` for an `owner` is set by a call to {approve}. `value` is the new allowance."
      },
      "DelegateChanged(address,address,address)": {
        "details": "Emitted when an account changes their delegate."
      },
      "DelegateVotesChanged(address,uint256,uint256)": {
        "details": "Emitted when a token transfer or delegate change results in changes to a delegate's number of voting units."
      },
      "EIP712DomainChanged()": {
        "details": "MAY be emitted to signal that the domain could have changed."
      },
      "Initialized(uint64)": {
        "details": "Triggered when the contract has been initialized or reinitialized."
      },
      "Transfer(address,address,uint256)": {
        "details": "Emitted when `value` tokens are moved from one account (`from`) to another (`to`). Note that `value` may be zero."
      }
    },
    "kind": "dev",
    "methods": {
      "CLOCK_MODE()": {
        "details": "Machine-readable description of the clock as specified in ERC-6372."
      },
      "DOMAIN_SEPARATOR()": {
        "details": "Returns the domain separator used in the encoding of the signature for {permit}, as defined by {EIP712}."
      },
      "allowance(address,address)": {
        "details": "See {IERC20-allowance}."
      },
      "approve(address,uint256)": {
        "details": "See {IERC20-approve}. NOTE: If `value` is the maximum `uint256`, the allowance is not updated on `transferFrom`. This is semantically equivalent to an infinite approval. Requirements: - `spender` cannot be the zero address."
      },
      "balanceOf(address)": {
        "details": "See {IERC20-balanceOf}."
      },
      "checkpoints(address,uint32)": {
        "details": "Get the `pos`-th checkpoint for `account`."
      },
      "clock()": {
        "details": "Clock used for flagging checkpoints. Can be overridden to implement timestamp based checkpoints (and voting), in which case {CLOCK_MODE} should be overridden as well to match."
      },
      "constructor": {
        "custom:oz-upgrades-unsafe-allow": "constructor"
      },
      "decimals()": {
        "details": "Returns the number of decimals used to get its user representation. For example, if `decimals` equals `2`, a balance of `505` tokens should be displayed to a user as `5.05` (`505 / 10 ** 2`). Tokens usually opt for a value of 18, imitating the relationship between Ether and Wei. This is the default value returned by this function, unless it's overridden. NOTE: This information is only used for _display_ purposes: it in no way affects any of the arithmetic of the contract, including {IERC20-balanceOf} and {IERC20-transfer}."
      },
      "delegate(address)": {
        "details": "Delegates votes from the sender to `delegatee`."
      },
      "delegateBySig(address,uint256,uint256,uint8,bytes32,bytes32)": {
        "details": "Delegates votes from signer to `delegatee`."
      },
      "delegates(address)": {
        "details": "Returns the delegate that `account` has chosen."
      },
      "eip712Domain()": {
        "details": "See {IERC-5267}."
      },
      "getPastTotalSupply(uint256)": {
        "details": "Returns the total supply of votes available at a specific moment in the past. If the `clock()` is configured to use block numbers, this will return the value at the end of the corresponding block. NOTE: This value is the sum of all available votes, which is not necessarily the sum of all delegated votes. Votes that have not been delegated are still part of total supply, even though they would not participate in a vote. Requirements: - `timepoint` must be in the past. If operating using block numbers, the block must be already mined."
      },
      "getPastVotes(address,uint256)": {
        "details": "Returns the amount of votes that `account` had at a specific moment in the past. If the `clock()` is configured to use block numbers, this will return the value at the end of the corresponding block. Requirements: - `timepoint` must be in the past. If operating using block numbers, the block must be already mined."
      },
      "getVotes(address)": {
        "details": "Returns the current amount of votes that `account` has."
      },
      "name()": {
        "details": "Returns the name of the token."
      },
      "numCheckpoints(address)": {
        "details": "Get number of checkpoints for `account`."
      },
      "permit(address,address,uint256,uint256,uint8,bytes32,bytes32)": {
        "details": "Sets `value` as the allowance of `spender` over ``owner``'s tokens, given ``owner``'s signed approval. IMPORTANT: The same issues {IERC20-approve} has related to transaction ordering also apply here. Emits an {Approval} event. Requirements: - `spender` cannot be the zero address. - `deadline` must be a timestamp in the future. - `v`, `r` and `s` must be a valid `secp256k1` signature from `owner` over the EIP712-formatted function arguments. - the signature must use ``owner``'s current nonce (see {nonces}). For more information on the signature format, see the https://eips.ethereum.org/EIPS/eip-2612#specification[relevant EIP section]. CAUTION: See Security Considerations above."
      },
      "symbol()": {
        "details": "Returns the symbol of the token, usually a shorter version of the name."
      },
      "totalSupply()": {
        "details": "See {IERC20-totalSupply}."
      },
      "transfer(address,uint256)": {
        "details": "See {IERC20-transfer}. Requirements: - `to` cannot be the zero address. - the caller must have a balance of at least `value`."
      },
      "transferFrom(address,address,uint256)": {
        "details": "See {IERC20-transferFrom}. Skips emitting an {Approval} event indicating an allowance update. This is not required by the ERC. See {xref-ERC20-_approve-address-address-uint256-bool-}[_approve]. NOTE: Does not update the allowance if the current allowance is the maximum `uint256`. Requirements: - `from` and `to` cannot be the zero address. - `from` must have a balance of at least `value`. - the caller must have allowance for ``from``'s tokens of at least `value`."
      }
    },
    "version": 1
  },
  "userdoc": {
    "kind": "user",
    "methods": {},
    "version": 1
  },
  "storageLayout": {
    "storage": [
      {
        "astId": 22827,
        "contract": "contracts/GovernanceToken.sol:GovernanceToken",
        "label": "minter",
        "offset": 0,
        "slot": "0",
        "type": "t_address"
      },
      {
        "astId": 22829,
        "contract": "contracts/GovernanceToken.sol:GovernanceToken",
        "label": "_DAO",
        "offset": 0,
        "slot": "1",
        "type": "t_address"
      }
    ],
    "types": {
      "t_address": {
        "encoding": "inplace",
        "label": "address",
        "numberOfBytes": "20"
      }
    }
  }
}