{
  "address": "0x0e7Cae61Af3F3bB6a6804Da3Aa759a3Eb75A58bD",
  "abi": [
    {
      "inputs": [
        {
          "internalType": "bool",
          "name": "isTest",
          "type": "bool"
        }
      ],
      "stateMutability": "nonpayable",
      "type": "constructor"
    },
    {
      "inputs": [
        {
          "internalType": "address",
          "name": "spender",
          "type": "address"
        },
        {
          "internalType": "uint256",
          "name": "allowance",
          "type": "uint256"
        },
        {
          "internalType": "uint256",
          "name": "needed",
          "type": "uint256"
        }
      ],
      "name": "ERC20InsufficientAllowance",
      "type": "error"
    },
    {
      "inputs": [
        {
          "internalType": "address",
          "name": "sender",
          "type": "address"
        },
        {
          "internalType": "uint256",
          "name": "balance",
          "type": "uint256"
        },
        {
          "internalType": "uint256",
          "name": "needed",
          "type": "uint256"
        }
      ],
      "name": "ERC20InsufficientBalance",
      "type": "error"
    },
    {
      "inputs": [
        {
          "internalType": "address",
          "name": "approver",
          "type": "address"
        }
      ],
      "name": "ERC20InvalidApprover",
      "type": "error"
    },
    {
      "inputs": [
        {
          "internalType": "address",
          "name": "receiver",
          "type": "address"
        }
      ],
      "name": "ERC20InvalidReceiver",
      "type": "error"
    },
    {
      "inputs": [
        {
          "internalType": "address",
          "name": "sender",
          "type": "address"
        }
      ],
      "name": "ERC20InvalidSender",
      "type": "error"
    },
    {
      "inputs": [
        {
          "internalType": "address",
          "name": "spender",
          "type": "address"
        }
      ],
      "name": "ERC20InvalidSpender",
      "type": "error"
    },
    {
      "inputs": [],
      "name": "EnforcedPause",
      "type": "error"
    },
    {
      "inputs": [],
      "name": "ExpectedPause",
      "type": "error"
    },
    {
      "inputs": [],
      "name": "InvalidInitialization",
      "type": "error"
    },
    {
      "inputs": [],
      "name": "NotInitializing",
      "type": "error"
    },
    {
      "inputs": [],
      "name": "ReentrancyGuardReentrantCall",
      "type": "error"
    },
    {
      "anonymous": false,
      "inputs": [
        {
          "indexed": true,
          "internalType": "address",
          "name": "owner",
          "type": "address"
        },
        {
          "indexed": true,
          "internalType": "address",
          "name": "spender",
          "type": "address"
        },
        {
          "indexed": false,
          "internalType": "uint256",
          "name": "value",
          "type": "uint256"
        }
      ],
      "name": "Approval",
      "type": "event"
    },
    {
      "anonymous": false,
      "inputs": [
        {
          "indexed": true,
          "internalType": "string",
          "name": "country",
          "type": "string"
        },
        {
          "indexed": true,
          "internalType": "uint256",
          "name": "onboardingBonus",
          "type": "uint256"
        },
        {
          "indexed": true,
          "internalType": "address",
          "name": "citizen",
          "type": "address"
        }
      ],
      "name": "FirstCitizenOnboarded",
      "type": "event"
    },
    {
      "anonymous": false,
      "inputs": [
        {
          "indexed": true,
          "internalType": "string",
          "name": "country",
          "type": "string"
        },
        {
          "indexed": true,
          "internalType": "uint256",
          "name": "onboardingBonus",
          "type": "uint256"
        },
        {
          "indexed": true,
          "internalType": "address",
          "name": "citizen",
          "type": "address"
        }
      ],
      "name": "GlobalCitizenOnboarded",
      "type": "event"
    },
    {
      "anonymous": false,
      "inputs": [
        {
          "indexed": false,
          "internalType": "uint64",
          "name": "version",
          "type": "uint64"
        }
      ],
      "name": "Initialized",
      "type": "event"
    },
    {
      "anonymous": false,
      "inputs": [
        {
          "indexed": true,
          "internalType": "bytes32",
          "name": "country",
          "type": "bytes32"
        },
        {
          "indexed": true,
          "internalType": "address",
          "name": "godFather",
          "type": "address"
        },
        {
          "indexed": false,
          "internalType": "address",
          "name": "token",
          "type": "address"
        },
        {
          "indexed": false,
          "internalType": "address",
          "name": "dao",
          "type": "address"
        },
        {
          "indexed": false,
          "internalType": "string",
          "name": "countryName",
          "type": "string"
        }
      ],
      "name": "NewCountryOnboarded",
      "type": "event"
    },
    {
      "anonymous": false,
      "inputs": [
        {
          "indexed": false,
          "internalType": "address",
          "name": "account",
          "type": "address"
        }
      ],
      "name": "Paused",
      "type": "event"
    },
    {
      "anonymous": false,
      "inputs": [
        {
          "indexed": true,
          "internalType": "uint256",
          "name": "score",
          "type": "uint256"
        },
        {
          "indexed": true,
          "internalType": "uint256",
          "name": "day",
          "type": "uint256"
        },
        {
          "indexed": true,
          "internalType": "address",
          "name": "proposer",
          "type": "address"
        },
        {
          "indexed": false,
          "internalType": "bytes32",
          "name": "proposal",
          "type": "bytes32"
        }
      ],
      "name": "ProposalScoreUpdatedByAddress",
      "type": "event"
    },
    {
      "anonymous": false,
      "inputs": [
        {
          "indexed": true,
          "internalType": "uint256",
          "name": "score",
          "type": "uint256"
        },
        {
          "indexed": true,
          "internalType": "uint256",
          "name": "day",
          "type": "uint256"
        },
        {
          "indexed": true,
          "internalType": "bytes32",
          "name": "country",
          "type": "bytes32"
        },
        {
          "indexed": false,
          "internalType": "bytes32",
          "name": "proposal",
          "type": "bytes32"
        }
      ],
      "name": "ProposalScoreUpdatedByCountry",
      "type": "event"
    },
    {
      "anonymous": false,
      "inputs": [
        {
          "indexed": true,
          "internalType": "address",
          "name": "proposer",
          "type": "address"
        },
        {
          "indexed": true,
          "internalType": "uint256",
          "name": "day",
          "type": "uint256"
        },
        {
          "indexed": true,
          "internalType": "bytes32",
          "name": "proposal",
          "type": "bytes32"
        },
        {
          "indexed": false,
          "internalType": "string",
          "name": "proposalText",
          "type": "string"
        },
        {
          "indexed": false,
          "internalType": "uint256",
          "name": "scoreWhenProposed",
          "type": "uint256"
        }
      ],
      "name": "ProposingByAddress",
      "type": "event"
    },
    {
      "anonymous": false,
      "inputs": [
        {
          "indexed": true,
          "internalType": "bytes32",
          "name": "country",
          "type": "bytes32"
        },
        {
          "indexed": true,
          "internalType": "uint256",
          "name": "day",
          "type": "uint256"
        },
        {
          "indexed": true,
          "internalType": "bytes32",
          "name": "proposal",
          "type": "bytes32"
        },
        {
          "indexed": false,
          "internalType": "string",
          "name": "proposalText",
          "type": "string"
        },
        {
          "indexed": false,
          "internalType": "string",
          "name": "countryString",
          "type": "string"
        },
        {
          "indexed": false,
          "internalType": "uint256",
          "name": "scoreWhenProposed",
          "type": "uint256"
        }
      ],
      "name": "ProposingByCountry",
      "type": "event"
    },
    {
      "anonymous": false,
      "inputs": [
        {
          "indexed": true,
          "internalType": "address",
          "name": "from",
          "type": "address"
        },
        {
          "indexed": true,
          "internalType": "address",
          "name": "to",
          "type": "address"
        },
        {
          "indexed": false,
          "internalType": "uint256",
          "name": "value",
          "type": "uint256"
        }
      ],
      "name": "Transfer",
      "type": "event"
    },
    {
      "anonymous": false,
      "inputs": [
        {
          "indexed": false,
          "internalType": "address",
          "name": "account",
          "type": "address"
        }
      ],
      "name": "Unpaused",
      "type": "event"
    },
    {
      "anonymous": false,
      "inputs": [
        {
          "indexed": true,
          "internalType": "address",
          "name": "citizen",
          "type": "address"
        },
        {
          "indexed": true,
          "internalType": "uint256",
          "name": "expiresAt",
          "type": "uint256"
        },
        {
          "indexed": true,
          "internalType": "string",
          "name": "issuingState",
          "type": "string"
        },
        {
          "indexed": false,
          "internalType": "bool",
          "name": "isExpired",
          "type": "bool"
        }
      ],
      "name": "Verified",
      "type": "event"
    },
    {
      "anonymous": false,
      "inputs": [
        {
          "indexed": true,
          "internalType": "address",
          "name": "participant",
          "type": "address"
        },
        {
          "indexed": true,
          "internalType": "uint256",
          "name": "day",
          "type": "uint256"
        },
        {
          "indexed": true,
          "internalType": "bytes32",
          "name": "proposal",
          "type": "bytes32"
        },
        {
          "indexed": false,
          "internalType": "string",
          "name": "country",
          "type": "string"
        },
        {
          "indexed": false,
          "internalType": "string",
          "name": "proposerCountry",
          "type": "string"
        },
        {
          "indexed": false,
          "internalType": "uint256",
          "name": "scoreGiven",
          "type": "uint256"
        }
      ],
      "name": "VotingByAddress",
      "type": "event"
    },
    {
      "anonymous": false,
      "inputs": [
        {
          "indexed": true,
          "internalType": "bytes32",
          "name": "country",
          "type": "bytes32"
        },
        {
          "indexed": true,
          "internalType": "uint256",
          "name": "day",
          "type": "uint256"
        },
        {
          "indexed": true,
          "internalType": "bytes32",
          "name": "proposal",
          "type": "bytes32"
        },
        {
          "indexed": false,
          "internalType": "address",
          "name": "proposer",
          "type": "address"
        },
        {
          "indexed": false,
          "internalType": "address",
          "name": "voter",
          "type": "address"
        },
        {
          "indexed": false,
          "internalType": "string",
          "name": "proposerCountry",
          "type": "string"
        },
        {
          "indexed": false,
          "internalType": "uint256",
          "name": "scoreGiven",
          "type": "uint256"
        }
      ],
      "name": "VotingByCountry",
      "type": "event"
    },
    {
      "anonymous": false,
      "inputs": [
        {
          "indexed": true,
          "internalType": "address",
          "name": "oldWallet",
          "type": "address"
        },
        {
          "indexed": true,
          "internalType": "address",
          "name": "newWallet",
          "type": "address"
        }
      ],
      "name": "WalletChanged",
      "type": "event"
    },
    {
      "inputs": [
        {
          "internalType": "address",
          "name": "owner",
          "type": "address"
        },
        {
          "internalType": "address",
          "name": "spender",
          "type": "address"
        }
      ],
      "name": "allowance",
      "outputs": [
        {
          "internalType": "uint256",
          "name": "",
          "type": "uint256"
        }
      ],
      "stateMutability": "view",
      "type": "function"
    },
    {
      "inputs": [
        {
          "internalType": "address",
          "name": "spender",
          "type": "address"
        },
        {
          "internalType": "uint256",
          "name": "value",
          "type": "uint256"
        }
      ],
      "name": "approve",
      "outputs": [
        {
          "internalType": "bool",
          "name": "",
          "type": "bool"
        }
      ],
      "stateMutability": "nonpayable",
      "type": "function"
    },
    {
      "inputs": [
        {
          "internalType": "address",
          "name": "account",
          "type": "address"
        }
      ],
      "name": "balanceOf",
      "outputs": [
        {
          "internalType": "uint256",
          "name": "",
          "type": "uint256"
        }
      ],
      "stateMutability": "view",
      "type": "function"
    },
    {
      "inputs": [
        {
          "internalType": "uint256",
          "name": "value",
          "type": "uint256"
        }
      ],
      "name": "burn",
      "outputs": [],
      "stateMutability": "nonpayable",
      "type": "function"
    },
    {
      "inputs": [
        {
          "internalType": "address",
          "name": "account",
          "type": "address"
        },
        {
          "internalType": "uint256",
          "name": "value",
          "type": "uint256"
        }
      ],
      "name": "burnFrom",
      "outputs": [],
      "stateMutability": "nonpayable",
      "type": "function"
    },
    {
      "inputs": [
        {
          "internalType": "address",
          "name": "newWallet",
          "type": "address"
        }
      ],
      "name": "changeWallet",
      "outputs": [],
      "stateMutability": "nonpayable",
      "type": "function"
    },
    {
      "inputs": [
        {
          "internalType": "string",
          "name": "newProposal",
          "type": "string"
        },
        {
          "components": [
            {
              "internalType": "bytes32",
              "name": "proposal",
              "type": "bytes32"
            },
            {
              "internalType": "uint256",
              "name": "scoresGiven",
              "type": "uint256"
            }
          ],
          "internalType": "struct VoteElement[]",
          "name": "vote",
          "type": "tuple[]"
        },
        {
          "internalType": "address",
          "name": "onBehalfOf",
          "type": "address"
        }
      ],
      "name": "claim",
      "outputs": [],
      "stateMutability": "nonpayable",
      "type": "function"
    },
    {
      "inputs": [
        {
          "internalType": "string[]",
          "name": "proposals",
          "type": "string[]"
        },
        {
          "components": [
            {
              "internalType": "bytes32",
              "name": "proposal",
              "type": "bytes32"
            },
            {
              "internalType": "uint256",
              "name": "scoresGiven",
              "type": "uint256"
            }
          ],
          "internalType": "struct VoteElement[][]",
          "name": "votes",
          "type": "tuple[][]"
        },
        {
          "internalType": "address[]",
          "name": "accounts",
          "type": "address[]"
        }
      ],
      "name": "claimBatch",
      "outputs": [],
      "stateMutability": "nonpayable",
      "type": "function"
    },
    {
      "inputs": [],
      "name": "currentDay",
      "outputs": [
        {
          "internalType": "uint256",
          "name": "",
          "type": "uint256"
        }
      ],
      "stateMutability": "view",
      "type": "function"
    },
    {
      "inputs": [],
      "name": "daoDistribution",
      "outputs": [
        {
          "internalType": "contract IDistribution",
          "name": "",
          "type": "address"
        }
      ],
      "stateMutability": "view",
      "type": "function"
    },
    {
      "inputs": [
        {
          "internalType": "bytes32",
          "name": "state",
          "type": "bytes32"
        }
      ],
      "name": "daos",
      "outputs": [
        {
          "components": [
            {
              "internalType": "contract GovernanceToken",
              "name": "token",
              "type": "address"
            },
            {
              "internalType": "address",
              "name": "dao",
              "type": "address"
            },
            {
              "internalType": "uint256",
              "name": "bonusBase",
              "type": "uint256"
            },
            {
              "internalType": "uint256",
              "name": "verifiedCount",
              "type": "uint256"
            }
          ],
          "internalType": "struct DAO",
          "name": "",
          "type": "tuple"
        }
      ],
      "stateMutability": "view",
      "type": "function"
    },
    {
      "inputs": [
        {
          "internalType": "address",
          "name": "account",
          "type": "address"
        }
      ],
      "name": "daysSinceLastClaim",
      "outputs": [
        {
          "internalType": "uint256",
          "name": "",
          "type": "uint256"
        }
      ],
      "stateMutability": "view",
      "type": "function"
    },
    {
      "inputs": [],
      "name": "decimals",
      "outputs": [
        {
          "internalType": "uint8",
          "name": "",
          "type": "uint8"
        }
      ],
      "stateMutability": "view",
      "type": "function"
    },
    {
      "inputs": [
        {
          "internalType": "uint256",
          "name": "day",
          "type": "uint256"
        }
      ],
      "name": "getDayProposalCnt",
      "outputs": [
        {
          "internalType": "uint256",
          "name": "",
          "type": "uint256"
        }
      ],
      "stateMutability": "view",
      "type": "function"
    },
    {
      "inputs": [
        {
          "internalType": "address",
          "name": "account",
          "type": "address"
        }
      ],
      "name": "getHolderInfo",
      "outputs": [
        {
          "components": [
            {
              "internalType": "string",
              "name": "citizenship",
              "type": "string"
            },
            {
              "internalType": "uint256",
              "name": "revalidateAt",
              "type": "uint256"
            },
            {
              "internalType": "bool",
              "name": "isQualified",
              "type": "bool"
            }
          ],
          "internalType": "struct PassportHolder",
          "name": "",
          "type": "tuple"
        }
      ],
      "stateMutability": "view",
      "type": "function"
    },
    {
      "inputs": [
        {
          "internalType": "uint256",
          "name": "day",
          "type": "uint256"
        }
      ],
      "name": "getNoProposalBonus",
      "outputs": [
        {
          "internalType": "uint256",
          "name": "",
          "type": "uint256"
        }
      ],
      "stateMutability": "view",
      "type": "function"
    },
    {
      "inputs": [],
      "name": "getYesterdayProposalCnt",
      "outputs": [
        {
          "internalType": "uint256",
          "name": "",
          "type": "uint256"
        }
      ],
      "stateMutability": "view",
      "type": "function"
    },
    {
      "inputs": [
        {
          "internalType": "address",
          "name": "verifier",
          "type": "address"
        },
        {
          "internalType": "address",
          "name": "_daoDistribution",
          "type": "address"
        },
        {
          "internalType": "address",
          "name": "_worldMultiSig",
          "type": "address"
        }
      ],
      "name": "initialize",
      "outputs": [],
      "stateMutability": "nonpayable",
      "type": "function"
    },
    {
      "inputs": [],
      "name": "name",
      "outputs": [
        {
          "internalType": "string",
          "name": "",
          "type": "string"
        }
      ],
      "stateMutability": "view",
      "type": "function"
    },
    {
      "inputs": [
        {
          "internalType": "address",
          "name": "account",
          "type": "address"
        }
      ],
      "name": "passportHolders",
      "outputs": [
        {
          "components": [
            {
              "internalType": "string",
              "name": "citizenship",
              "type": "string"
            },
            {
              "internalType": "uint256",
              "name": "revalidateAt",
              "type": "uint256"
            },
            {
              "internalType": "bool",
              "name": "isQualified",
              "type": "bool"
            }
          ],
          "internalType": "struct PassportHolder",
          "name": "",
          "type": "tuple"
        }
      ],
      "stateMutability": "view",
      "type": "function"
    },
    {
      "inputs": [],
      "name": "pause",
      "outputs": [],
      "stateMutability": "nonpayable",
      "type": "function"
    },
    {
      "inputs": [],
      "name": "paused",
      "outputs": [
        {
          "internalType": "bool",
          "name": "",
          "type": "bool"
        }
      ],
      "stateMutability": "view",
      "type": "function"
    },
    {
      "inputs": [
        {
          "internalType": "bytes32",
          "name": "proposal",
          "type": "bytes32"
        }
      ],
      "name": "proposalScores",
      "outputs": [
        {
          "internalType": "uint256",
          "name": "",
          "type": "uint256"
        }
      ],
      "stateMutability": "view",
      "type": "function"
    },
    {
      "inputs": [],
      "name": "symbol",
      "outputs": [
        {
          "internalType": "string",
          "name": "",
          "type": "string"
        }
      ],
      "stateMutability": "view",
      "type": "function"
    },
    {
      "inputs": [],
      "name": "totalSupply",
      "outputs": [
        {
          "internalType": "uint256",
          "name": "",
          "type": "uint256"
        }
      ],
      "stateMutability": "view",
      "type": "function"
    },
    {
      "inputs": [
        {
          "internalType": "address",
          "name": "to",
          "type": "address"
        },
        {
          "internalType": "uint256",
          "name": "value",
          "type": "uint256"
        }
      ],
      "name": "transfer",
      "outputs": [
        {
          "internalType": "bool",
          "name": "",
          "type": "bool"
        }
      ],
      "stateMutability": "nonpayable",
      "type": "function"
    },
    {
      "inputs": [
        {
          "internalType": "address",
          "name": "from",
          "type": "address"
        },
        {
          "internalType": "address",
          "name": "to",
          "type": "address"
        },
        {
          "internalType": "uint256",
          "name": "value",
          "type": "uint256"
        }
      ],
      "name": "transferFrom",
      "outputs": [
        {
          "internalType": "bool",
          "name": "",
          "type": "bool"
        }
      ],
      "stateMutability": "nonpayable",
      "type": "function"
    },
    {
      "inputs": [],
      "name": "unpause",
      "outputs": [],
      "stateMutability": "nonpayable",
      "type": "function"
    },
    {
      "inputs": [
        {
          "components": [
            {
              "internalType": "uint256[2]",
              "name": "a",
              "type": "uint256[2]"
            },
            {
              "internalType": "uint256[2][2]",
              "name": "b",
              "type": "uint256[2][2]"
            },
            {
              "internalType": "uint256[2]",
              "name": "c",
              "type": "uint256[2]"
            },
            {
              "internalType": "uint256[21]",
              "name": "pubSignals",
              "type": "uint256[21]"
            }
          ],
          "internalType": "struct IVcAndDiscloseCircuitVerifier.VcAndDiscloseProof",
          "name": "proof",
          "type": "tuple"
        }
      ],
      "name": "verifySelfProof",
      "outputs": [],
      "stateMutability": "nonpayable",
      "type": "function"
    },
    {
      "inputs": [
        {
          "internalType": "address",
          "name": "account",
          "type": "address"
        }
      ],
      "name": "votedToday",
      "outputs": [
        {
          "internalType": "bool",
          "name": "",
          "type": "bool"
        }
      ],
      "stateMutability": "view",
      "type": "function"
    },
    {
      "inputs": [],
      "name": "worldMultiSig",
      "outputs": [
        {
          "internalType": "contract WorldMultiSigV1",
          "name": "",
          "type": "address"
        }
      ],
      "stateMutability": "view",
      "type": "function"
    }
  ],
  "transactionHash": "0xd2f9b1971790729d23fec413dfb3aca594d85a4d7a2e892db33ab102abdb1f8f",
  "args": [
    false
  ],
  "numDeployments": 1,
  "solcInputHash": "eb1dc8a15b10d0389c5ddc78f8fddc55",
  "bytecode": "0x60803461012357601f615bc138819003918201601f19168301916001600160401b038311848410176101285780849260209460405283398101031261012357518015908115036101235761005d575b604051615a82908161013f8239f35b7ff0c57e16840df040f15088dc2f81fe391c3923bec73e23a9662efc9c229c6a005460ff8160401c16610112576002600160401b03196001600160401b038216016100a9575b5061004e565b6001600160401b0319166001600160401b039081177ff0c57e16840df040f15088dc2f81fe391c3923bec73e23a9662efc9c229c6a00556040519081527fc7f505b2f371ae2175ee4913f4499e1f2633a7b5936321eed1cdaeb6115181d290602090a1386100a3565b63f92ee8a960e01b60005260046000fd5b600080fd5b634e487b7160e01b600052604160045260246000fdfe610220604052600436101561001357600080fd5b60006101a0526101a0513560e01c80630461b6e814614a4957806306fdde031461497457806308a9d66d14614938578063095ea7b31461491257806318160ddd146148d35780631c112dae146148ac57806323b872dd146148745780632fa2cc4e146147b3578063313ce567146147955780633b62c7ef146146525780633f4ba83a1461469f57806342966c681461468257806354e4067a146146525780635c9302c91461462f5780635c975abb146145eb5780636f499bec146138ca57806370a082311461386d578063733e82181461381d57806379cc6790146137ed57806381497adf146137c75780638456cb59146136f35780638789748c1461214957806395d89b411461201957806398b9a2dc14611c165780639c761d1314611bdd5780639d22a1a414611bab578063a9059cbb14611b7a578063c0c53b8b14611050578063d3622a4114611003578063dd62ed3e14610f865763fdc609671461017a57600080fd5b34610a5a576103a0600319360112610a5a5760405161019881614b59565b3660231215610a5a576101ac366004614cc3565b81523660631215610a5a57604080516101c58282614b91565b803660c411610a5a576044905b60c48210610f62575050602083019081523660e31215610a5a576101f73660c4614cc3565b90828401918252366101231215610a5a5782516102166102a082614b91565b80366103a411610a5a57610104905b6103a48210610f235750506060850190815261023f6157ac565b610247615825565b61024f61533d565b926001600160a01b03845416926102908651977f08e154780000000000000000000000000000000000000000000000000000000089526004890190516152f5565b516101a05186604489015b60028310610f0457505050506102b6905160c48701906152f5565b516101a05161010486015b60158210610eee57505050836103a4816101a051936101a051905af1918215610ee2576101a05193849384918291829190610c9d575b506001600160a01b0381169561030c8361531d565b88887ff5b9a28e1207f9513897b4e727fe85516c2963b4ed2a9c0e7c2e34af5683e8806020895195159586158152a46201518042046000198101908111610c6a5787600052600887016020528560002055600014610c0c578251602081519101206002860192816101a05152836020526001600160a01b03866101a05120541615600014610acf5750610469610477855161040f600460208a51846103ba8296518092858086019101614ae0565b81017f2044414f000000000000000000000000000000000000000000000000000000008382015203017fffffffffffffffffffffffffffffffffffffffffffffffffffffffffffffffe4810184520182614b91565b865161043d60208a518361042c8295518092858086019101614ae0565b81010301601f198101835282614b91565b88519161044983614b59565b8583526020830152888201528960608201528751928391602083016151c0565b03601f198101835282614b91565b6001600160a01b0360018801541690865180927f9ca33c9e0000000000000000000000000000000000000000000000000000000082526020600483015281806104c86101a051956024830190614b03565b03916101a051905af1908115610ac2576101a05191610a9b575b506001600160a01b036104f482614fa2565b511660036001600160a01b0361050984614fde565b511688519261051784614b59565b8352602083019081528883016a011b1eea4c8e67b1a0000081526001600160a01b03606085019260018452876101a051528960205281808d6101a05120975116167fffffffffffffffffffffffff000000000000000000000000000000000000000087541617865551166001600160a01b036001860191167fffffffffffffffffffffffff0000000000000000000000000000000000000000825416179055516002840155519101556001600160a01b036006880154166001600160a01b036105df83614fde565b511690803b15610a5a578751917fc31c072f0000000000000000000000000000000000000000000000000000000083526004830152816024816101a051936101a051905af18015610a8e579089939291610a6e575b50806001600160a01b036106748161066c7fce8afa6fd6580b8feafdfdab8ac12b1a23979b5e03f0f7c90d5a6fcdd4ada40495614fa2565b511692614fde565b51169061069888518a519384938452602084015260608b8401526060830190614b03565b0390a35b7f0123456789abcdffffffffffffffffffffffffffffffffffffffffffffffffff6101a05152816020526003846101a05120016106d98154615064565b90557f0123456789abcdffffffffffffffffffffffffffffffffffffffffffffffffff6101a051528160205261074c6002856101a0512001547f0123456789abcdffffffffffffffffffffffffffffffffffffffffffffffffff6101a05152836020526003866101a05120015490614f32565b9160018311610940575b505050519281519361076785614b75565b8452602084019485526003828501936001855260009283520160205220915192835167ffffffffffffffff811161090d576107a28454614d3c565b601f81116108cc575b5060206001601f831114610859578160029493926107e592610823986101a0519261084e575b50506000198260011b9260031b1c19161790565b84555b51600184015551151591019060ff7fffffffffffffffffffffffffffffffffffffffffffffffffffffffffffffff0083541691151516179055565b60017f9b779b17422d0df92223018b32b4d1fa46e071723d6817e2486d003becc55f00556101a05180f35b0151905038806107d1565b601f19821695856101a05152816101a05120966101a0515b8181106108b4575096600192849260029796956108239a1061089b575b505050811b0184556107e8565b015160001960f88460031b161c1916905538808061088e565b83830151895560019098019760209384019301610871565b6108fd90856101a0515260206101a05120601f840160051c81019160208510610903575b601f0160051c019061516e565b386107ab565b90915081906108f0565b7f4e487b71000000000000000000000000000000000000000000000000000000006101a05152604160045260246101a051fd5b7f0123456789abcdffffffffffffffffffffffffffffffffffffffffffffffffff6101a051526020526001600160a01b03846101a05120541690813b15610a5a5784517f40c10f190000000000000000000000000000000000000000000000000000000081526101a080516001600160a01b039390931660048301526024820185905251909283916044918391905af18015610a615790869291610a3a575b50600e84517f556e69746564204e6174696f6e730000000000000000000000000000000000008152207fc962c543f7754038c30dfa2ecf80cc21460e0dd165a30c7b72a5faff61641a526101a0516101a051a4388080610756565b610a4a9192506101a05190614b91565b6101a051610a5a578490386109df565b6101a05180fd5b84513d6101a051823e3d90fd5b610a7e9193506101a05190614b91565b6101a051610a5a57879138610634565b87513d6101a051823e3d90fd5b610aba91503d806101a051833e610ab28183614b91565b810190615225565b5050386104e2565b86513d6101a051823e3d90fd5b816101a05152836020526003866101a0512001610aec8154615064565b9055816101a0515283602052610b1f6002876101a051200154836101a05152856020526003886101a05120015490614f32565b9160018311610b31575b50505061069c565b6101a05152836020526001600160a01b03866101a051205416803b15610a5a5786517f40c10f190000000000000000000000000000000000000000000000000000000081526101a080516001600160a01b038716600484015260248301869052905191929091839160449183915af18015610a8e579089939291610bec575b50610bba9061531d565b7ff15cf73a700a5af7b78b60f8bec965ed4042021257f20ab061625e19bd39f9726101a0516101a051a4388080610b29565b610bfc9193506101a05190614b91565b6101a051610a5a57879138610bb0565b83517f08c379a000000000000000000000000000000000000000000000000000000000815260206004820152601560248201527f4e6f7420656c696769626c653a204578706972656400000000000000000000006044820152606490fd5b7f4e487b71000000000000000000000000000000000000000000000000000000006101a05152601160045260246101a051fd5b955050505092503d806101a051843e610cb68184614b91565b82019260a083850312610a5a57825167ffffffffffffffff8111610a5a57830161016081860312610a5a57815190610160820182811067ffffffffffffffff82111761090d578352805167ffffffffffffffff8111610a5a5786610d1b9183016152b3565b8252602081015167ffffffffffffffff8111610a5a57810186601f82011215610a5a578051610d4981614c17565b91610d5686519384614b91565b81835260208084019260051b82010191898311610a5a5760208201905b838210610eb4575050505060208301528281015167ffffffffffffffff8111610a5a5786610da29183016152b3565b83830152606081015167ffffffffffffffff8111610a5a5786610dc69183016152b3565b6060830152608081015167ffffffffffffffff8111610a5a5786610deb9183016152b3565b608083015260a081015167ffffffffffffffff8111610a5a5786610e109183016152b3565b60a083015260c08101519067ffffffffffffffff8211610a5a57610e39876101409383016152b3565b60c084015260e081015160e0840152610100810151610100840152610120810151610120840152015161014082015260208401519082850151958615158703610a5a5760608601519067ffffffffffffffff8211610a5a57610ea2608091610ea99389016152b3565b9601615211565b9091959490386102f7565b815167ffffffffffffffff8111610a5a57602091610ed78d8480948801016152b3565b815201910190610d73565b513d6101a051823e3d90fd5b60208060019285518152019301910190916102c1565b60019181610f1560209387516152f5565b01930191019091879061029b565b8135815260209182019101610225565b7f4e487b7100000000000000000000000000000000000000000000000000000000600052604160045260246000fd5b36601f83011215610a5a5760208491610f7b3685614cc3565b8152019101906101d2565b34610a5a576040600319360112610a5a57610f9f614a99565b6001600160a01b03610feb610fb2614ab4565b926001600160a01b03166000527f52c63247e1f47db19d5ce0460030c497f067ca4cebf71ba98eeadabe20bace01602052604060002090565b91166000526020526020604060002054604051908152f35b34610a5a576101a051600319360112610a5a57600461102061533d565b016201518042046000198101908111610c6a576101a051526020526020600160406101a051200154604051908152f35b34610a5a576060600319360112610a5a57611069614a99565b611071614ab4565b9061107a614aca565b7ff0c57e16840df040f15088dc2f81fe391c3923bec73e23a9662efc9c229c6a00549160ff8360401c16159267ffffffffffffffff811680159081611b72575b6001149081611b68575b159081611b5f575b50611b31578360017fffffffffffffffffffffffffffffffffffffffffffffffff00000000000000008316177ff0c57e16840df040f15088dc2f81fe391c3923bec73e23a9662efc9c229c6a0055611adc575b50611128615185565b611130615185565b90611139615a1c565b611141615a1c565b80519067ffffffffffffffff821161090d5761117d7f52c63247e1f47db19d5ce0460030c497f067ca4cebf71ba98eeadabe20bace0354614d3c565b601f8111611a86575b506020906001601f8411146119d9579180916111b9936101a051926118c25750506000198260011b9260031b1c19161790565b7f52c63247e1f47db19d5ce0460030c497f067ca4cebf71ba98eeadabe20bace03555b80519067ffffffffffffffff821161090d576112187f52c63247e1f47db19d5ce0460030c497f067ca4cebf71ba98eeadabe20bace0454614d3c565b601f8111611983575b506020906001601f8411146118cd57918061125d926001600160a01b0395946101a051926118c25750506000198260011b9260031b1c19161790565b7f52c63247e1f47db19d5ce0460030c497f067ca4cebf71ba98eeadabe20bace04555b611288615a1c565b611290615a1c565b60017f9b779b17422d0df92223018b32b4d1fa46e071723d6817e2486d003becc55f005516928315611864576001600160a01b0316908115611806576001600160a01b03169283156117a857611419916112e8615a1c565b6112f0615a1c565b7fffffffffffffffffffffffffffffffffffffffffffffffffffffffffffffff007fcd5ed15c6e187e77e9aee88184c21f4f2182ab5827cb3b7e07fbedcd63f0330054167fcd5ed15c6e187e77e9aee88184c21f4f2182ab5827cb3b7e07fbedcd63f03300556040519461136386614b59565b7f0123456789abcdffffffffffffffffffffffffffffffffffffffffffffffffff86526040805190966114279161139a8982614b91565b601281527f556e69746564204e6174696f6e732044414f000000000000000000000000000060208083019190915282015287516113d78982614b91565b600681527f554e2044414f00000000000000000000000000000000000000000000000000006020820152888201523260608201528751958691602083016151c0565b03601f198101865285614b91565b6001600160a01b0361143761533d565b93816001860194167fffffffffffffffffffffffff0000000000000000000000000000000000000000855416178455167fffffffffffffffffffffffff00000000000000000000000000000000000000008454161783556001600160a01b036006840191167fffffffffffffffffffffffff00000000000000000000000000000000000000008254161790556101a05150620151804204906000198201918211610c6a576001600160a01b03916007840155541691845180937f9ca33c9e00000000000000000000000000000000000000000000000000000000825260206004830152818061152e6101a051956024830190614b03565b03916101a051905af1918215610a61576101a05192611787575b5060036001600160a01b0361155c84614fa2565b5116916001600160a01b0361157085614fde565b511686519361157e85614b59565b8452602084019081526001600160a01b03878501916a011b1eea4c8e67b1a00000835260026060870194600186527f0123456789abcdffffffffffffffffffffffffffffffffffffffffffffffffff6101a051520160205281808a6101a05120975116167fffffffffffffffffffffffff000000000000000000000000000000000000000087541617865551166001600160a01b036001860191167fffffffffffffffffffffffff0000000000000000000000000000000000000000825416179055516002840155519101556001600160a01b0361165f8161066c84614fa2565b511683519182526020820152606083820152600e60608201527f556e69746564204e6174696f6e7300000000000000000000000000000000000060808201527f0123456789abcdffffffffffffffffffffffffffffffffffffffffffffffffff7fce8afa6fd6580b8feafdfdab8ac12b1a23979b5e03f0f7c90d5a6fcdd4ada40460a03293a36116f1575b6101a05180f35b60207fc7f505b2f371ae2175ee4913f4499e1f2633a7b5936321eed1cdaeb6115181d2917fffffffffffffffffffffffffffffffffffffffffffffff00ffffffffffffffff7ff0c57e16840df040f15088dc2f81fe391c3923bec73e23a9662efc9c229c6a0054167ff0c57e16840df040f15088dc2f81fe391c3923bec73e23a9662efc9c229c6a00555160018152a1806116ea565b61179f9192503d806101a051833e610ab28183614b91565b50509084611548565b60646040517f08c379a000000000000000000000000000000000000000000000000000000000815260206004820152601960248201527f576f726c644d756c7469536967206973207265717569726564000000000000006044820152fd5b60646040517f08c379a000000000000000000000000000000000000000000000000000000000815260206004820152601c60248201527f44414f20646973747269627574696f6e206973207265717569726564000000006044820152fd5b60646040517f08c379a000000000000000000000000000000000000000000000000000000000815260206004820152601460248201527f56657269666965722069732072657175697265640000000000000000000000006044820152fd5b0151905088806107d1565b90601f198316917f52c63247e1f47db19d5ce0460030c497f067ca4cebf71ba98eeadabe20bace046101a05152816101a05120926101a0515b81811061196b57509160019391856001600160a01b0397969410611952575b505050811b017f52c63247e1f47db19d5ce0460030c497f067ca4cebf71ba98eeadabe20bace0455611280565b015160001960f88460031b161c19169055878080611925565b92936020600181928786015181550195019301611906565b6119d3907f52c63247e1f47db19d5ce0460030c497f067ca4cebf71ba98eeadabe20bace046101a0515260206101a05120601f850160051c8101916020861061090357601f0160051c019061516e565b86611221565b90601f198316917f52c63247e1f47db19d5ce0460030c497f067ca4cebf71ba98eeadabe20bace036101a05152816101a05120926101a0515b818110611a6e5750908460019594939210611a55575b505050811b017f52c63247e1f47db19d5ce0460030c497f067ca4cebf71ba98eeadabe20bace03556111dc565b015160001960f88460031b161c19169055878080611a28565b92936020600181928786015181550195019301611a12565b611ad6907f52c63247e1f47db19d5ce0460030c497f067ca4cebf71ba98eeadabe20bace036101a0515260206101a05120601f850160051c8101916020861061090357601f0160051c019061516e565b87611186565b7fffffffffffffffffffffffffffffffffffffffffffffff0000000000000000001668010000000000000001177ff0c57e16840df040f15088dc2f81fe391c3923bec73e23a9662efc9c229c6a00558461111f565b7ff92ee8a9000000000000000000000000000000000000000000000000000000006101a0515260046101a051fd5b905015866110cc565b303b1591506110c4565b8591506110ba565b34610a5a576040600319360112610a5a57611ba0611b96614a99565b6024359033615524565b602060405160018152f35b34610a5a576101a051600319360112610a5a5760206001600160a01b036006611bd261533d565b015416604051908152f35b34610a5a576020600319360112610a5a576005611bf861533d565b016004356101a05152602052602060406101a0512054604051908152f35b34610a5a576020600319360112610a5a57611c2f614a99565b611c376157ac565b611c3f615825565b611c4761533d565b9060038201916001600160a01b0333166000528260205260ff6002604060002001541615611fbb5733600090815260089091016020526040902054611c9190620151804204614d00565b15611f37573360009081526020839052604090819020600181015460028201549251909492909160ff90911690611cd090611ccb84614b75565b614d8f565b825260208201948552604082019015158152604060006001600160a01b03861681528460205220915194855167ffffffffffffffff811161090d57611d158454614d3c565b601f8111611f01575b5060206001601f831114611e8657916107e582611d609695936002956001600160a01b039b6101a05192611e7b5750506000198260011b9260031b1c19161790565b6040600084331681528260205220611d788154614d3c565b80611e26575b505082331660005280602052604060002060016101a05191015582331660005260205260026040600020017fffffffffffffffffffffffffffffffffffffffffffffffffffffffffffffff00815416905516337f64cbbd34f3faebfd04eff088ae5832f6d254dbb81820b0055e9d85c534aa700d6101a0516101a051a360017f9b779b17422d0df92223018b32b4d1fa46e071723d6817e2486d003becc55f00556101a05180f35b601f8111600114611e4057506101a05190555b8380611d7e565b611e6390826101a051526001601f60206101a05120920160051c8201910161516e565b6101a080518290525160208120918190559055611e39565b015190508b806107d1565b601f19821697856101a05152816101a05120986101a0515b818110611ee95750926001600160a01b03996002959360019383611d609a999710611ed057505050811b0184556107e8565b015160001960f88460031b161c191690558a808061088e565b838301518b556001909a019960209384019301611e9e565b611f3190856101a0515260206101a05120601f840160051c8101916020851061090357601f0160051c019061516e565b87611d1e565b60846040517f08c379a000000000000000000000000000000000000000000000000000000000815260206004820152602660248201527f63616e206368616e67652077616c6c6574206f6e6c79206265666f726520636c60448201527f61696d696e6700000000000000000000000000000000000000000000000000006064820152fd5b60646040517f08c379a000000000000000000000000000000000000000000000000000000000815260206004820152601460248201527f6f6e6c792070617373706f727420686f6c6465720000000000000000000000006044820152fd5b34610a5a576101a051600319360112610a5a576101a051506040516101a0517f52c63247e1f47db19d5ce0460030c497f067ca4cebf71ba98eeadabe20bace045461206381614d3c565b808452906001811690811561210757506001146120a3575b61209f8361208b81850382614b91565b604051918291602083526020830190614b03565b0390f35b6101a080517f52c63247e1f47db19d5ce0460030c497f067ca4cebf71ba98eeadabe20bace0490525160208120939250905b8082106120ed5750909150810160200161208b61207b565b9192600181602092548385880101520191019092916120d5565b7fffffffffffffffffffffffffffffffffffffffffffffffffffffffffffffff001660208086019190915291151560051b8401909101915061208b905061207b565b34610a5a576060600319360112610a5a5760043567ffffffffffffffff8111610a5a5736602382011215610a5a57806004013561218581614c17565b916121936040519384614b91565b8183526024602084019260051b82010190368211610a5a5760248101925b8284106136c3578460243567ffffffffffffffff8111610a5a5736602382011215610a5a578060040135906121f86121e883614c17565b6040516101605261016051614b91565b6101608051839052516020019160051b810160240190368211610a5a5760248101925b828410613693578460443567ffffffffffffffff8111610a5a5736602382011215610a5a57806004013561224e81614c17565b9161225c6040519384614b91565b8183526024602084019260051b82010190368211610a5a57602401915b8183106136735783856122928151610160515114615109565b61229f8151835114615109565b6101a051905b80518210156116ea576122b88282614fee565b51916122c78161016051614fee565b51916001600160a01b036122db8387614fee565b5116610200526122e96157ac565b6122f1615825565b6122f961533d565b94845115613615576105398551116135915760ff6002604060006001600160a01b036102005116815260038a0160205220015416156134d357604060006001600160a01b036102005116815260038801602052206001429101541115613532576201518042046000198101116080819052610c6a57600019620151804204016101a0515260048601602052600160406101a051200154916123cf610200516001600160a01b03166000527f52c63247e1f47db19d5ce0460030c497f067ca4cebf71ba98eeadabe20bace00602052604060002090565b54610100526101a051610120526123ff604060006001600160a01b036102005116815260038a0160205220614d8f565b60c05260c05151602060c051012060e05260e0516101a05152600287016020526001600160a01b0360406101a051205416156134d3576008870192612461604060006001600160a01b0361020051168152866020522054620151804204614d00565b938415613475576040906000906001600160a01b03610200511682526020522062015180420490556001811190811561345b575b5015613359576801bc16d674ec80000060a081905261010051106132d557845115613277576101a0515b8551811015612ccb576124d28187614fee565b5190608051610c6a57600019620151804204016101a051526004890160205260406101a0512082516101a0515260205260ff600260406101a05120015460a01c1615612c6d57620dbba0602083015111612c0f576101a051608052600019620151804204016101a051526004890160205260406101a0512082516101a051526020526001600160a01b03600260406101a0512001541691610200518314612bb157612593604060006001600160a01b038616815260038d0160205220614d8f565b92835160208501206101a051610140528060e05114600014612afb576125c96125c0602085015180614f8f565b61014051615002565b610140525b6125de6101405161012051615002565b6101205261012051670de0b6b3a7640000610120510204670de0b6b3a76400001461012051151715610c6a5761010051670de0b6b3a7640000610120510211612a9d5782516101a0515260058c0160205260406101a05120612644610140518254615002565b9055825160405190815260e05190620151804204907f66ef502c7cd31bf83c0f171cfcb00429a080fc441f2d0ca6b5d509816890cadf60206101405192a4818351604051908152620151804204907f7f609bde9e2a7dd1f0b887321f3041731906aeb5e74c719a16357e7353ccda3760206101405192a4806101a0515260028c01602052600460206001600160a01b0360406101a051205416604051928380927f313ce5670000000000000000000000000000000000000000000000000000000082525afa908115612a1d576101a05191612a7f575b50816101a0515260028d016020526127546001600160a01b0360406101a0512054169161274e60ff60208801519216615028565b90614f8f565b813b15610a5a576040517f40c10f190000000000000000000000000000000000000000000000000000000081526101a080516001600160a01b0387166004840152602483019390935251909283916044918391905af18015612a1d57612a64575b507f0123456789abcdffffffffffffffffffffffffffffffffffffffffffffffffff6101a0515260028c01602052600460206001600160a01b0360406101a051205416604051928380927f313ce5670000000000000000000000000000000000000000000000000000000082525afa908115612a1d578d906101a05192612a2b575b5060026128b16128ed93947f0123456789abcdffffffffffffffffffffffffffffffffffffffffffffffffff6101a051528284016020526128946001600160a01b0360406101a0512054169661274e60ff60208c01519216615028565b906101a05152828401602052600360406101a05120015490614f8f565b917f0123456789abcdffffffffffffffffffffffffffffffffffffffffffffffffff6101a0515201602052600360406101a05120015490614f32565b813b15610a5a576040517f40c10f190000000000000000000000000000000000000000000000000000000081526101a080516001600160a01b0386166004840152602483019390935251909283916044918391905af18015612a1d57612a02575b5060019382516020840151604051907fa272695cc3586057810376a069fd569ac27100eb02519d78188356ddfb9f58be620151804204928061299861020051948860c05184615036565b0390a46129c66020845194015191604051936102005185526020850152608060408501526080840190614b03565b9060608301527f30e6839a7d24f7dd44924cb1146ece539d7e290e2cf2e48ca013e4380d7e5174620151804204928060e051930390a4016124bf565b6101a051612a0f91614b91565b6101a051610a5a578b61294e565b6040513d6101a051823e3d90fd5b6128ed92506128b1612a5560029260203d8111612a5d575b612a4d8183614b91565b81019061500f565b935050612837565b503d612a43565b6101a051612a7191614b91565b6101a051610a5a578c6127b5565b612a97915060203d8111612a5d57612a4d8183614b91565b8d61271a565b60646040517f08c379a000000000000000000000000000000000000000000000000000000000815260206004820152601260248201527f4e6f7420656e6f7567682062616c616e636500000000000000000000000000006044820152fd5b600360208401511115612b2d57612b24612b19602085015180614f8f565b602085015190614f8f565b610140526125ce565b60846040517f08c379a000000000000000000000000000000000000000000000000000000000815260206004820152603860248201527f43726f73732d636f756e74727920766f746573207265717569726520636f6d6d60448201527f697474696e67206174206c65617374203420706f696e747300000000000000006064820152fd5b60646040517f08c379a000000000000000000000000000000000000000000000000000000000815260206004820152601c60248201527f596f752063616e6e6f7420766f746520666f7220796f757273656c66000000006044820152fd5b60646040517f08c379a000000000000000000000000000000000000000000000000000000000815260206004820152602060248201527f53636f726520616c6c6f636174696f6e2065786365656473206d6178696d756d6044820152fd5b60646040517f08c379a000000000000000000000000000000000000000000000000000000000815260206004820152602060248201527f50726f706f73616c206973206e6f7420696e206461696c79206d656e75203a286044820152fd5b5095935093670de0b6b3a76400006101205102610120518104670de0b6b3a76400001461012051151715610c6a5760a051116131f3575b620151804204600785015580516020820120916201518042046101a051526004850160205260406101a05120836101a0515260205260ff600260406101a05120015460a01c1661319557604051612d5881614b59565b838152602081016101a05181526001600160a01b0380600260408501946102005186526060810194600186526201518042046101a0515260048c0160205260406101a051208a6101a0515260205260406101a051209151825551600182015501935116167fffffffffffffffffffffffff00000000000000000000000000000000000000008354161782555115157fffffffffffffffffffffff00ffffffffffffffffffffffffffffffffffffffff74ff000000000000000000000000000000000000000083549260a01b1691161790556201518042046101a0515260048501602052600160406101a0512001612e4f8154615064565b9055610200513314801590816130a8575b612e6990615073565b613001575b670de0b6b3a76400006101205102610120518104670de0b6b3a76400001461012051151715610c6a57612ea49061020051615694565b6001811115612ff7576000198101908111610c6a57612ec290614f6b565b6803782dace9d900000001806803782dace9d900000011610c6a576102005115612fc257600194612ef860059261020051615912565b836101a051520160205260406101a0512054908260405160408152612f206040820184614b03565b8460208301527f70cba775c3e76796edd86bb83706d1b2a6c2e2a1cde87642779e63fd4395fb08620151804204928061020051930390a47f8351218b94012719a89f6545ec40ee83336d5d4fb6ce41e5ebef5e8d79d65eb160405180612f946201518042049560e0519560c0519084615036565b0390a4817f9b779b17422d0df92223018b32b4d1fa46e071723d6817e2486d003becc55f00550190916122a5565b7fec442f05000000000000000000000000000000000000000000000000000000006101a051526101a05160045260246101a051fd5b506101a051612ec2565b604061303f336001600160a01b03166000527f52c63247e1f47db19d5ce0460030c497f067ca4cebf71ba98eeadabe20bace01602052604060002090565b6000906001600160a01b03610200511682526020522054670de0b6b3a7640000610120510290610120518204670de0b6b3a76400001461012051151715610c6a5781816130946130a394613099941015615073565b614d00565b610200513361587a565b612e6e565b506803782dace9d900000060406130f4610200516001600160a01b03166000527f52c63247e1f47db19d5ce0460030c497f067ca4cebf71ba98eeadabe20bace01602052604060002090565b6000906001600160a01b03331682526020522054118015612e6057506040613151610200516001600160a01b03166000527f52c63247e1f47db19d5ce0460030c497f067ca4cebf71ba98eeadabe20bace01602052604060002090565b6000906001600160a01b03331682526020522054670de0b6b3a76400006101205102610120518104670de0b6b3a76400001461012051151715610c6a571115612e60565b60646040517f08c379a000000000000000000000000000000000000000000000000000000000815260206004820152601760248201527f50726f706f73616c20616c7265616479206578697374730000000000000000006044820152fd5b60846040517f08c379a000000000000000000000000000000000000000000000000000000000815260206004820152603260248201527f796f75206d757374207370656e64206174206c656173742068616c66206f662060448201527f796f7572206461696c792062616c616e636500000000000000000000000000006064820152fd5b60646040517f08c379a000000000000000000000000000000000000000000000000000000000815260206004820152600760248201527f4e6f20766f7465000000000000000000000000000000000000000000000000006044820152fd5b60846040517f08c379a000000000000000000000000000000000000000000000000000000000815260206004820152603660248201527f596f75206d7573742068617665206174206c656173742033322057495020746f60448201527f207370656e6420746f20636c61696d20363420574950000000000000000000006064820152fd5b9593509360016133726007860154620151804204614d00565b1161337d575b612d02565b61338b6201518042046150d8565b6803782dace9d90000008102908082046803782dace9d90000001490151715610c6a5760e0516101a05152600285016020526001600160a01b0360406101a05120541690813b15610a5a576040516101808181527f40c10f19000000000000000000000000000000000000000000000000000000009091526101a080518251610200516001600160a01b031660048201526024810194909452915190519193604492905af18015612a1d5715612d025761344b6101a05161018051614b91565b6101a05115613378576101a05180fd5b905015158061346b575b88612495565b5060018311613465565b60646040517f08c379a000000000000000000000000000000000000000000000000000000000815260206004820152600f60248201527f416c726561647920636c61696d656400000000000000000000000000000000006044820152fd5b6040517f08c379a000000000000000000000000000000000000000000000000000000000815260206004820152601f60248201527f4e6f7420656c696769626c653a204e6f7420612044414f20636974697a656e006044820152606490fd5b6040517f08c379a000000000000000000000000000000000000000000000000000000000815260206004820152601560248201527f4e6f7420656c696769626c653a204578706972656400000000000000000000006044820152606490fd5b60846040517f08c379a000000000000000000000000000000000000000000000000000000000815260206004820152602e60248201527f596f7572206964656120697320746f6f207472616e7363656e64656e74616c2c60448201527f207573652049504653206c696e6b0000000000000000000000000000000000006064820152fd5b60646040517f08c379a000000000000000000000000000000000000000000000000000000000815260206004820152600e60248201527f456d7074792070726f706f73616c0000000000000000000000000000000000006044820152fd5b82356001600160a01b0381168103610a5a57815260209283019201612279565b833567ffffffffffffffff8111610a5a576020916136b8839260243691870101614c2f565b81520193019261221b565b833567ffffffffffffffff8111610a5a576020916136e8839260243691870101614bd0565b8152019301926121b1565b34610a5a576101a051600319360112610a5a576137256001600160a01b03600661371b61533d565b0154163314614ecd565b61372d615825565b60017fffffffffffffffffffffffffffffffffffffffffffffffffffffffffffffff007fcd5ed15c6e187e77e9aee88184c21f4f2182ab5827cb3b7e07fbedcd63f033005416177fcd5ed15c6e187e77e9aee88184c21f4f2182ab5827cb3b7e07fbedcd63f03300557f62e78cea01bee320cd4e420270b5ea74000d11b0c9f74754ebdbfc544b05a2586020604051338152a16101a05180f35b34610a5a576020600319360112610a5a5760206137e56004356150d8565b604051908152f35b34610a5a576040600319360112610a5a576116ea613809614a99565b6024359061381882338361539f565b615694565b34610a5a576020600319360112610a5a57613836614a99565b6001600160a01b03600861384861533d565b01911660005260205260206040600020546101a0515062015180420460405191148152f35b34610a5a576020600319360112610a5a576001600160a01b0361388e614a99565b166101a051527f52c63247e1f47db19d5ce0460030c497f067ca4cebf71ba98eeadabe20bace00602052602060406101a0512054604051908152f35b34610a5a576060600319360112610a5a5760043567ffffffffffffffff8111610a5a576138fb903690600401614bd0565b60243567ffffffffffffffff8111610a5a5761391b903690600401614c2f565b90613924614aca565b6101e0526139306157ac565b613938615825565b61394061533d565b81511561361557610539825111613591576101a080516101e0516001600160a01b031690526003820160205251604090206002015460ff16156134d3576101a080516101e0516001600160a01b031690526003820160205251604090206001015442101561353257620151804204600019810181109182610c6a5760001982016101a0515260048101602052600160406101a05120015490613a176101e0516001600160a01b03166000527f52c63247e1f47db19d5ce0460030c497f067ca4cebf71ba98eeadabe20bace00602052604060002090565b54956101a051916101a051506001600160a01b036101e051166101a0515260038101602052613a4b60406101a05120614d8f565b918251602084012094856101a05152600283016020526001600160a01b0360406101a051205416156134d3576101a051506001600160a01b036101e051166101a0515260088301602052613aa660406101a051205488614d00565b908115613475576101a051506001600160a01b036101e051166101a05152600884016020528760406101a0512055600181119081156145d1575b50156144e8576801bc16d674ec8000006101c08190528a106132d557815115613277576101a051975b82518910156140b957613b1c8984614fee565b5190610c6a5760001988016101a051526004840160205260406101a0512081516101a0515260205260ff600260406101a05120015460a01c1615612c6d57620dbba0602082015111612c0f576101a0519860001989016101a051526004850160205260406101a0512082516101a051526020526001600160a01b03600260406101a05120015416916001600160a01b036101e051168314612bb157613bd7604060006001600160a01b03861681526003890160205220614d8f565b9283516020850120906101a051828c1460001461408c57613c09613c1091613c03602087015180614f8f565b90615002565b809b615002565b998a670de0b6b3a7640000810204670de0b6b3a7640000148b151715610c6a578f670de0b6b3a76400008c0211612a9d578c829185516101a0515260058b0160205260406101a05120613c64828254615002565b90558d82827f66ef502c7cd31bf83c0f171cfcb00429a080fc441f2d0ca6b5d509816890cadf60208a51604051908152a47f7f609bde9e2a7dd1f0b887321f3041731906aeb5e74c719a16357e7353ccda3760208751604051908152a4816101a0515260028801602052600460206001600160a01b0360406101a051205416604051928380927f313ce5670000000000000000000000000000000000000000000000000000000082525afa908115612a1d576101a0519161406e575b50826101a0515260028901602052613d546001600160a01b0360406101a0512054169161274e60ff60208801519216615028565b813b15610a5a576040517f40c10f190000000000000000000000000000000000000000000000000000000081526101a080516001600160a01b0386166004840152602483019390935251909283916044918391905af18015612a1d57614053575b506004917f0123456789abcdffffffffffffffffffffffffffffffffffffffffffffffffff6101a051526002890160205260206001600160a01b0360406101a051205416604051948580927f313ce5670000000000000000000000000000000000000000000000000000000082525afa928315612a1d576101a0519361402b575b50613eaf613eed917f0123456789abcdffffffffffffffffffffffffffffffffffffffffffffffffff6101a0515260028b01602052613e916001600160a01b0360406101a0512054169561274e60ff60208a01519216615028565b906101a0515260028b01602052600360406101a05120015490614f8f565b7f0123456789abcdffffffffffffffffffffffffffffffffffffffffffffffffff6101a0515260028a01602052600360406101a05120015490614f32565b823b15610a5a576040517f40c10f190000000000000000000000000000000000000000000000000000000081526101a080516001600160a01b0385166004840152602483019390935251909384916044918391905af1908115612a1d578c928c92614009575b506001957f30e6839a7d24f7dd44924cb1146ece539d7e290e2cf2e48ca013e4380d7e5174918551858d7fa272695cc3586057810376a069fd569ac27100eb02519d78188356ddfb9f58be613fc160208b0151604051918291896001600160a01b036101e051169684615036565b0390a460208651960151613ff96040519384936001600160a01b036101e0511685526020850152608060408501526080840190614b03565b9060608301520390a40197613b09565b6101a05191935061401a9250614b91565b6101a051610a5a57898b9138613f53565b613eed91935061404b613eaf9160203d8111612a5d57612a4d8183614b91565b939150613e36565b6101a05161406091614b91565b6101a051610a5a578f613db5565b614086915060203d8111612a5d57612a4d8183614b91565b38613d20565b50600360208401511115612b2d57613c10613c096140ae602086015180614f8f565b602086015190614f8f565b509850509092945094909294670de0b6b3a76400008402848104670de0b6b3a76400001485151715610c6a576101c051116131f3575b8560078201558151602083012096866101a051526004820160205260406101a05120886101a0515260205260ff600260406101a05120015460a01c1661319557879460405161413d81614b59565b868152886001600160a01b0380600260208501946101a05186526040810195836101e051169c8d88526060830196600188526101a0515260048b0160205260406101a05120906101a0515260205260406101a051209151825551600182015501935116167fffffffffffffffffffffffff00000000000000000000000000000000000000008354161782555115157fffffffffffffffffffffff00ffffffffffffffffffffffffffffffffffffffff74ff000000000000000000000000000000000000000083549260a01b169116179055876101a0515260048301602052600160406101a051200161422f8154615064565b905585331480159081614404575b61424690615073565b614385575b670de0b6b3a7640000810290808204670de0b6b3a76400001490151715610c6a57614279906101e051615694565b600181111561437b576000198101908111610c6a5761429790614f6b565b6803782dace9d90000000193846803782dace9d900000011610c6a578015612fc257600561434d926142ed7f8351218b94012719a89f6545ec40ee83336d5d4fb6ce41e5ebef5e8d79d65eb1976101e051615912565b896101a0515201602052878760406101a0512054927f70cba775c3e76796edd86bb83706d1b2a6c2e2a1cde87642779e63fd4395fb086040516040815280614338604082018a614b03565b8760208301520390a460405193849384615036565b0390a460017f9b779b17422d0df92223018b32b4d1fa46e071723d6817e2486d003becc55f00556101a05180f35b506101a051614297565b3360009081527f52c63247e1f47db19d5ce0460030c497f067ca4cebf71ba98eeadabe20bace016020526040902086600052602052604060002054670de0b6b3a7640000820290828204670de0b6b3a76400001483151715610c6a5781816130946143ff946143f5941015615073565b6101e0513361587a565b61424b565b506144446101e0516001600160a01b03166000527f52c63247e1f47db19d5ce0460030c497f067ca4cebf71ba98eeadabe20bace01602052604060002090565b6001600160a01b0333166000526020526803782dace9d900000060406000205411801561423d57506144ab6101e0516001600160a01b03166000527f52c63247e1f47db19d5ce0460030c497f067ca4cebf71ba98eeadabe20bace01602052604060002090565b6001600160a01b033316600052602052604060002054670de0b6b3a76400008302838104670de0b6b3a76400001484151715610c6a57111561423d565b98505090929450600161450360078398949698015488614d00565b11156140ef57614512866150d8565b6803782dace9d90000008102908082046803782dace9d90000001490151715610c6a57856101a05152600282016020526001600160a01b0360406101a05120541690813b15610a5a576040517f40c10f190000000000000000000000000000000000000000000000000000000081526101a080516101e0516001600160a01b03166004840152602483019390935251909283916044918391905af18015612a1d576145be575b506140ef565b6101a0516145cb91614b91565b876145b8565b90501515806145e1575b8b613ae0565b50600181116145db565b34610a5a576101a051600319360112610a5a57602060ff7fcd5ed15c6e187e77e9aee88184c21f4f2182ab5827cb3b7e07fbedcd63f0330054166040519015158152f35b34610a5a576101a051600319360112610a5a576040516201518042048152602090f35b34610a5a576020600319360112610a5a5761209f614676614671614a99565b614e71565b60405191829182614b28565b34610a5a576020600319360112610a5a576116ea60043533615694565b34610a5a576101a051600319360112610a5a576146c76001600160a01b03600661371b61533d565b7fcd5ed15c6e187e77e9aee88184c21f4f2182ab5827cb3b7e07fbedcd63f033005460ff811615614767577fffffffffffffffffffffffffffffffffffffffffffffffffffffffffffffff00167fcd5ed15c6e187e77e9aee88184c21f4f2182ab5827cb3b7e07fbedcd63f03300557f5db9ee0a495bf2e6ff9c91a7834c1ba4fdd244a5e8aa4e537bd38aeae4b073aa6020604051338152a16101a05180f35b7f8dfc202b000000000000000000000000000000000000000000000000000000006101a0515260046101a051fd5b34610a5a576101a051600319360112610a5a57602060405160128152f35b34610a5a576020600319360112610a5a576040516147d081614b59565b6101a05181526101a05160208201526101a051604082015260606101a05191015260026147fb61533d565b016004356101a05152602052608060406101a0512060405161481c81614b59565b6001600160a01b03825416918282526001600160a01b03806001830154166020840190815260606003600285015494604087019586520154940193845260405194855251166020840152516040830152516060820152f35b34610a5a576060600319360112610a5a57611ba0614890614a99565b614898614ab4565b604435916148a783338361539f565b615524565b34610a5a576101a051600319360112610a5a5760206001600160a01b036001611bd261533d565b34610a5a576101a051600319360112610a5a5760207f52c63247e1f47db19d5ce0460030c497f067ca4cebf71ba98eeadabe20bace0254604051908152f35b34610a5a576040600319360112610a5a57611ba061492e614a99565b602435903361587a565b34610a5a576020600319360112610a5a57600461495361533d565b016004356101a051526020526020600160406101a051200154604051908152f35b34610a5a576101a051600319360112610a5a576101a051506040516101a0517f52c63247e1f47db19d5ce0460030c497f067ca4cebf71ba98eeadabe20bace03546149be81614d3c565b808452906001811690811561210757506001146149e55761209f8361208b81850382614b91565b6101a080517f52c63247e1f47db19d5ce0460030c497f067ca4cebf71ba98eeadabe20bace0390525160208120939250905b808210614a2f5750909150810160200161208b61207b565b919260018160209254838588010152019101909291614a17565b34610a5a576020600319360112610a5a5760206137e5614a67614a99565b6008614a7161533d565b6101a080516001600160a01b0394909416909352018352516040902054620151804204614d00565b600435906001600160a01b0382168203614aaf57565b600080fd5b602435906001600160a01b0382168203614aaf57565b604435906001600160a01b0382168203614aaf57565b60005b838110614af35750506000910152565b8181015183820152602001614ae3565b90601f19601f602093614b2181518092818752878088019101614ae0565b0116010190565b6020815260606040614b4584518360208601526080850190614b03565b936020810151828501520151151591015290565b6080810190811067ffffffffffffffff821117610f3357604052565b6060810190811067ffffffffffffffff821117610f3357604052565b90601f601f19910116810190811067ffffffffffffffff821117610f3357604052565b67ffffffffffffffff8111610f3357601f01601f191660200190565b81601f82011215614aaf57803590614be782614bb4565b92614bf56040519485614b91565b82845260208383010111614aaf57816000926020809301838601378301015290565b67ffffffffffffffff8111610f335760051b60200190565b81601f82011215614aaf57803590614c4682614c17565b92614c546040519485614b91565b82845260208085019360061b83010191818311614aaf57602001925b828410614c7e575050505090565b604084830312614aaf5760405190604082019082821067ffffffffffffffff831117610f33576040926020928452863581528287013583820152815201930192614c70565b9190604080519390614cd59085614b91565b839060408101928311614aaf57905b828210614cf057505050565b8135815260209182019101614ce4565b91908203918211614d0d57565b7f4e487b7100000000000000000000000000000000000000000000000000000000600052601160045260246000fd5b90600182811c92168015614d85575b6020831014614d5657565b7f4e487b7100000000000000000000000000000000000000000000000000000000600052602260045260246000fd5b91607f1691614d4b565b9060405191826000825492614da384614d3c565b8084529360018116908115614e115750600114614dca575b50614dc892500383614b91565b565b90506000929192526020600020906000915b818310614df5575050906020614dc89282010138614dbb565b6020919350806001915483858901015201910190918492614ddc565b60209350614dc89592507fffffffffffffffffffffffffffffffffffffffffffffffffffffffffffffff0091501682840152151560051b82010138614dbb565b60405190614e5e82614b75565b6000604083606081528260208201520152565b604090614e7c614e51565b506003614e8761533d565b016001600160a01b036000921682526020522060ff600260405192614eab84614b75565b614eb481614d8f565b8452600181015460208501520154161515604082015290565b15614ed457565b60646040517f08c379a000000000000000000000000000000000000000000000000000000000815260206004820152601260248201527f6f6e6c7920776f726c644d756c746953696700000000000000000000000000006044820152fd5b8115614f3c570490565b7f4e487b7100000000000000000000000000000000000000000000000000000000600052601260045260246000fd5b9067de0b6b3a7640000082029180830467de0b6b3a764000001490151715614d0d57565b81810292918115918404141715614d0d57565b805115614faf5760200190565b7f4e487b7100000000000000000000000000000000000000000000000000000000600052603260045260246000fd5b805160011015614faf5760400190565b8051821015614faf5760209160051b010190565b91908201809211614d0d57565b90816020910312614aaf575160ff81168103614aaf5790565b604d8111614d0d57600a0a90565b93929161505f90615051604093606088526060880190614b03565b908682036020880152614b03565b930152565b6000198114614d0d5760010190565b1561507a57565b60646040517f08c379a000000000000000000000000000000000000000000000000000000000815260206004820152600e60248201527f4e6f7420617574686f72697a65640000000000000000000000000000000000006044820152fd5b6150ee9060076150e661533d565b015490614d00565b600281116150fc5750600090565b8061510691614f8f565b90565b1561511057565b60646040517f08c379a000000000000000000000000000000000000000000000000000000000815260206004820152601a60248201527f6172726179206c656e6774687320696e636f6e73697374656e740000000000006044820152fd5b818110615179575050565b6000815560010161516e565b60405190615194604083614b91565b600382527f57495000000000000000000000000000000000000000000000000000000000006020830152565b602081528151602082015260806001600160a01b0360606152076151f2602087015185604088015260a0870190614b03565b6040870151601f198783030184880152614b03565b9401511691015290565b51906001600160a01b0382168203614aaf57565b90606082820312614aaf57815167ffffffffffffffff8111614aaf5782019080601f83011215614aaf57815161525a81614c17565b926152686040519485614b91565b81845260208085019260051b820101928311614aaf57602001905b82821061529b57505050916040602083015192015190565b602080916152a884615211565b815201910190615283565b81601f82011215614aaf5780516152c981614bb4565b926152d76040519485614b91565b81845260208284010111614aaf576151069160208085019101614ae0565b906000905b6002821061530757505050565b60208060019285518152019301910190916152fa565b61533590602060405192828480945193849201614ae0565b810103902090565b7fffffffffffffffffffffffffffffffffffffffffffffffffffffffffffffff0060405160208101907f6465e05dbf987d5ce487353011b9f15a03812c6b68f6fd29aa9cd14e32f7cb80825260208152615398604082614b91565b5190201690565b91906153dd836001600160a01b03166000527f52c63247e1f47db19d5ce0460030c497f067ca4cebf71ba98eeadabe20bace01602052604060002090565b6001600160a01b038216600052602052604060002054926000198410615404575b50505050565b8284106154e5576001600160a01b038116156154b6576001600160a01b038216156154875761546d6001600160a01b03916001600160a01b03166000527f52c63247e1f47db19d5ce0460030c497f067ca4cebf71ba98eeadabe20bace01602052604060002090565b9116600052602052604060002091039055388080806153fe565b7f94280d6200000000000000000000000000000000000000000000000000000000600052600060045260246000fd5b7fe602df0500000000000000000000000000000000000000000000000000000000600052600060045260246000fd5b506001600160a01b0383917ffb8f41b2000000000000000000000000000000000000000000000000000000006000521660045260245260445260646000fd5b6001600160a01b0316908115615665576001600160a01b03169182156156365760008281527f52c63247e1f47db19d5ce0460030c497f067ca4cebf71ba98eeadabe20bace0060205260408120548281106156035791604082827fddf252ad1be2c89b69c2b068fc378daa952ba7f163c4a11628f55a4df523b3ef9587602096527f52c63247e1f47db19d5ce0460030c497f067ca4cebf71ba98eeadabe20bace00865203828220558681527f52c63247e1f47db19d5ce0460030c497f067ca4cebf71ba98eeadabe20bace00845220818154019055604051908152a3565b6064937fe450d38c0000000000000000000000000000000000000000000000000000000083949352600452602452604452fd5b7fec442f0500000000000000000000000000000000000000000000000000000000600052600060045260246000fd5b7f96c6fd1e00000000000000000000000000000000000000000000000000000000600052600060045260246000fd5b6001600160a01b03168015615665576000918183527f52c63247e1f47db19d5ce0460030c497f067ca4cebf71ba98eeadabe20bace00602052604083205481811061577a57817fddf252ad1be2c89b69c2b068fc378daa952ba7f163c4a11628f55a4df523b3ef926020928587527f52c63247e1f47db19d5ce0460030c497f067ca4cebf71ba98eeadabe20bace008452036040862055807f52c63247e1f47db19d5ce0460030c497f067ca4cebf71ba98eeadabe20bace0254037f52c63247e1f47db19d5ce0460030c497f067ca4cebf71ba98eeadabe20bace0255604051908152a3565b83927fe450d38c0000000000000000000000000000000000000000000000000000000060649552600452602452604452fd5b60027f9b779b17422d0df92223018b32b4d1fa46e071723d6817e2486d003becc55f0054146157fb5760027f9b779b17422d0df92223018b32b4d1fa46e071723d6817e2486d003becc55f0055565b7f3ee5aeb50000000000000000000000000000000000000000000000000000000060005260046000fd5b60ff7fcd5ed15c6e187e77e9aee88184c21f4f2182ab5827cb3b7e07fbedcd63f03300541661585057565b7fd93c06650000000000000000000000000000000000000000000000000000000060005260046000fd5b916001600160a01b0383169182156154b6576001600160a01b0316928315615487577f8c5be1e5ebec7d5bd14f71427d1e84f3dd0314c0f7b2291e5b200ac8c7c3b925916158fc6020926001600160a01b03166000527f52c63247e1f47db19d5ce0460030c497f067ca4cebf71ba98eeadabe20bace01602052604060002090565b85600052825280604060002055604051908152a3565b7fddf252ad1be2c89b69c2b068fc378daa952ba7f163c4a11628f55a4df523b3ef60206001600160a01b0360009361596b867f52c63247e1f47db19d5ce0460030c497f067ca4cebf71ba98eeadabe20bace0254615002565b7f52c63247e1f47db19d5ce0460030c497f067ca4cebf71ba98eeadabe20bace02551693841584146159e757807f52c63247e1f47db19d5ce0460030c497f067ca4cebf71ba98eeadabe20bace0254037f52c63247e1f47db19d5ce0460030c497f067ca4cebf71ba98eeadabe20bace02555b604051908152a3565b8484527f52c63247e1f47db19d5ce0460030c497f067ca4cebf71ba98eeadabe20bace008252604084208181540190556159de565b60ff7ff0c57e16840df040f15088dc2f81fe391c3923bec73e23a9662efc9c229c6a005460401c1615615a4b57565b7fd7e6bcf80000000000000000000000000000000000000000000000000000000060005260046000fdfea164736f6c634300081c000a",
  "devdoc": {
    "author": "Peeramid Labs, 2024",
    "custom:security-contact": "sirt@peeramid.xyz",
    "details": "Implements an upgradeable ERC20 token with specialized governance features including:      - Passport verification for citizenship      - Country-specific DAOs and tokens      - Daily proposal submissions      - Cross-country and same-country voting with quadratic/cubic scoring",
    "errors": {
      "ERC20InsufficientAllowance(address,uint256,uint256)": [
        {
          "details": "Indicates a failure with the `spender`s `allowance`. Used in transfers.",
          "params": {
            "allowance": "Amount of tokens a `spender` is allowed to operate with.",
            "needed": "Minimum amount required to perform a transfer.",
            "spender": "Address that may be allowed to operate on tokens without being their owner."
          }
        }
      ],
      "ERC20InsufficientBalance(address,uint256,uint256)": [
        {
          "details": "Indicates an error related to the current `balance` of a `sender`. Used in transfers.",
          "params": {
            "balance": "Current balance for the interacting account.",
            "needed": "Minimum amount required to perform a transfer.",
            "sender": "Address whose tokens are being transferred."
          }
        }
      ],
      "ERC20InvalidApprover(address)": [
        {
          "details": "Indicates a failure with the `approver` of a token to be approved. Used in approvals.",
          "params": {
            "approver": "Address initiating an approval operation."
          }
        }
      ],
      "ERC20InvalidReceiver(address)": [
        {
          "details": "Indicates a failure with the token `receiver`. Used in transfers.",
          "params": {
            "receiver": "Address to which tokens are being transferred."
          }
        }
      ],
      "ERC20InvalidSender(address)": [
        {
          "details": "Indicates a failure with the token `sender`. Used in transfers.",
          "params": {
            "sender": "Address whose tokens are being transferred."
          }
        }
      ],
      "ERC20InvalidSpender(address)": [
        {
          "details": "Indicates a failure with the `spender` to be approved. Used in approvals.",
          "params": {
            "spender": "Address that may be allowed to operate on tokens without being their owner."
          }
        }
      ],
      "EnforcedPause()": [
        {
          "details": "The operation failed because the contract is paused."
        }
      ],
      "ExpectedPause()": [
        {
          "details": "The operation failed because the contract is not paused."
        }
      ],
      "InvalidInitialization()": [
        {
          "details": "The contract is already initialized."
        }
      ],
      "NotInitializing()": [
        {
          "details": "The contract is not initializing."
        }
      ],
      "ReentrancyGuardReentrantCall()": [
        {
          "details": "Unauthorized reentrant call."
        }
      ]
    },
    "events": {
      "Approval(address,address,uint256)": {
        "details": "Emitted when the allowance of a `spender` for an `owner` is set by a call to {approve}. `value` is the new allowance."
      },
      "FirstCitizenOnboarded(string,uint256,address)": {
        "params": {
          "citizen": "Address of the onboarded citizen",
          "country": "Name of the country",
          "onboardingBonus": "Amount of tokens given as onboarding bonus"
        }
      },
      "Initialized(uint64)": {
        "details": "Triggered when the contract has been initialized or reinitialized."
      },
      "NewCountryOnboarded(bytes32,address,address,address,string)": {
        "params": {
          "country": "Hashed identifier of the country",
          "countryName": "Human-readable name of the country",
          "dao": "Address of the country's DAO contract",
          "godFather": "Address of the first citizen who created the country DAO",
          "token": "Address of the country's governance token"
        }
      },
      "Paused(address)": {
        "details": "Emitted when the pause is triggered by `account`."
      },
      "ProposingByAddress(address,uint256,bytes32,string,uint256)": {
        "params": {
          "day": "Day number when the proposal was created",
          "proposal": "Hash of the proposal",
          "proposalText": "Full text of the proposal",
          "proposer": "Address of the proposal creator"
        }
      },
      "ProposingByCountry(bytes32,uint256,bytes32,string,string,uint256)": {
        "params": {
          "country": "Hashed identifier of the proposer's country",
          "countryString": "Human-readable name of the country",
          "day": "Day number when the proposal was created",
          "proposal": "Hash of the proposal",
          "proposalText": "Full text of the proposal"
        }
      },
      "Transfer(address,address,uint256)": {
        "details": "Emitted when `value` tokens are moved from one account (`from`) to another (`to`). Note that `value` may be zero."
      },
      "Unpaused(address)": {
        "details": "Emitted when the pause is lifted by `account`."
      },
      "Verified(address,uint256,string,bool)": {
        "params": {
          "citizen": "Address of the verified citizen",
          "expiresAt": "Timestamp when the passport expires",
          "isExpired": "Whether the passport is expired",
          "issuingState": "String identifier of the country of citizenship"
        }
      },
      "VotingByAddress(address,uint256,bytes32,string,string,uint256)": {
        "params": {
          "country": "Country of the voter",
          "day": "Day number when the vote was cast",
          "participant": "Address of the voter",
          "proposal": "Hash of the proposal being voted on",
          "proposerCountry": "Country of the proposal creator",
          "scoreGiven": "Amount of voting power allocated"
        }
      },
      "VotingByCountry(bytes32,uint256,bytes32,address,address,string,uint256)": {
        "params": {
          "country": "Hashed identifier of the voter's country",
          "day": "Day number when the vote was cast",
          "proposal": "Hash of the proposal being voted on",
          "proposer": "Address of the proposal creator",
          "proposerCountry": "Country of the proposal creator",
          "scoreGiven": "Amount of voting power allocated",
          "voter": "Address of the voter"
        }
      },
      "WalletChanged(address,address)": {
        "params": {
          "newWallet": "The new wallet address",
          "oldWallet": "The previous wallet address"
        }
      }
    },
    "kind": "dev",
    "methods": {
      "allowance(address,address)": {
        "details": "See {IERC20-allowance}."
      },
      "approve(address,uint256)": {
        "details": "See {IERC20-approve}. NOTE: If `value` is the maximum `uint256`, the allowance is not updated on `transferFrom`. This is semantically equivalent to an infinite approval. Requirements: - `spender` cannot be the zero address."
      },
      "balanceOf(address)": {
        "details": "See {IERC20-balanceOf}."
      },
      "burn(uint256)": {
        "details": "Destroys a `value` amount of tokens from the caller. See {ERC20-_burn}."
      },
      "burnFrom(address,uint256)": {
        "details": "Destroys a `value` amount of tokens from `account`, deducting from the caller's allowance. See {ERC20-_burn} and {ERC20-allowance}. Requirements: - the caller must have allowance for ``accounts``'s tokens of at least `value`."
      },
      "changeWallet(address)": {
        "custom:security": "Can only be called by a qualified passport holder who hasn't claimed today",
        "details": "Moves citizenship data from the caller to the new wallet address",
        "params": {
          "newWallet": "Address of the new wallet"
        }
      },
      "claim(string,(bytes32,uint256)[],address)": {
        "custom:security": "Uses quadratic voting for same-country proposals and cubic voting for cross-country proposals",
        "details": "Handles multiple operations: token claiming, proposal submission, and voting on previous proposals",
        "params": {
          "newProposal": "Text of the new proposal being submitted",
          "onBehalfOf": "Address to claim/propose/vote on behalf of (if authorized)",
          "vote": "Array of VoteElement structs for voting on previous proposals"
        }
      },
      "claimBatch(string[],(bytes32,uint256)[][],address[])": {
        "custom:security": "Uses quadratic voting for same-country proposals and cubic voting for cross-country proposals",
        "details": "Handles multiple operations: token claiming, proposal submission, and voting on previous proposals",
        "params": {
          "accounts": "Array of addresses to claim/propose/vote on behalf of (if authorized)",
          "proposals": "Array of proposal texts being submitted",
          "votes": "Array of VoteElement arrays for voting on previous proposals"
        }
      },
      "constructor": {
        "details": "Intentionally empty as initialization happens in initialize()"
      },
      "currentDay()": {
        "details": "Used for daily token claiming and proposal tracking",
        "returns": {
          "_0": "uint256 Current day number (timestamp / 1 day)"
        }
      },
      "daoDistribution()": {
        "returns": {
          "_0": "IDistribution The DAO distribution contract"
        }
      },
      "daos(bytes32)": {
        "params": {
          "state": "Hashed identifier of the country"
        },
        "returns": {
          "_0": "DAO Struct containing governance token and DAO details"
        }
      },
      "decimals()": {
        "details": "Returns the number of decimals used to get its user representation. For example, if `decimals` equals `2`, a balance of `505` tokens should be displayed to a user as `5.05` (`505 / 10 ** 2`). Tokens usually opt for a value of 18, imitating the relationship between Ether and Wei. This is the default value returned by this function, unless it's overridden. NOTE: This information is only used for _display_ purposes: it in no way affects any of the arithmetic of the contract, including {IERC20-balanceOf} and {IERC20-transfer}."
      },
      "getDayProposalCnt(uint256)": {
        "params": {
          "day": "The day number to query"
        },
        "returns": {
          "_0": "uint256 Number of proposals submitted on that day"
        }
      },
      "getNoProposalBonus(uint256)": {
        "details": "Rewards users who claim after days with no proposals",
        "params": {
          "day": "The day to calculate the bonus for"
        },
        "returns": {
          "_0": "uint256 The bonus multiplier (days without proposals squared)"
        }
      },
      "getYesterdayProposalCnt()": {
        "returns": {
          "_0": "uint256 Number of proposals submitted yesterday"
        }
      },
      "initialize(address,address,address)": {
        "details": "Sets up the contract with required dependencies and initializes the base contracts",
        "params": {
          "_daoDistribution": "Address of the DAO distribution contract",
          "_worldMultiSig": "Address of the WorldMultiSig contract",
          "verifier": "Address of the passport verification contract"
        }
      },
      "name()": {
        "details": "Returns the name of the token."
      },
      "passportHolders(address)": {
        "params": {
          "account": "Address to query passport information for"
        },
        "returns": {
          "_0": "PassportHolder Struct containing citizenship data"
        }
      },
      "pause()": {
        "details": "Can only be called by the WorldMultiSig contract"
      },
      "paused()": {
        "details": "Returns true if the contract is paused, and false otherwise."
      },
      "proposalScores(bytes32)": {
        "params": {
          "proposal": "Hash of the proposal to query"
        },
        "returns": {
          "_0": "uint256 Current score/votes for the proposal"
        }
      },
      "symbol()": {
        "details": "Returns the symbol of the token, usually a shorter version of the name."
      },
      "totalSupply()": {
        "details": "See {IERC20-totalSupply}."
      },
      "transfer(address,uint256)": {
        "details": "See {IERC20-transfer}. Requirements: - `to` cannot be the zero address. - the caller must have a balance of at least `value`."
      },
      "transferFrom(address,address,uint256)": {
        "details": "See {IERC20-transferFrom}. Skips emitting an {Approval} event indicating an allowance update. This is not required by the ERC. See {xref-ERC20-_approve-address-address-uint256-bool-}[_approve]. NOTE: Does not update the allowance if the current allowance is the maximum `uint256`. Requirements: - `from` and `to` cannot be the zero address. - `from` must have a balance of at least `value`. - the caller must have allowance for ``from``'s tokens of at least `value`."
      },
      "unpause()": {
        "details": "Can only be called by the WorldMultiSig contract"
      },
      "verifySelfProof((uint256[2],uint256[2][2],uint256[2],uint256[21]))": {
        "custom:security": "Requires valid proof and non-expired passport",
        "details": "Uses zero-knowledge proofs for privacy-preserving verification",
        "params": {
          "proof": "The zero-knowledge proof of passport validity"
        }
      },
      "votedToday(address)": {
        "params": {
          "account": "The address to check"
        },
        "returns": {
          "_0": "bool True if the account has claimed today"
        }
      },
      "worldMultiSig()": {
        "returns": {
          "_0": "WorldMultiSigV1 The WorldMultiSig contract for governance control"
        }
      }
    },
    "stateVariables": {
      "CLAIMABLE_AMOUNT": {
        "details": "Chosen as it is both square of 8 and cube of 4 for scoring calculations"
      }
    },
    "title": "World Improvement Proposals (WIP)",
    "version": 1
  },
  "userdoc": {
    "events": {
      "FirstCitizenOnboarded(string,uint256,address)": {
        "notice": "Event emitted when the first citizen of a country is onboarded"
      },
      "NewCountryOnboarded(bytes32,address,address,address,string)": {
        "notice": "Event emitted when a new country DAO is created"
      },
      "ProposingByAddress(address,uint256,bytes32,string,uint256)": {
        "notice": "Event for tracking proposals by address"
      },
      "ProposingByCountry(bytes32,uint256,bytes32,string,string,uint256)": {
        "notice": "Event for tracking proposals by country"
      },
      "Verified(address,uint256,string,bool)": {
        "notice": "Event emitted when a passport is verified"
      },
      "VotingByAddress(address,uint256,bytes32,string,string,uint256)": {
        "notice": "Event emitted when a user votes on proposals"
      },
      "VotingByCountry(bytes32,uint256,bytes32,address,address,string,uint256)": {
        "notice": "Event for tracking votes by country"
      },
      "WalletChanged(address,address)": {
        "notice": "Event emitted when a user changes their wallet address"
      }
    },
    "kind": "user",
    "methods": {
      "changeWallet(address)": {
        "notice": "Allows a citizen to transfer their passport to a new wallet"
      },
      "claim(string,(bytes32,uint256)[],address)": {
        "notice": "Main function for claiming daily tokens, submitting proposals, and voting"
      },
      "claimBatch(string[],(bytes32,uint256)[][],address[])": {
        "notice": "Main function for claiming daily tokens, submitting proposals, and voting"
      },
      "constructor": {
        "notice": "Constructor"
      },
      "currentDay()": {
        "notice": "Get the current day number based on timestamp"
      },
      "daoDistribution()": {
        "notice": "Returns the DAODistribution contract instance"
      },
      "daos(bytes32)": {
        "notice": "Retrieves the DAO information for a given country"
      },
      "getDayProposalCnt(uint256)": {
        "notice": "Gets the number of proposals for a specific day"
      },
      "getNoProposalBonus(uint256)": {
        "notice": "Calculates bonus tokens for days without proposals"
      },
      "getYesterdayProposalCnt()": {
        "notice": "Gets the number of proposals from yesterday"
      },
      "initialize(address,address,address)": {
        "notice": "Initializes the WIP contract"
      },
      "passportHolders(address)": {
        "notice": "Retrieves the passport holder information for a given account"
      },
      "pause()": {
        "notice": "Pauses all contract functions with the whenNotPaused modifier"
      },
      "proposalScores(bytes32)": {
        "notice": "Gets the total score for a proposal"
      },
      "unpause()": {
        "notice": "Unpauses contract functions"
      },
      "verifySelfProof((uint256[2],uint256[2][2],uint256[2],uint256[21]))": {
        "notice": "Verifies a citizen's passport and registers them in the system"
      },
      "votedToday(address)": {
        "notice": "Checks if an account has already claimed tokens today"
      },
      "worldMultiSig()": {
        "notice": "Returns the WorldMultiSig contract instance"
      }
    },
    "notice": "Main contract for the World Improvement Proposals system, enabling citizenship-based         governance across multiple countries with democratic proposal and voting mechanisms.",
    "version": 1
  },
  "storageLayout": {
    "storage": [],
    "types": null
  }
}