{
  "address": "0x4A90B951c292AAA04e37CfD81e8803933621c928",
  "abi": [
    {
      "inputs": [
        {
          "internalType": "bool",
          "name": "isTest",
          "type": "bool"
        }
      ],
      "stateMutability": "nonpayable",
      "type": "constructor"
    },
    {
      "inputs": [],
      "name": "InvalidInitialization",
      "type": "error"
    },
    {
      "inputs": [],
      "name": "NotInitializing",
      "type": "error"
    },
    {
      "anonymous": false,
      "inputs": [
        {
          "indexed": true,
          "internalType": "bytes32",
          "name": "txHash",
          "type": "bytes32"
        },
        {
          "indexed": true,
          "internalType": "address",
          "name": "country",
          "type": "address"
        },
        {
          "indexed": false,
          "internalType": "bytes",
          "name": "returnData",
          "type": "bytes"
        }
      ],
      "name": "ExecutedTx",
      "type": "event"
    },
    {
      "anonymous": false,
      "inputs": [
        {
          "indexed": false,
          "internalType": "uint64",
          "name": "version",
          "type": "uint64"
        }
      ],
      "name": "Initialized",
      "type": "event"
    },
    {
      "anonymous": false,
      "inputs": [
        {
          "indexed": true,
          "internalType": "bytes32",
          "name": "txHash",
          "type": "bytes32"
        },
        {
          "indexed": true,
          "internalType": "address",
          "name": "country",
          "type": "address"
        }
      ],
      "name": "RevokedTx",
      "type": "event"
    },
    {
      "anonymous": false,
      "inputs": [
        {
          "indexed": true,
          "internalType": "bytes32",
          "name": "txHash",
          "type": "bytes32"
        },
        {
          "indexed": true,
          "internalType": "address",
          "name": "country",
          "type": "address"
        }
      ],
      "name": "WhitelistedTx",
      "type": "event"
    },
    {
      "inputs": [
        {
          "internalType": "address",
          "name": "country",
          "type": "address"
        }
      ],
      "name": "addCountry",
      "outputs": [],
      "stateMutability": "nonpayable",
      "type": "function"
    },
    {
      "inputs": [
        {
          "internalType": "bytes",
          "name": "data",
          "type": "bytes"
        },
        {
          "internalType": "address",
          "name": "destination",
          "type": "address"
        }
      ],
      "name": "execute",
      "outputs": [],
      "stateMutability": "nonpayable",
      "type": "function"
    },
    {
      "inputs": [],
      "name": "getInitialOperator",
      "outputs": [
        {
          "internalType": "address",
          "name": "operator",
          "type": "address"
        },
        {
          "internalType": "uint256",
          "name": "timeLeft",
          "type": "uint256"
        }
      ],
      "stateMutability": "view",
      "type": "function"
    },
    {
      "inputs": [],
      "name": "getWIP",
      "outputs": [
        {
          "internalType": "address",
          "name": "",
          "type": "address"
        }
      ],
      "stateMutability": "view",
      "type": "function"
    },
    {
      "inputs": [
        {
          "internalType": "address",
          "name": "initialOperator",
          "type": "address"
        }
      ],
      "name": "initialize",
      "outputs": [],
      "stateMutability": "nonpayable",
      "type": "function"
    },
    {
      "inputs": [],
      "name": "renounceInitialOperator",
      "outputs": [],
      "stateMutability": "nonpayable",
      "type": "function"
    },
    {
      "inputs": [
        {
          "internalType": "bytes32",
          "name": "txHash",
          "type": "bytes32"
        }
      ],
      "name": "revokeTx",
      "outputs": [],
      "stateMutability": "nonpayable",
      "type": "function"
    },
    {
      "inputs": [
        {
          "internalType": "address",
          "name": "newInitialOperator",
          "type": "address"
        }
      ],
      "name": "transferInitialOperator",
      "outputs": [],
      "stateMutability": "nonpayable",
      "type": "function"
    },
    {
      "inputs": [
        {
          "internalType": "bytes32",
          "name": "txHash",
          "type": "bytes32"
        }
      ],
      "name": "whitelistTx",
      "outputs": [],
      "stateMutability": "nonpayable",
      "type": "function"
    }
  ],
  "transactionHash": "0x48b06fbf9aa4ebf57b9775d7bcc39a4c60281ff68d491267963154915311f5a7",
  "args": [
    false
  ],
  "numDeployments": 1,
  "solcInputHash": "5e9b77c4ebd8aeec569971877e3aefd1",
  "bytecode": "0x60803461012357601f6116bd38819003918201601f19168301916001600160401b038311848410176101285780849260209460405283398101031261012357518015908115036101235761005d575b60405161157e908161013f8239f35b7ff0c57e16840df040f15088dc2f81fe391c3923bec73e23a9662efc9c229c6a005460ff8160401c16610112576002600160401b03196001600160401b038216016100a9575b5061004e565b6001600160401b0319166001600160401b039081177ff0c57e16840df040f15088dc2f81fe391c3923bec73e23a9662efc9c229c6a00556040519081527fc7f505b2f371ae2175ee4913f4499e1f2633a7b5936321eed1cdaeb6115181d290602090a1386100a3565b63f92ee8a960e01b60005260046000fd5b600080fd5b634e487b7160e01b600052604160045260246000fdfe6080604052600436101561001257600080fd5b60003560e01c80630fd96e6e146111b057806360df89a5146110d25780636accdc1314610aaf578063826365a3146109f85780638aa140bb14610987578063bae76d501461088a578063c31c072f1461055d578063c4d66de8146102045763dde2d0b01461007f57600080fd5b346101ff5760207ffffffffffffffffffffffffffffffffffffffffffffffffffffffffffffffffc3601126101ff5760043561010660ff6100ff3373ffffffffffffffffffffffffffffffffffffffff166000527f49355b627ee0ba54c079e0216e1f31a04c750b2d61d9e8ed3966fede6c962312602052604060002090565b54166112f4565b806000527f49355b627ee0ba54c079e0216e1f31a04c750b2d61d9e8ed3966fede6c962314602052604060002073ffffffffffffffffffffffffffffffffffffffff331660005260205261016160ff604060002054166114ad565b806000527f49355b627ee0ba54c079e0216e1f31a04c750b2d61d9e8ed3966fede6c962314602052604060002073ffffffffffffffffffffffffffffffffffffffff331660005260205260406000207fffffffffffffffffffffffffffffffffffffffffffffffffffffffffffffff00815416905533907f45d531f961936ba8047a38a0d6ac5d064921bac3127e368ba77df86c42a15901600080a3005b600080fd5b346101ff5760207ffffffffffffffffffffffffffffffffffffffffffffffffffffffffffffffffc3601126101ff5761023b6112d1565b7ff0c57e16840df040f15088dc2f81fe391c3923bec73e23a9662efc9c229c6a005460ff8160401c16159167ffffffffffffffff821680159081610555575b600114908161054b575b159081610542575b5061051857818360017fffffffffffffffffffffffffffffffffffffffffffffffff00000000000000006103cb9516177ff0c57e16840df040f15088dc2f81fe391c3923bec73e23a9662efc9c229c6a00556104c3575b50337fffffffffffffffffffffffff00000000000000000000000000000000000000007f49355b627ee0ba54c079e0216e1f31a04c750b2d61d9e8ed3966fede6c9623135416177f49355b627ee0ba54c079e0216e1f31a04c750b2d61d9e8ed3966fede6c9623135573ffffffffffffffffffffffffffffffffffffffff167fffffffffffffffffffffffff00000000000000000000000000000000000000007f49355b627ee0ba54c079e0216e1f31a04c750b2d61d9e8ed3966fede6c9623175416177f49355b627ee0ba54c079e0216e1f31a04c750b2d61d9e8ed3966fede6c96231755565b6301e133804201804211610494577f49355b627ee0ba54c079e0216e1f31a04c750b2d61d9e8ed3966fede6c9623185561040157005b7fffffffffffffffffffffffffffffffffffffffffffffff00ffffffffffffffff7ff0c57e16840df040f15088dc2f81fe391c3923bec73e23a9662efc9c229c6a0054167ff0c57e16840df040f15088dc2f81fe391c3923bec73e23a9662efc9c229c6a00557fc7f505b2f371ae2175ee4913f4499e1f2633a7b5936321eed1cdaeb6115181d2602060405160018152a1005b7f4e487b7100000000000000000000000000000000000000000000000000000000600052601160045260246000fd5b7fffffffffffffffffffffffffffffffffffffffffffffff0000000000000000001668010000000000000001177ff0c57e16840df040f15088dc2f81fe391c3923bec73e23a9662efc9c229c6a0055836102e3565b7ff92ee8a90000000000000000000000000000000000000000000000000000000060005260046000fd5b9050158461028c565b303b159150610284565b84915061027a565b346101ff5760207ffffffffffffffffffffffffffffffffffffffffffffffffffffffffffffffffc3601126101ff576105946112d1565b73ffffffffffffffffffffffffffffffffffffffff7f49355b627ee0ba54c079e0216e1f31a04c750b2d61d9e8ed3966fede6c9623135416330361082c5760ff61061d8273ffffffffffffffffffffffffffffffffffffffff166000527f49355b627ee0ba54c079e0216e1f31a04c750b2d61d9e8ed3966fede6c962312602052604060002090565b54166107ce5773ffffffffffffffffffffffffffffffffffffffff81169081156107705761068a9073ffffffffffffffffffffffffffffffffffffffff166000527f49355b627ee0ba54c079e0216e1f31a04c750b2d61d9e8ed3966fede6c962312602052604060002090565b60017fffffffffffffffffffffffffffffffffffffffffffffffffffffffffffffff008254161790557f49355b627ee0ba54c079e0216e1f31a04c750b2d61d9e8ed3966fede6c96231154680100000000000000008110156107415780600161071592017f49355b627ee0ba54c079e0216e1f31a04c750b2d61d9e8ed3966fede6c96231155611425565b73ffffffffffffffffffffffffffffffffffffffff829392549160031b92831b921b1916179055600080f35b7f4e487b7100000000000000000000000000000000000000000000000000000000600052604160045260246000fd5b60646040517f08c379a000000000000000000000000000000000000000000000000000000000815260206004820152601b60248201527f636f756e74727920697320746865207a65726f206164647265737300000000006044820152fd5b60646040517f08c379a000000000000000000000000000000000000000000000000000000000815260206004820152601660248201527f636f756e74727920616c726561647920657869737473000000000000000000006044820152fd5b60646040517f08c379a000000000000000000000000000000000000000000000000000000000815260206004820152601960248201527f6d73672e73656e646572206973206e6f742074686520574950000000000000006044820152fd5b346101ff5760207ffffffffffffffffffffffffffffffffffffffffffffffffffffffffffffffffc3601126101ff576109856108c46112d1565b61090673ffffffffffffffffffffffffffffffffffffffff7f49355b627ee0ba54c079e0216e1f31a04c750b2d61d9e8ed3966fede6c96231754163314611359565b73ffffffffffffffffffffffffffffffffffffffff167fffffffffffffffffffffffff00000000000000000000000000000000000000007f49355b627ee0ba54c079e0216e1f31a04c750b2d61d9e8ed3966fede6c9623175416177f49355b627ee0ba54c079e0216e1f31a04c750b2d61d9e8ed3966fede6c96231755565b005b346101ff5760007ffffffffffffffffffffffffffffffffffffffffffffffffffffffffffffffffc3601126101ff57602073ffffffffffffffffffffffffffffffffffffffff7f49355b627ee0ba54c079e0216e1f31a04c750b2d61d9e8ed3966fede6c9623135416604051908152f35b346101ff5760007ffffffffffffffffffffffffffffffffffffffffffffffffffffffffffffffffc3601126101ff577f49355b627ee0ba54c079e0216e1f31a04c750b2d61d9e8ed3966fede6c962317547f49355b627ee0ba54c079e0216e1f31a04c750b2d61d9e8ed3966fede6c962318549073ffffffffffffffffffffffffffffffffffffffff1642821115610aa457428203918211610494576040915b82519182526020820152f35b604091506000610a98565b346101ff5760407ffffffffffffffffffffffffffffffffffffffffffffffffffffffffffffffffc3601126101ff5760043567ffffffffffffffff81116101ff57366023820112156101ff5780600401359067ffffffffffffffff82116101ff57602481019060248336920101116101ff576024359073ffffffffffffffffffffffffffffffffffffffff8216908183036101ff577f49355b627ee0ba54c079e0216e1f31a04c750b2d61d9e8ed3966fede6c9623165490604051602081019086838337610b8e602080838a81018883820152030180845201826113e4565b5190209373ffffffffffffffffffffffffffffffffffffffff7f49355b627ee0ba54c079e0216e1f31a04c750b2d61d9e8ed3966fede6c96231754163314600014610f36577f49355b627ee0ba54c079e0216e1f31a04c750b2d61d9e8ed3966fede6c96231854421015610ed8575b846000527f49355b627ee0ba54c079e0216e1f31a04c750b2d61d9e8ed3966fede6c96231560205260ff60406000205416610e7a5760409560008088610cb1610ce38251610c4b84826113e4565b600c81527f657865637574696e6720747800000000000000000000000000000000000000006020820152835192839160208301957f319af33300000000000000000000000000000000000000000000000000000000875260248401526064830190611512565b306044830152037fffffffffffffffffffffffffffffffffffffffffffffffffffffffffffffffe081018352826113e4565b51906a636f6e736f6c652e6c6f675afa507fffffffffffffffffffffffffffffffffffffffffffffffffffffffffffffffff841461049457600080949360018295017f49355b627ee0ba54c079e0216e1f31a04c750b2d61d9e8ed3966fede6c962316558289519384928337810182815203925af1913d15610e4f573d67ffffffffffffffff811161074157610de88160207fffffffffffffffffffffffffffffffffffffffffffffffffffffffffffffffe0601f7f662f3d8dcd427c6da4897f1311a383e4b24677fcf03cf5bf579dcc6de487af9e9501160190610dca885192836113e4565b81523d6000602083013e5b8651918291602083526020830190611512565b0390a315610df257005b606490517f08c379a000000000000000000000000000000000000000000000000000000000815260206004820152600960248201527f7478206661696c656400000000000000000000000000000000000000000000006044820152fd5b7f662f3d8dcd427c6da4897f1311a383e4b24677fcf03cf5bf579dcc6de487af9e610de86060610dd5565b60646040517f08c379a000000000000000000000000000000000000000000000000000000000815260206004820152601660248201527f747820697320616c7265616479206578656375746564000000000000000000006044820152fd5b60646040517f08c379a000000000000000000000000000000000000000000000000000000000815260206004820152601860248201527f696e697469616c206f70657261746f72206578706972656400000000000000006044820152fd5b7f49355b627ee0ba54c079e0216e1f31a04c750b2d61d9e8ed3966fede6c9623115480156110745760005b818110610f6f575050610bfd565b8060ff610fe273ffffffffffffffffffffffffffffffffffffffff610f95600195611425565b90549060031b1c1673ffffffffffffffffffffffffffffffffffffffff166000527f49355b627ee0ba54c079e0216e1f31a04c750b2d61d9e8ed3966fede6c962312602052604060002090565b5416610fef575b01610f61565b876000527f49355b627ee0ba54c079e0216e1f31a04c750b2d61d9e8ed3966fede6c96231460205261106f60ff60408060002073ffffffffffffffffffffffffffffffffffffffff61104086611425565b90549060031b1c169073ffffffffffffffffffffffffffffffffffffffff6000921682526020522054166114ad565b610fe9565b60646040517f08c379a000000000000000000000000000000000000000000000000000000000815260206004820152600c60248201527f6e6f20636f756e747269657300000000000000000000000000000000000000006044820152fd5b346101ff5760007ffffffffffffffffffffffffffffffffffffffffffffffffffffffffffffffffc3601126101ff5761114373ffffffffffffffffffffffffffffffffffffffff7f49355b627ee0ba54c079e0216e1f31a04c750b2d61d9e8ed3966fede6c96231754163314611359565b7f49355b627ee0ba54c079e0216e1f31a04c750b2d61d9e8ed3966fede6c96231780547fffffffffffffffffffffffff000000000000000000000000000000000000000016905560007f49355b627ee0ba54c079e0216e1f31a04c750b2d61d9e8ed3966fede6c96231855005b346101ff5760207ffffffffffffffffffffffffffffffffffffffffffffffffffffffffffffffffc3601126101ff5760043561123060ff6100ff3373ffffffffffffffffffffffffffffffffffffffff166000527f49355b627ee0ba54c079e0216e1f31a04c750b2d61d9e8ed3966fede6c962312602052604060002090565b806000527f49355b627ee0ba54c079e0216e1f31a04c750b2d61d9e8ed3966fede6c962314602052604060002073ffffffffffffffffffffffffffffffffffffffff3316600052602052604060002060017fffffffffffffffffffffffffffffffffffffffffffffffffffffffffffffff0082541617905533907f68497b4289291efd2587dca2961c44097de8f32c323bf4ca807557276f56c9f6600080a3005b6004359073ffffffffffffffffffffffffffffffffffffffff821682036101ff57565b156112fb57565b60646040517f08c379a000000000000000000000000000000000000000000000000000000000815260206004820152601b60248201527f6d73672e73656e646572206973206e6f74206120636f756e74727900000000006044820152fd5b1561136057565b60846040517f08c379a000000000000000000000000000000000000000000000000000000000815260206004820152602660248201527f6d73672e73656e646572206973206e6f742074686520696e697469616c206f7060448201527f657261746f7200000000000000000000000000000000000000000000000000006064820152fd5b90601f7fffffffffffffffffffffffffffffffffffffffffffffffffffffffffffffffe0910116810190811067ffffffffffffffff82111761074157604052565b7f49355b627ee0ba54c079e0216e1f31a04c750b2d61d9e8ed3966fede6c9623115481101561147e577f49355b627ee0ba54c079e0216e1f31a04c750b2d61d9e8ed3966fede6c96231160005260206000200190600090565b7f4e487b7100000000000000000000000000000000000000000000000000000000600052603260045260246000fd5b156114b457565b60646040517f08c379a000000000000000000000000000000000000000000000000000000000815260206004820152601560248201527f7478206973206e6f742077686974656c697374656400000000000000000000006044820152fd5b919082519283825260005b84811061155c5750507fffffffffffffffffffffffffffffffffffffffffffffffffffffffffffffffe0601f8460006020809697860101520116010190565b8060208092840101518282860101520161151d56fea164736f6c634300081c000a",
  "devdoc": {
    "author": "Peeramid",
    "details": "It allows InitialOperator to have authority over the contract for 365 days.",
    "errors": {
      "InvalidInitialization()": [
        {
          "details": "The contract is already initialized."
        }
      ],
      "NotInitializing()": [
        {
          "details": "The contract is not initializing."
        }
      ]
    },
    "events": {
      "Initialized(uint64)": {
        "details": "Triggered when the contract has been initialized or reinitialized."
      }
    },
    "kind": "dev",
    "methods": {},
    "title": "World MultiSig",
    "version": 1
  },
  "userdoc": {
    "kind": "user",
    "methods": {},
    "notice": "World MultiSig is a multi-signature contract that allows a group of countries to execute transactions.",
    "version": 1
  },
  "storageLayout": {
    "storage": [],
    "types": null
  }
}