{
  "address": "0x84cc2958Df064c575C7Bce0a874F5B91ee654f6C",
  "abi": [
    {
      "inputs": [],
      "name": "InvalidInitialization",
      "type": "error"
    },
    {
      "inputs": [],
      "name": "NotInitializing",
      "type": "error"
    },
    {
      "anonymous": false,
      "inputs": [
        {
          "indexed": true,
          "internalType": "bytes32",
          "name": "txHash",
          "type": "bytes32"
        },
        {
          "indexed": true,
          "internalType": "address",
          "name": "country",
          "type": "address"
        },
        {
          "indexed": false,
          "internalType": "bytes",
          "name": "returnData",
          "type": "bytes"
        }
      ],
      "name": "ExecutedTx",
      "type": "event"
    },
    {
      "anonymous": false,
      "inputs": [
        {
          "indexed": false,
          "internalType": "uint64",
          "name": "version",
          "type": "uint64"
        }
      ],
      "name": "Initialized",
      "type": "event"
    },
    {
      "anonymous": false,
      "inputs": [
        {
          "indexed": true,
          "internalType": "bytes32",
          "name": "txHash",
          "type": "bytes32"
        },
        {
          "indexed": true,
          "internalType": "address",
          "name": "country",
          "type": "address"
        }
      ],
      "name": "RevokedTx",
      "type": "event"
    },
    {
      "anonymous": false,
      "inputs": [
        {
          "indexed": true,
          "internalType": "bytes32",
          "name": "txHash",
          "type": "bytes32"
        },
        {
          "indexed": true,
          "internalType": "address",
          "name": "country",
          "type": "address"
        }
      ],
      "name": "WhitelistedTx",
      "type": "event"
    },
    {
      "inputs": [
        {
          "internalType": "address",
          "name": "country",
          "type": "address"
        }
      ],
      "name": "addCountry",
      "outputs": [],
      "stateMutability": "nonpayable",
      "type": "function"
    },
    {
      "inputs": [
        {
          "internalType": "bytes",
          "name": "data",
          "type": "bytes"
        },
        {
          "internalType": "address",
          "name": "destination",
          "type": "address"
        }
      ],
      "name": "execute",
      "outputs": [],
      "stateMutability": "nonpayable",
      "type": "function"
    },
    {
      "inputs": [],
      "name": "getInitialOperator",
      "outputs": [
        {
          "internalType": "address",
          "name": "operator",
          "type": "address"
        },
        {
          "internalType": "uint256",
          "name": "timeLeft",
          "type": "uint256"
        }
      ],
      "stateMutability": "view",
      "type": "function"
    },
    {
      "inputs": [],
      "name": "getWIP",
      "outputs": [
        {
          "internalType": "address",
          "name": "",
          "type": "address"
        }
      ],
      "stateMutability": "view",
      "type": "function"
    },
    {
      "inputs": [
        {
          "internalType": "address",
          "name": "initialOperator",
          "type": "address"
        }
      ],
      "name": "initializeByWIP",
      "outputs": [],
      "stateMutability": "nonpayable",
      "type": "function"
    },
    {
      "inputs": [],
      "name": "renounceInitialOperator",
      "outputs": [],
      "stateMutability": "nonpayable",
      "type": "function"
    },
    {
      "inputs": [
        {
          "internalType": "bytes32",
          "name": "txHash",
          "type": "bytes32"
        }
      ],
      "name": "revokeTx",
      "outputs": [],
      "stateMutability": "nonpayable",
      "type": "function"
    },
    {
      "inputs": [
        {
          "internalType": "address",
          "name": "newInitialOperator",
          "type": "address"
        }
      ],
      "name": "transferInitialOperator",
      "outputs": [],
      "stateMutability": "nonpayable",
      "type": "function"
    },
    {
      "inputs": [
        {
          "internalType": "bytes32",
          "name": "txHash",
          "type": "bytes32"
        }
      ],
      "name": "whitelistTx",
      "outputs": [],
      "stateMutability": "nonpayable",
      "type": "function"
    }
  ],
  "transactionHash": "0xbee1fe11aa7a0d0f69cb9c2d369c0ba178cc98e77763dd469b6c0d0cbe8a8db1",
  "args": [],
  "numDeployments": 1,
  "solcInputHash": "423d191a746a9ecdc01440b7845e3561",
  "bytecode": "0x6080604052346019576040516110e361001f82396110e390f35b600080fdfe6080604052600436101561001257600080fd5b60003560e01c8063027a5ed8146100a25780630fd96e6e1461009d57806360df89a5146100985780636accdc1314610093578063826365a31461008e5780638aa140bb14610089578063bae76d5014610084578063c31c072f1461007f5763dde2d0b0036100c8576102a7565b61028f565b610277565b610242565b610214565b6101da565b61015c565b610139565b6100f0565b6001600160a01b031690565b90565b6001600160a01b0381165b036100c857565b600080fd5b905035906100da826100b6565b565b906020828203126100c8576100b3916100cd565b346100c8576101086101033660046100dc565b6105e7565b60405180805b0390f35b806100c1565b905035906100da82610112565b906020828203126100c8576100b391610118565b346100c85761010861014c366004610125565b610691565b60009103126100c857565b346100c85761016c366004610151565b6101086107c2565b909182601f830112156100c85781359167ffffffffffffffff83116100c85760200192600183028401116100c857565b916040838303126100c857823567ffffffffffffffff81116100c8576101cf836100b3928601610174565b9390946020016100cd565b346100c8576101086101ed3660046101a4565b91610b34565b9052565b6001600160a01b0390911681526040810192916100da9160200152565b346100c857610224366004610151565b61022c610d5e565b9061010e61023960405190565b928392836101f7565b346100c857610252366004610151565b61010e61025d610dcc565b604051918291826001600160a01b03909116815260200190565b346100c85761010861028a3660046100dc565b610df5565b346100c8576101086102a23660046100dc565b610f83565b346100c8576101086102ba366004610125565b61101f565b6100b39060401c5b60ff1690565b6100b390546102bf565b6100b3905b67ffffffffffffffff1690565b6100b390546102d7565b6102dc6100b36100b39290565b6100b3906100a7906001600160a01b031682565b6100b390610300565b6100b390610314565b6100b36100b36100b39290565b9067ffffffffffffffff905b9181191691161790565b6102dc6100b36100b39267ffffffffffffffff1690565b906103706100b361037792610349565b8254610333565b9055565b9068ff00000000000000009060401b61033f565b9061039f6100b361037792151590565b825461037b565b6101f3906102f3565b6020810192916100da91906103a6565b7ff0c57e16840df040f15088dc2f81fe391c3923bec73e23a9662efc9c229c6a00906103f16103ed836102cd565b1590565b906103fb836102e9565b8061041761040960006102f3565b9167ffffffffffffffff1690565b1480610506575b9061042c61040960016102f3565b14806104df575b90155b90816104d6575b506104c4576104639061045961045360016102f3565b85610360565b826104b45761057c565b61046a5750565b6104769060009061038f565b60016104af7fc7f505b2f371ae2175ee4913f4499e1f2633a7b5936321eed1cdaeb6115181d2916104a660405190565b918291826103af565b0390a1565b6104bf60018561038f565b61057c565b63f92ee8a960e01b6000908152600490fd5b1590503861043d565b506104366104ec3061031d565b3b6104fe6104fa6000610326565b9190565b149050610433565b508261041e565b906001600160a01b039061033f565b9061052c6100b36103779261031d565b825461050d565b634e487b7160e01b600052601160045260246000fd5b9190820180921161055657565b610533565b906000199061033f565b906105756100b361037792610326565b825461055b565b6100da906000805160206110b7833981519152906105c7906105be337f49355b627ee0ba54c079e0216e1f31a04c750b2d61d9e8ed3966fede6c96231361051c565b6006830161051c565b60076105e0426105da6301e13380610326565b90610549565b9101610565565b6100da906103bf565b906105fa9061031d565b600052602052604060002090565b6100b3906102c7565b6100b39054610608565b0190565b1561062657565b60405162461bcd60e51b815260206004820152601b60248201527f6d73672e73656e646572206973206e6f74206120636f756e74727900000000006044820152606490fd5b906105fa565b9060ff9061033f565b9061068a6100b361037792151590565b8254610671565b6106fc6000805160206110b78339815191526106dd6106d86106d3337f49355b627ee0ba54c079e0216e1f31a04c750b2d61d9e8ed3966fede6c9623126105f0565b610611565b61061f565b6106f76106f0600360019301859061066b565b33906105f0565b61067a565b3361072e6107287f68497b4289291efd2587dca2961c44097de8f32c323bf4ca807557276f56c9f69390565b9161031d565b9161073860405190565b600090a3565b6100b3906100a7565b6100b3905461073e565b1561075857565b60405162461bcd60e51b815260206004820152602660248201527f6d73672e73656e646572206973206e6f742074686520696e697469616c206f7060448201526532b930ba37b960d11b6064820152608490fd5b6100a76100b36100b39290565b6100b3906107ac565b6100da6000805160206110b783398151915261081a336108146108076100a77f49355b627ee0ba54c079e0216e1f31a04c750b2d61d9e8ed3966fede6c962317610747565b916001600160a01b031690565b14610751565b6108276105be60006107b9565b60076105e06000610326565b6100b39081565b6100b39054610833565b90826000939282370152565b909161061b9083908093610844565b610870906020949361061b93610850565b918252565b634e487b7160e01b600052604160045260246000fd5b90601f01601f1916810190811067ffffffffffffffff8211176108ad57604052565b610875565b156108b957565b60405162461bcd60e51b815260206004820152600c60248201526b6e6f20636f756e747269657360a01b6044820152606490fd5b634e487b7160e01b600052603260045260246000fd5b80548210156109265761091d600191600052602060002090565b91020190600090565b6108ed565b6100b3916008021c6100a7565b906100b3915461092b565b1561094a57565b60405162461bcd60e51b81526020600482015260156024820152741d1e081a5cc81b9bdd081dda1a5d195b1a5cdd1959605a1b6044820152606490fd5b1561098e57565b60405162461bcd60e51b815260206004820152601860248201527f696e697469616c206f70657261746f72206578706972656400000000000000006044820152606490fd5b156109da57565b60405162461bcd60e51b81526020600482015260166024820152751d1e081a5cc8185b1c9958591e48195e1958dd5d195960521b6044820152606490fd5b60001981146105565760010190565b90916100b392610850565b906100da610a3f60405190565b928361088b565b67ffffffffffffffff81116108ad57602090601f01601f19160190565b90610870610a7083610a46565b610a32565b3d15610a8f57610a843d610a63565b903d6000602084013e565b606090565b60005b838110610aa75750506000910152565b8181015183820152602001610a97565b610ad8610ae160209361061b93610acc815190565b80835293849260200190565b95869101610a94565b601f01601f191690565b60208082526100b392910190610ab7565b15610b0357565b60405162461bcd60e51b81526020600482015260096024820152681d1e0819985a5b195960ba1b6044820152606490fd5b9092916000805160206110b78339815191529184610b9682610b87610b787f49355b627ee0ba54c079e0216e1f31a04c750b2d61d9e8ed3966fede6c96231661083a565b6040519485936020850161085f565b6020820181038252038261088b565b610ba8610ba1825190565b9160200190565b2092610bcb610bb8600083015490565b610bc56104fa6000610326565b116108b2565b33610bde6108076100a760068501610747565b03610cb1576000916100da9596610c4160058594610c0e42610c086104fa6100b36007860161083a565b10610987565b610c29610c246103ed6106d38c6004860161066b565b6109d3565b01610c3b610c368261083a565b610a18565b90610565565b828592610c59610c5060405190565b93849283610a27565b03925af191610c66610a75565b917f662f3d8dcd427c6da4897f1311a383e4b24677fcf03cf5bf579dcc6de487af9e90610ca990610c969061031d565b93610ca060405190565b91829182610aeb565b0390a3610afc565b91610cbf6000959295610326565b80610cd16104fa6100b3600088015490565b1015610d3b57610d0890610cfe6106d360018701610cf8610cf2858a610903565b90610938565b906105f0565b610d0d5760010190565b610cbf565b610d35610d306106d3610d238960038a0161066b565b610cf8610cf2868b610903565b610943565b60010190565b50916100da9460009296610c4160058594610c0e565b9190820391821161055657565b6000805160206110b783398151915290610d977f49355b627ee0ba54c079e0216e1f31a04c750b2d61d9e8ed3966fede6c962317610747565b91610da46007820161083a565b421015610dc157610dba60076100b3920161083a565b4290610d51565b506100b36000610326565b6100b37f49355b627ee0ba54c079e0216e1f31a04c750b2d61d9e8ed3966fede6c962313610747565b6100da906000805160206110b783398151915290600690610e3f336108146108076100a77f49355b627ee0ba54c079e0216e1f31a04c750b2d61d9e8ed3966fede6c962317610747565b910161051c565b15610e4d57565b60405162461bcd60e51b815260206004820152601960248201527f6d73672e73656e646572206973206e6f742074686520574950000000000000006044820152606490fd5b15610e9957565b60405162461bcd60e51b8152602060048201526016602482015275636f756e74727920616c72656164792065786973747360501b6044820152606490fd5b15610ede57565b60405162461bcd60e51b815260206004820152601b60248201527f636f756e74727920697320746865207a65726f206164647265737300000000006044820152606490fd5b916001600160a01b0360089290920291821b911b61033f565b9190610f4d6100b36103779361031d565b908354610f23565b90815491680100000000000000008310156108ad5782610f7d9160016100da95018155610903565b90610f3c565b6100da9061101a60006000805160206110b7833981519152610fd433610fce6108076100a77f49355b627ee0ba54c079e0216e1f31a04c750b2d61d9e8ed3966fede6c962313610747565b14610e46565b610fef610fea6103ed6106d387600186016105f0565b610e92565b611009846110026108076100a7866107b9565b1415610ed7565b61061b60016106f7868483016105f0565b610f55565b61108a6000805160206110b78339815191526110616106d86106d3337f49355b627ee0ba54c079e0216e1f31a04c750b2d61d9e8ed3966fede6c9623126105f0565b611077610d306106d36106f0866003860161066b565b6106f76106f0600360009301859061066b565b3361072e6107287f45d531f961936ba8047a38a0d6ac5d064921bac3127e368ba77df86c42a15901939056fe49355b627ee0ba54c079e0216e1f31a04c750b2d61d9e8ed3966fede6c962311a164736f6c634300081c000a",
  "devdoc": {
    "author": "Peeramid",
    "details": "It allows InitialOperator to have authority over the contract for 365 days.",
    "errors": {
      "InvalidInitialization()": [
        {
          "details": "The contract is already initialized."
        }
      ],
      "NotInitializing()": [
        {
          "details": "The contract is not initializing."
        }
      ]
    },
    "events": {
      "Initialized(uint64)": {
        "details": "Triggered when the contract has been initialized or reinitialized."
      }
    },
    "kind": "dev",
    "methods": {},
    "title": "World MultiSig",
    "version": 1
  },
  "userdoc": {
    "kind": "user",
    "methods": {},
    "notice": "World MultiSig is a multi-signature contract that allows a group of countries to execute transactions.",
    "version": 1
  },
  "storageLayout": {
    "storage": [],
    "types": null
  }
}