{
  "address": "0x0F1E280871f30f70Dbfdb6426D64a1D05B2C8eFf",
  "abi": [
    {
      "inputs": [],
      "stateMutability": "nonpayable",
      "type": "constructor"
    },
    {
      "inputs": [
        {
          "internalType": "address",
          "name": "spender",
          "type": "address"
        },
        {
          "internalType": "uint256",
          "name": "allowance",
          "type": "uint256"
        },
        {
          "internalType": "uint256",
          "name": "needed",
          "type": "uint256"
        }
      ],
      "name": "ERC20InsufficientAllowance",
      "type": "error"
    },
    {
      "inputs": [
        {
          "internalType": "address",
          "name": "sender",
          "type": "address"
        },
        {
          "internalType": "uint256",
          "name": "balance",
          "type": "uint256"
        },
        {
          "internalType": "uint256",
          "name": "needed",
          "type": "uint256"
        }
      ],
      "name": "ERC20InsufficientBalance",
      "type": "error"
    },
    {
      "inputs": [
        {
          "internalType": "address",
          "name": "approver",
          "type": "address"
        }
      ],
      "name": "ERC20InvalidApprover",
      "type": "error"
    },
    {
      "inputs": [
        {
          "internalType": "address",
          "name": "receiver",
          "type": "address"
        }
      ],
      "name": "ERC20InvalidReceiver",
      "type": "error"
    },
    {
      "inputs": [
        {
          "internalType": "address",
          "name": "sender",
          "type": "address"
        }
      ],
      "name": "ERC20InvalidSender",
      "type": "error"
    },
    {
      "inputs": [
        {
          "internalType": "address",
          "name": "spender",
          "type": "address"
        }
      ],
      "name": "ERC20InvalidSpender",
      "type": "error"
    },
    {
      "inputs": [],
      "name": "EnforcedPause",
      "type": "error"
    },
    {
      "inputs": [],
      "name": "ExpectedPause",
      "type": "error"
    },
    {
      "inputs": [],
      "name": "InvalidInitialization",
      "type": "error"
    },
    {
      "inputs": [],
      "name": "NotInitializing",
      "type": "error"
    },
    {
      "inputs": [],
      "name": "ReentrancyGuardReentrantCall",
      "type": "error"
    },
    {
      "anonymous": false,
      "inputs": [
        {
          "indexed": true,
          "internalType": "address",
          "name": "owner",
          "type": "address"
        },
        {
          "indexed": true,
          "internalType": "address",
          "name": "spender",
          "type": "address"
        },
        {
          "indexed": false,
          "internalType": "uint256",
          "name": "value",
          "type": "uint256"
        }
      ],
      "name": "Approval",
      "type": "event"
    },
    {
      "anonymous": false,
      "inputs": [
        {
          "indexed": true,
          "internalType": "string",
          "name": "country",
          "type": "string"
        },
        {
          "indexed": true,
          "internalType": "uint256",
          "name": "onboardingBonus",
          "type": "uint256"
        },
        {
          "indexed": true,
          "internalType": "address",
          "name": "citizen",
          "type": "address"
        }
      ],
      "name": "FirstCitizenOnboarded",
      "type": "event"
    },
    {
      "anonymous": false,
      "inputs": [
        {
          "indexed": true,
          "internalType": "string",
          "name": "country",
          "type": "string"
        },
        {
          "indexed": true,
          "internalType": "uint256",
          "name": "onboardingBonus",
          "type": "uint256"
        },
        {
          "indexed": true,
          "internalType": "address",
          "name": "citizen",
          "type": "address"
        }
      ],
      "name": "GlobalCitizenOnboarded",
      "type": "event"
    },
    {
      "anonymous": false,
      "inputs": [
        {
          "indexed": false,
          "internalType": "uint64",
          "name": "version",
          "type": "uint64"
        }
      ],
      "name": "Initialized",
      "type": "event"
    },
    {
      "anonymous": false,
      "inputs": [
        {
          "indexed": true,
          "internalType": "bytes32",
          "name": "country",
          "type": "bytes32"
        },
        {
          "indexed": true,
          "internalType": "address",
          "name": "godFather",
          "type": "address"
        },
        {
          "indexed": false,
          "internalType": "address",
          "name": "token",
          "type": "address"
        },
        {
          "indexed": false,
          "internalType": "address",
          "name": "dao",
          "type": "address"
        },
        {
          "indexed": false,
          "internalType": "string",
          "name": "countryName",
          "type": "string"
        }
      ],
      "name": "NewCountryOnboarded",
      "type": "event"
    },
    {
      "anonymous": false,
      "inputs": [
        {
          "indexed": false,
          "internalType": "address",
          "name": "account",
          "type": "address"
        }
      ],
      "name": "Paused",
      "type": "event"
    },
    {
      "anonymous": false,
      "inputs": [
        {
          "indexed": true,
          "internalType": "uint256",
          "name": "score",
          "type": "uint256"
        },
        {
          "indexed": true,
          "internalType": "uint256",
          "name": "day",
          "type": "uint256"
        },
        {
          "indexed": true,
          "internalType": "address",
          "name": "proposer",
          "type": "address"
        },
        {
          "indexed": false,
          "internalType": "bytes32",
          "name": "proposal",
          "type": "bytes32"
        }
      ],
      "name": "ProposalScoreUpdatedByAddress",
      "type": "event"
    },
    {
      "anonymous": false,
      "inputs": [
        {
          "indexed": true,
          "internalType": "uint256",
          "name": "score",
          "type": "uint256"
        },
        {
          "indexed": true,
          "internalType": "uint256",
          "name": "day",
          "type": "uint256"
        },
        {
          "indexed": true,
          "internalType": "bytes32",
          "name": "country",
          "type": "bytes32"
        },
        {
          "indexed": false,
          "internalType": "bytes32",
          "name": "proposal",
          "type": "bytes32"
        }
      ],
      "name": "ProposalScoreUpdatedByCountry",
      "type": "event"
    },
    {
      "anonymous": false,
      "inputs": [
        {
          "indexed": true,
          "internalType": "address",
          "name": "proposer",
          "type": "address"
        },
        {
          "indexed": true,
          "internalType": "uint256",
          "name": "day",
          "type": "uint256"
        },
        {
          "indexed": true,
          "internalType": "bytes32",
          "name": "proposal",
          "type": "bytes32"
        },
        {
          "indexed": false,
          "internalType": "string",
          "name": "proposalText",
          "type": "string"
        },
        {
          "indexed": false,
          "internalType": "uint256",
          "name": "scoreWhenProposed",
          "type": "uint256"
        }
      ],
      "name": "ProposingByAddress",
      "type": "event"
    },
    {
      "anonymous": false,
      "inputs": [
        {
          "indexed": true,
          "internalType": "bytes32",
          "name": "country",
          "type": "bytes32"
        },
        {
          "indexed": true,
          "internalType": "uint256",
          "name": "day",
          "type": "uint256"
        },
        {
          "indexed": true,
          "internalType": "bytes32",
          "name": "proposal",
          "type": "bytes32"
        },
        {
          "indexed": false,
          "internalType": "string",
          "name": "proposalText",
          "type": "string"
        },
        {
          "indexed": false,
          "internalType": "string",
          "name": "countryString",
          "type": "string"
        },
        {
          "indexed": false,
          "internalType": "uint256",
          "name": "scoreWhenProposed",
          "type": "uint256"
        }
      ],
      "name": "ProposingByCountry",
      "type": "event"
    },
    {
      "anonymous": false,
      "inputs": [
        {
          "indexed": true,
          "internalType": "address",
          "name": "from",
          "type": "address"
        },
        {
          "indexed": true,
          "internalType": "address",
          "name": "to",
          "type": "address"
        },
        {
          "indexed": false,
          "internalType": "uint256",
          "name": "value",
          "type": "uint256"
        }
      ],
      "name": "Transfer",
      "type": "event"
    },
    {
      "anonymous": false,
      "inputs": [
        {
          "indexed": false,
          "internalType": "address",
          "name": "account",
          "type": "address"
        }
      ],
      "name": "Unpaused",
      "type": "event"
    },
    {
      "anonymous": false,
      "inputs": [
        {
          "indexed": false,
          "internalType": "address",
          "name": "citizen",
          "type": "address"
        },
        {
          "indexed": false,
          "internalType": "bool",
          "name": "isExpired",
          "type": "bool"
        }
      ],
      "name": "Verified",
      "type": "event"
    },
    {
      "anonymous": false,
      "inputs": [
        {
          "indexed": true,
          "internalType": "address",
          "name": "participant",
          "type": "address"
        },
        {
          "indexed": true,
          "internalType": "uint256",
          "name": "day",
          "type": "uint256"
        },
        {
          "indexed": true,
          "internalType": "bytes32",
          "name": "proposal",
          "type": "bytes32"
        },
        {
          "indexed": false,
          "internalType": "string",
          "name": "country",
          "type": "string"
        },
        {
          "indexed": false,
          "internalType": "string",
          "name": "proposerCountry",
          "type": "string"
        },
        {
          "indexed": false,
          "internalType": "uint256",
          "name": "scoreGiven",
          "type": "uint256"
        }
      ],
      "name": "VotingByAddress",
      "type": "event"
    },
    {
      "anonymous": false,
      "inputs": [
        {
          "indexed": true,
          "internalType": "bytes32",
          "name": "country",
          "type": "bytes32"
        },
        {
          "indexed": true,
          "internalType": "uint256",
          "name": "day",
          "type": "uint256"
        },
        {
          "indexed": true,
          "internalType": "bytes32",
          "name": "proposal",
          "type": "bytes32"
        },
        {
          "indexed": false,
          "internalType": "address",
          "name": "proposer",
          "type": "address"
        },
        {
          "indexed": false,
          "internalType": "address",
          "name": "voter",
          "type": "address"
        },
        {
          "indexed": false,
          "internalType": "string",
          "name": "proposerCountry",
          "type": "string"
        },
        {
          "indexed": false,
          "internalType": "uint256",
          "name": "scoreGiven",
          "type": "uint256"
        }
      ],
      "name": "VotingByCountry",
      "type": "event"
    },
    {
      "anonymous": false,
      "inputs": [
        {
          "indexed": true,
          "internalType": "address",
          "name": "oldWallet",
          "type": "address"
        },
        {
          "indexed": true,
          "internalType": "address",
          "name": "newWallet",
          "type": "address"
        }
      ],
      "name": "WalletChanged",
      "type": "event"
    },
    {
      "inputs": [
        {
          "internalType": "address",
          "name": "owner",
          "type": "address"
        },
        {
          "internalType": "address",
          "name": "spender",
          "type": "address"
        }
      ],
      "name": "allowance",
      "outputs": [
        {
          "internalType": "uint256",
          "name": "",
          "type": "uint256"
        }
      ],
      "stateMutability": "view",
      "type": "function"
    },
    {
      "inputs": [
        {
          "internalType": "address",
          "name": "spender",
          "type": "address"
        },
        {
          "internalType": "uint256",
          "name": "value",
          "type": "uint256"
        }
      ],
      "name": "approve",
      "outputs": [
        {
          "internalType": "bool",
          "name": "",
          "type": "bool"
        }
      ],
      "stateMutability": "nonpayable",
      "type": "function"
    },
    {
      "inputs": [
        {
          "internalType": "address",
          "name": "account",
          "type": "address"
        }
      ],
      "name": "balanceOf",
      "outputs": [
        {
          "internalType": "uint256",
          "name": "",
          "type": "uint256"
        }
      ],
      "stateMutability": "view",
      "type": "function"
    },
    {
      "inputs": [
        {
          "internalType": "uint256",
          "name": "value",
          "type": "uint256"
        }
      ],
      "name": "burn",
      "outputs": [],
      "stateMutability": "nonpayable",
      "type": "function"
    },
    {
      "inputs": [
        {
          "internalType": "address",
          "name": "account",
          "type": "address"
        },
        {
          "internalType": "uint256",
          "name": "value",
          "type": "uint256"
        }
      ],
      "name": "burnFrom",
      "outputs": [],
      "stateMutability": "nonpayable",
      "type": "function"
    },
    {
      "inputs": [
        {
          "internalType": "address",
          "name": "newWallet",
          "type": "address"
        }
      ],
      "name": "changeWallet",
      "outputs": [],
      "stateMutability": "nonpayable",
      "type": "function"
    },
    {
      "inputs": [
        {
          "internalType": "string",
          "name": "newProposal",
          "type": "string"
        },
        {
          "components": [
            {
              "internalType": "bytes32",
              "name": "proposal",
              "type": "bytes32"
            },
            {
              "internalType": "uint256",
              "name": "scoresGiven",
              "type": "uint256"
            }
          ],
          "internalType": "struct VoteElement[]",
          "name": "vote",
          "type": "tuple[]"
        },
        {
          "internalType": "address",
          "name": "onBehalfOf",
          "type": "address"
        }
      ],
      "name": "claim",
      "outputs": [],
      "stateMutability": "nonpayable",
      "type": "function"
    },
    {
      "inputs": [
        {
          "internalType": "string[]",
          "name": "proposals",
          "type": "string[]"
        },
        {
          "components": [
            {
              "internalType": "bytes32",
              "name": "proposal",
              "type": "bytes32"
            },
            {
              "internalType": "uint256",
              "name": "scoresGiven",
              "type": "uint256"
            }
          ],
          "internalType": "struct VoteElement[][]",
          "name": "votes",
          "type": "tuple[][]"
        },
        {
          "internalType": "address[]",
          "name": "accounts",
          "type": "address[]"
        }
      ],
      "name": "claimBatch",
      "outputs": [],
      "stateMutability": "nonpayable",
      "type": "function"
    },
    {
      "inputs": [],
      "name": "currentDay",
      "outputs": [
        {
          "internalType": "uint256",
          "name": "",
          "type": "uint256"
        }
      ],
      "stateMutability": "view",
      "type": "function"
    },
    {
      "inputs": [],
      "name": "daoDistribution",
      "outputs": [
        {
          "internalType": "contract IDistribution",
          "name": "",
          "type": "address"
        }
      ],
      "stateMutability": "view",
      "type": "function"
    },
    {
      "inputs": [
        {
          "internalType": "bytes32",
          "name": "state",
          "type": "bytes32"
        }
      ],
      "name": "daos",
      "outputs": [
        {
          "components": [
            {
              "internalType": "contract GovernanceToken",
              "name": "token",
              "type": "address"
            },
            {
              "internalType": "address",
              "name": "dao",
              "type": "address"
            },
            {
              "internalType": "uint256",
              "name": "bonusBase",
              "type": "uint256"
            },
            {
              "internalType": "uint256",
              "name": "verifiedCount",
              "type": "uint256"
            }
          ],
          "internalType": "struct DAO",
          "name": "",
          "type": "tuple"
        }
      ],
      "stateMutability": "view",
      "type": "function"
    },
    {
      "inputs": [],
      "name": "decimals",
      "outputs": [
        {
          "internalType": "uint8",
          "name": "",
          "type": "uint8"
        }
      ],
      "stateMutability": "view",
      "type": "function"
    },
    {
      "inputs": [
        {
          "internalType": "uint256",
          "name": "day",
          "type": "uint256"
        }
      ],
      "name": "getDayProposalCnt",
      "outputs": [
        {
          "internalType": "uint256",
          "name": "",
          "type": "uint256"
        }
      ],
      "stateMutability": "view",
      "type": "function"
    },
    {
      "inputs": [
        {
          "internalType": "uint256",
          "name": "day",
          "type": "uint256"
        }
      ],
      "name": "getNoProposalBonus",
      "outputs": [
        {
          "internalType": "uint256",
          "name": "",
          "type": "uint256"
        }
      ],
      "stateMutability": "view",
      "type": "function"
    },
    {
      "inputs": [],
      "name": "getYesterdayProposalCnt",
      "outputs": [
        {
          "internalType": "uint256",
          "name": "",
          "type": "uint256"
        }
      ],
      "stateMutability": "view",
      "type": "function"
    },
    {
      "inputs": [
        {
          "internalType": "address",
          "name": "verifier",
          "type": "address"
        },
        {
          "internalType": "address",
          "name": "_daoDistribution",
          "type": "address"
        },
        {
          "internalType": "address",
          "name": "_worldMultiSig",
          "type": "address"
        },
        {
          "internalType": "address",
          "name": "initialOperator",
          "type": "address"
        }
      ],
      "name": "initialize",
      "outputs": [],
      "stateMutability": "nonpayable",
      "type": "function"
    },
    {
      "inputs": [],
      "name": "name",
      "outputs": [
        {
          "internalType": "string",
          "name": "",
          "type": "string"
        }
      ],
      "stateMutability": "view",
      "type": "function"
    },
    {
      "inputs": [
        {
          "internalType": "uint256",
          "name": "nullifier",
          "type": "uint256"
        }
      ],
      "name": "nullifiers",
      "outputs": [
        {
          "internalType": "bool",
          "name": "",
          "type": "bool"
        }
      ],
      "stateMutability": "view",
      "type": "function"
    },
    {
      "inputs": [
        {
          "internalType": "address",
          "name": "account",
          "type": "address"
        }
      ],
      "name": "passportHolders",
      "outputs": [
        {
          "components": [
            {
              "internalType": "string",
              "name": "citizenship",
              "type": "string"
            },
            {
              "internalType": "uint256",
              "name": "revalidateAt",
              "type": "uint256"
            },
            {
              "internalType": "bool",
              "name": "isQualified",
              "type": "bool"
            }
          ],
          "internalType": "struct PassportHolder",
          "name": "",
          "type": "tuple"
        }
      ],
      "stateMutability": "view",
      "type": "function"
    },
    {
      "inputs": [],
      "name": "pause",
      "outputs": [],
      "stateMutability": "nonpayable",
      "type": "function"
    },
    {
      "inputs": [],
      "name": "paused",
      "outputs": [
        {
          "internalType": "bool",
          "name": "",
          "type": "bool"
        }
      ],
      "stateMutability": "view",
      "type": "function"
    },
    {
      "inputs": [
        {
          "internalType": "bytes32",
          "name": "proposal",
          "type": "bytes32"
        }
      ],
      "name": "proposalScores",
      "outputs": [
        {
          "internalType": "uint256",
          "name": "",
          "type": "uint256"
        }
      ],
      "stateMutability": "view",
      "type": "function"
    },
    {
      "inputs": [],
      "name": "symbol",
      "outputs": [
        {
          "internalType": "string",
          "name": "",
          "type": "string"
        }
      ],
      "stateMutability": "view",
      "type": "function"
    },
    {
      "inputs": [],
      "name": "totalSupply",
      "outputs": [
        {
          "internalType": "uint256",
          "name": "",
          "type": "uint256"
        }
      ],
      "stateMutability": "view",
      "type": "function"
    },
    {
      "inputs": [
        {
          "internalType": "address",
          "name": "to",
          "type": "address"
        },
        {
          "internalType": "uint256",
          "name": "value",
          "type": "uint256"
        }
      ],
      "name": "transfer",
      "outputs": [
        {
          "internalType": "bool",
          "name": "",
          "type": "bool"
        }
      ],
      "stateMutability": "nonpayable",
      "type": "function"
    },
    {
      "inputs": [
        {
          "internalType": "address",
          "name": "from",
          "type": "address"
        },
        {
          "internalType": "address",
          "name": "to",
          "type": "address"
        },
        {
          "internalType": "uint256",
          "name": "value",
          "type": "uint256"
        }
      ],
      "name": "transferFrom",
      "outputs": [
        {
          "internalType": "bool",
          "name": "",
          "type": "bool"
        }
      ],
      "stateMutability": "nonpayable",
      "type": "function"
    },
    {
      "inputs": [],
      "name": "unpause",
      "outputs": [],
      "stateMutability": "nonpayable",
      "type": "function"
    },
    {
      "inputs": [
        {
          "components": [
            {
              "internalType": "uint256[2]",
              "name": "a",
              "type": "uint256[2]"
            },
            {
              "internalType": "uint256[2][2]",
              "name": "b",
              "type": "uint256[2][2]"
            },
            {
              "internalType": "uint256[2]",
              "name": "c",
              "type": "uint256[2]"
            },
            {
              "internalType": "uint256[21]",
              "name": "pubSignals",
              "type": "uint256[21]"
            }
          ],
          "internalType": "struct IVcAndDiscloseCircuitVerifier.VcAndDiscloseProof",
          "name": "proof",
          "type": "tuple"
        }
      ],
      "name": "verifySelfProof",
      "outputs": [],
      "stateMutability": "nonpayable",
      "type": "function"
    },
    {
      "inputs": [
        {
          "internalType": "address",
          "name": "account",
          "type": "address"
        }
      ],
      "name": "votedToday",
      "outputs": [
        {
          "internalType": "bool",
          "name": "",
          "type": "bool"
        }
      ],
      "stateMutability": "view",
      "type": "function"
    },
    {
      "inputs": [],
      "name": "worldMultiSig",
      "outputs": [
        {
          "internalType": "contract WorldMultiSigV1",
          "name": "",
          "type": "address"
        }
      ],
      "stateMutability": "view",
      "type": "function"
    }
  ],
  "transactionHash": "0xc49ee4136233044b318b62b1c67980a608e58b3aa7e3ad9fd3b79cda18d2fd75",
  "args": [],
  "numDeployments": 1,
  "solcInputHash": "8a05f3133bc74bc4228c5088b3b87cc8",
  "bytecode": "0x6080604052346019576040516147be61001f82396147be90f35b600080fdfe6080604052600436101561001257600080fd5b60003560e01c806306fdde03146101f257806308a9d66d146101ed578063095ea7b3146101e857806318160ddd146101e35780631c112dae146101de57806323b872dd146101d95780632fa2cc4e146101d4578063313ce567146101cf5780633b62c7ef146101ca5780633f4ba83a146101c557806342966c68146101c05780635c9302c9146101bb5780635c975abb146101b65780636f499bec146101b157806370a08231146101ac578063733e8218146101a757806379cc6790146101a257806381497adf1461019d5780638456cb59146101985780638789748c1461019357806395d89b411461018e57806398b9a2dc146101895780639c761d13146101845780639d22a1a41461017f578063a9059cbb1461017a578063d21e82ab14610175578063d3622a4114610170578063dd62ed3e1461016b578063f8c8765e146101665763fdc609670361020257610d1a565b610b58565b610b00565b610ac2565b610aa7565b610a8b565b610a70565b610a55565b610a3d565b610a22565b610a09565b61082e565b610813565b6107fa565b6107df565b6107c4565b6107ab565b6105c2565b6105a7565b61058f565b610572565b61054b565b6104bd565b610496565b610427565b6103d0565b610376565b610348565b6102d1565b610276565b600091031261020257565b600080fd5b60005b83811061021a5750506000910152565b818101518382015260200161020a565b61024b61025460209361025e9361023f815190565b80835293849260200190565b95869101610207565b601f01601f191690565b0190565b60208082526102739291019061022a565b90565b34610202576102863660046101f7565b61029d610291610e2a565b60405191829182610262565b0390f35b805b0361020257565b905035906102b7826102a1565b565b9060208282031261020257610273916102aa565b9052565b346102025761029d6102ec6102e73660046102b9565b610e7b565b6040515b9182918290815260200190565b6001600160a01b031690565b6001600160a01b0381166102a3565b905035906102b782610309565b9190604083820312610202576102739061033f8185610318565b936020016102aa565b346102025761029d61036461035e366004610325565b90610ea3565b60405191829182901515815260200190565b34610202576103863660046101f7565b61029d6102ec610eb3565b610273906102fd906001600160a01b031682565b61027390610391565b610273906103a5565b6102cd906103ae565b6020810192916102b791906103b7565b34610202576103e03660046101f7565b61029d6103eb610edf565b604051918291826103c0565b9091606082840312610202576102736104108484610318565b9361041e8160208601610318565b936040016102aa565b346102025761029d61036461043d3660046103f7565b91610ef2565b906060806102b79361045d600082015160008601906103b7565b6020818101516001600160a01b03169085015261047f60408201516040860152565b0151910152565b6080810192916102b79190610443565b346102025761029d6104b16104ac3660046102b9565b610fbb565b60405191829182610486565b34610202576104cd3660046101f7565b61029d6104d8610ff3565b6040519182918260ff909116815260200190565b906020828203126102025761027391610318565b9061027390604080610521606084016000870151858203600087015261022a565b9461053160208201516020860152565b01511515910152565b602080825261027392910190610500565b346102025761029d6105666105613660046104ec565b611091565b6040519182918261053a565b34610202576105823660046101f7565b61058a6110fc565b604051005b346102025761058a6105a23660046102b9565b61113d565b34610202576105b73660046101f7565b61029d6102ec611192565b34610202576105d23660046101f7565b61029d6103646111a8565b634e487b7160e01b600052604160045260246000fd5b90601f01601f191681019081106001600160401b0382111761061457604052565b6105dd565b906102b761062660405190565b92836105f3565b6001600160401b03811161061457602090601f01601f19160190565b90826000939282370152565b9092919261066a6106658261062d565b610619565b93818552602085019082840111610202576102b792610649565b9080601f830112156102025781602061027393359101610655565b6001600160401b0381116106145760208091020190565b9190604083820312610202576106e5906106d06040610619565b936106db82826102aa565b85526020016102aa565b6020830152565b909291926106fc6106658261069f565b93818552604060208601920283019281841161020257915b8383106107215750505050565b602060409161073084866106b6565b815201920191610714565b9080601f8301121561020257816020610273933591016106ec565b90916060828403126102025781356001600160401b038111610202578361077e918401610684565b926020830135906001600160401b038211610202576107a28161027393860161073b565b93604001610318565b346102025761058a6107be366004610756565b9161247b565b346102025761029d6102ec6107da3660046104ec565b612486565b346102025761029d6103646107f53660046104ec565b6124ac565b346102025761058a61080d366004610325565b906124d8565b346102025761029d6102ec6108293660046102b9565b6124e8565b346102025761083e3660046101f7565b61058a612521565b9291906108556106658261069f565b93818552602080860192028101918383116102025781905b83821061087b575050505050565b81356001600160401b0381116102025760209161089b8784938701610684565b81520191019061086d565b9080601f830112156102025781602061027393359101610846565b9291906108d06106658261069f565b93818552602080860192028101918383116102025781905b8382106108f6575050505050565b81356001600160401b03811161020257602091610916878493870161073b565b8152019101906108e8565b9080601f8301121561020257816020610273933591016108c1565b9092919261094c6106658261069f565b938185526020808601920283019281841161020257915b8383106109705750505050565b6020809161097e8486610318565b815201920191610963565b9080601f83011215610202578160206102739335910161093c565b916060838303126102025782356001600160401b03811161020257826109cb9185016108a6565b9260208101356001600160401b03811161020257836109eb918301610921565b9260408201356001600160401b038111610202576102739201610989565b346102025761058a610a1c3660046109a4565b91612580565b3461020257610a323660046101f7565b61029d610291612624565b346102025761058a610a503660046104ec565b612c1d565b346102025761029d6102ec610a6b3660046102b9565b612c26565b3461020257610a803660046101f7565b61029d6103eb612c40565b346102025761029d610364610aa1366004610325565b90612c4d565b346102025761029d610364610abd3660046102b9565b612c57565b3461020257610ad23660046101f7565b61029d6102ec612c76565b91906040838203126102025761027390610af78185610318565b93602001610318565b346102025761029d6102ec610b16366004610add565b90612c9d565b60808183031261020257610b308282610318565b92610273610b418460208501610318565b93610b4f8160408601610318565b93606001610318565b346102025761058a610b6b366004610b1c565b929190916136b4565b6001600160401b0381116106145760200290565b90929192610b9861066582610b74565b93602085920283019281841161020257915b838310610bb75750505050565b60208091610bc584866102aa565b815201920191610baa565b9080601f830112156102025761027391600290610b88565b90929192610bf861066582610b74565b93604085920283019281841161020257915b838310610c175750505050565b6020604091610c268486610bd0565b815201920191610c0a565b9080601f830112156102025761027391600290610be8565b90929192610c5961066582610b74565b93602085920283019281841161020257915b838310610c785750505050565b60208091610c8684866102aa565b815201920191610c6b565b9080601f830112156102025761027391601590610c49565b91906103a08382031261020257610cfe90610cc46080610619565b93610ccf8282610bd0565b8552610cde8260408301610c31565b6020860152610cf08260c08301610bd0565b604086015261010001610c91565b6060830152565b906103a0828203126102025761027391610ca9565b346102025761058a610d2d366004610d05565b614084565b634e487b7160e01b600052602260045260246000fd5b9060016002830492168015610d68575b6020831014610d6357565b610d32565b91607f1691610d58565b80546000939291610d8f610d8583610d48565b8085529360200190565b9160018116908115610de15750600114610da857505050565b610dbb9192939450600052602060002090565b916000925b818410610dcd5750500190565b805484840152602090930192600101610dc0565b92949550505060ff1916825215156020020190565b9061027391610d72565b906102b7610e1a92610e1160405190565b93848092610df6565b03836105f3565b61027390610e00565b61027360036000805160206147728339815191525b01610e21565b6102736102736102739290565b90610e5c90610e45565b600052602052604060002090565b6102739081565b6102739054610e6a565b6001610e9d61027392610e8c600090565b506005610e976140ff565b01610e52565b01610e71565b610eae919033614107565b600190565b6102736002600080516020614772833981519152610e9d565b610273906102fd565b6102739054610ecc565b6102736001610eec6140ff565b01610ed5565b610eae9290610f0282338361413a565b919091614199565b6102736080610619565b610f1c610f0a565b90602080808085600081520160005b81520160008152016000905250565b610273610f14565b90610e5c565b906102cd90610ecc565b906102b7610fab6003610f63610f0a565b94610f76610f7082610ed5565b87610f48565b610f95610f8560018301610ed5565b6001600160a01b03166020880152565b610e9d610fa460028301610e71565b6040880152565b6060840152565b61027390610f52565b610fdb61027391610fca610f3a565b506002610fd56140ff565b01610f42565b610fb2565b610fed6102736102739290565b60ff1690565b6102736012610fe0565b6102736060610619565b61100f610ffd565b9060208080846060610f2b565b610273611007565b90610e5c906103ae565b61027390610fed565b610273905461102e565b906102b761107f6002611052610ffd565b9461106361105f82610e00565b8752565b61107961107260018301610e71565b6020880152565b01611037565b15156040840152565b61027390611041565b6110b1610273916110a061101c565b5060046110ab6140ff565b01611024565b611088565b156110bd57565b60405162461bcd60e51b81526020600482015260126024820152716f6e6c7920776f6c72644d756c746953696760701b604482015280606481015b0390fd5b6111356111076140ff565b61112f6111226102fd61111d6007339501610ed5565b6103ae565b916001600160a01b031690565b146110b6565b6102b761429e565b6102b790336142a6565b6142a6565b634e487b7160e01b600052601260045260246000fd5b634e487b7160e01b600052601160045260246000fd5b90611182565b9190565b90811561118d570490565b61114c565b610273426111a262015180610e45565b90611178565b6102736000600080516020614792833981519152611079565b906111d492916111cf6142dd565b6111dc565b6102b761434b565b906102b792916111ea614379565b611913565b156111f657565b60405162461bcd60e51b815260206004820152600e60248201526d115b5c1d1e481c1c9bdc1bdcd85b60921b6044820152606490fd5b1561123357565b60405162461bcd60e51b815260206004820152602e60248201527f596f7572206964656120697320746f6f207472616e7363656e64656e74616c2c60448201526d207573652049504653206c696e6b60901b6064820152608490fd5b1561129657565b60405162461bcd60e51b815260206004820152601f60248201527f4e6f7420656c696769626c653a204e6f7420612044414f20636974697a656e006044820152606490fd5b156112e257565b60405162461bcd60e51b8152602060048201526015602482015274139bdd08195b1a59da589b194e88115e1c1a5c9959605a1b6044820152606490fd5b9190820391821161132c57565b611162565b6102fd6102736102739290565b61027390611331565b1561134e57565b60405162461bcd60e51b815260206004820152600f60248201526e105b1c9958591e4818db185a5b5959608a1b6044820152606490fd5b90600019905b9181191691161790565b906113a56102736113ac92610e45565b8254611385565b9055565b6102736803782dace9d9000000610e45565b8181029291811591840414171561132c57565b6001600160a01b0390911681526040810192916102b79160200152565b0152565b6040513d6000823e3d90fd5b1561140957565b60405162461bcd60e51b81526020600482015260076024820152664e6f20766f746560c81b6044820152606490fd5b634e487b7160e01b600052603260045260246000fd5b90611457825190565b811015611468576020809102010190565b611438565b6102739060a01c610fed565b610273905461146d565b1561148a57565b60405162461bcd60e51b8152806110f8600482016020808252818101527f50726f706f73616c206973206e6f7420696e206461696c79206d656e75203a28604082015260600190565b610273620dbba0610e45565b156114e657565b60405162461bcd60e51b8152806110f8600482016020808252818101527f53636f726520616c6c6f636174696f6e2065786365656473206d6178696d756d604082015260600190565b1561153657565b60405162461bcd60e51b815260206004820152601c60248201527f596f752063616e6e6f7420766f746520666f7220796f757273656c66000000006044820152606490fd5b1561158257565b60405162461bcd60e51b815260206004820152603860248201527f43726f73732d636f756e74727920766f746573207265717569726520636f6d6d60448201527f697474696e67206174206c65617374203420706f696e747300000000000000006064820152608490fd5b9190820180921161132c57565b1561160157565b60405162461bcd60e51b81526020600482015260126024820152714e6f7420656e6f7567682062616c616e636560701b6044820152606490fd5b60ff81166102a3565b905051906102b78261163b565b906020828203126102025761027391611644565b6102736102736102739260ff1690565b604d811161132c57600a0a90565b61027360016591a2b3c4d5e760c91b03610e45565b9392906116c86102b7936116ba604093606089019089820360008b015261022a565b90878203602089015261022a565b940152565b9493916060916102b7946117086116c8936116f860808b019460008c01906001600160a01b03169052565b6001600160a01b031660208a0152565b878203604089015261022a565b1561171c57565b60405162461bcd60e51b815260206004820152603260248201527f796f75206d757374207370656e64206174206c656173742068616c66206f6620604482015271796f7572206461696c792062616c616e636560701b6064820152608490fd5b1561178357565b60405162461bcd60e51b815260206004820152601760248201527f50726f706f73616c20616c7265616479206578697374730000000000000000006044820152606490fd5b634e487b7160e01b600052600060045260246000fd5b906113a56102736113ac9290565b906001600160a01b039061138b565b9061180b6102736113ac926103ae565b82546117ec565b9060ff60a01b9060a01b61138b565b906118316102736113ac92151590565b8254611812565b6102b7919061189a9060609060029061185981611853875190565b906117de565b6118716001820161186b602088015190565b90611395565b61189182820161188b60408801516001600160a01b031690565b906117fb565b01920151151590565b90611821565b906102b791611838565b600019811461132c5760010190565b156118c057565b60405162461bcd60e51b815260206004820152600e60248201526d139bdd08185d5d1a1bdc9a5e995960921b6044820152606490fd5b929160206116c86102b7936040870190878203600089015261022a565b909161191d6140ff565b9061193c611929845190565b61193661117e6000610e45565b116111ef565b61195c611947845190565b61195561117e610539610e45565b111561122c565b61197661197160026110798460048701611024565b61128f565b61199261198b6001610e9d8460048701611024565b42106112db565b61199a611192565b906119c06001610e9d600586016119ba866119b485610e45565b9061131f565b90610e52565b946119ca82612486565b956119d56000610e45565b6119e76000610e3f8660048a01611024565b97886119fb6119f4825190565b9160200190565b2093611a1261111d6000610eec8860028d01610f42565b611a226111226102fd600061133e565b1461129657611a40876119b4611a3b8960098d01611024565b610e71565b93611a5885611a5261117e6000610e45565b11611347565b611a6e88611a698960098d01611024565b611395565b80611a7c61117e6001610e45565b1190811561244a575b50156123af5781611a9961117e6000610e45565b11611d83575b50505b611aaf8560088801611395565b8651602088012095611ac48660058301610e52565b611acf908890610f42565b600201611adb90611479565b15611ae59061177c565b866001866000611af3610f0a565b938452611aff90610e45565b60208401526001600160a01b0316604083015215156060820152611b268760058401610e52565b611b31908990610f42565b90611b3b916118a0565b611b488660058301610e52565b600101611b5481610e71565b611b5d906118aa565b611b6691611395565b611c1192611a3b926006929190611bce906001600160a01b03891633148015611d31575b611b93906118b9565b33611ba66001600160a01b038b16611122565b03611cd7575b611bc88991611bc2670de0b6b3a7640000610e45565b906113c2565b906142a6565b80611bdc61117e6007610e45565b1115611cc457611bf1611c0991611bc26113b0565b611c038891611bfe6113b0565b6115ed565b90614399565b018690610f42565b91838590879285611c52611c4e611c487f70cba775c3e76796edd86bb83706d1b2a6c2e2a1cde87642779e63fd4395fb08946103ae565b94610e45565b9490565b94611c68611c5f60405190565b928392836118f6565b0390a4919293949094611cbf611cac611ca8611ca27f8351218b94012719a89f6545ec40ee83336d5d4fb6ce41e5ebef5e8d79d65eb19690565b96610e45565b9690565b96611cb660405190565b93849384611698565b0390a4565b50611c09611cd26000610e45565b611bf1565b611d2c611ce48a33612c9d565b611d0a81611d0361117e61027387611bc2670de0b6b3a7640000610e45565b10156118b9565b3390611d268c916119b486611bc2670de0b6b3a7640000610e45565b91614107565b611bac565b50611d3c338a612c9d565b611d4a61117e6102736113b0565b118015611b8a5750611b93611d5f338b612c9d565b611d7a61117e61027385611bc2670de0b6b3a7640000610e45565b10159050611b8a565b91959496999093929897611dab611d98845190565b611da561117e6000610e45565b11611402565b611db56000610e45565b80611dc461117e610273875190565b10156123635780611e616002610eec8f611e588c6119ba6005600094611e29611e248f611df5611e1e9e8c9261144e565b519d8e611e188b80611e11898b016119ba8e6119b46001610e45565b0192015190565b90610f42565b01611479565b611483565b611e4c611e3760208d015190565b611e4561117e6102736114d3565b11156114df565b01916119b46001610e45565b01611e18865190565b91611e7f83611e786001600160a01b038e16611122565b141561152f565b8d611e926000610e3f8660048501611024565b9384611e9f6119f4825190565b20611eaa6000610e45565b818b0361231d57611ed390611ecd611ec3602088015190565b6020880151611bc2565b906115ed565b9c5b8d611edf916115ed565b9c8d611ef2670de0b6b3a7640000610e45565b611efb916113c2565b8c1015611f07906115fa565b8060068501611f14875190565b611f1d91610f42565b90611f2782610e71565b90611f31916115ed565b611f3a91611395565b808b8e611f45885190565b927f66ef502c7cd31bf83c0f171cfcb00429a080fc441f2d0ca6b5d509816890cadf90611f7190610e45565b91611f7b90610e45565b9293611f8660405190565b908152602090a4828d611f97875190565b927f7f609bde9e2a7dd1f0b887321f3041731906aeb5e74c719a16357e7353ccda3790611fc390610e45565b91611fcd90610e45565b92611fd7906103ae565b93611fe160405190565b908152602090a4611ff58160028501610f42565b611ffe90610ed5565b612007906103ae565b63313ce5679061201660405190565b60e09290921b8252816004815a93602094fa80156122d457612040916000916122d9575b50611665565b61205561111d6000610eec8560028901610f42565b906340c10f19906120758591611bc261206f60208b015190565b91611675565b92803b156102025761209d600080946120a861209060405190565b9788968795869460e01b90565b8452600484016113d5565b03925af180156122d457612307575b506120ec60206120d461111d6000610eec60028901611e18611683565b63313ce567906120e360405190565b93849260e01b90565b825260049082905afa80156122d45761210c916000916122d95750611665565b83600201612118611683565b61212191610f42565b61212a90610ed5565b612133906103ae565b936340c10f19928492612147602089015190565b9061215190611675565b61215a916113c2565b906121689060028401610f42565b60030161217490610e71565b61217d916113c2565b90600201612189611683565b61219291610f42565b60030161219e90610e71565b6121a791611178565b93803b156102025761209d600080946121cf6121c260405190565b9889968795869460e01b90565b03925af19485156122d4578e8e936122a9976122ae575b5083908d6121f2875190565b91928461220060208a015190565b94612234611cac611ca8611ca27fa272695cc3586057810376a069fd569ac27100eb02519d78188356ddfb9f58be966103ae565b0390a48b918a91906122a0612255602061224c895190565b97939498015190565b61228d6122896122837f30e6839a7d24f7dd44924cb1146ece539d7e290e2cf2e48ca013e4380d7e51749790565b97610e45565b9790565b9761229760405190565b948594856116cd565b0390a460010190565b611db5565b6122c79060005b6122bf81836105f3565b8101906101f7565b386121e6565b503d6122b5565b6113f6565b6122fa915060203d8111612300575b6122f281836105f3565b810190611651565b3861203a565b503d6122e8565b6123179060006122bf81836105f3565b386120b7565b61235d9061234261232f602088015190565b61233c61117e6003610e45565b1161157b565b611ecd611ec3612353602089015190565b6020890151611bc2565b9c611ed5565b5097989293509895939490506123a861238782611bc2670de0b6b3a7640000610e45565b6123a261117e6102736123986113b0565b6111a26002610e45565b11611715565b3880611a9f565b50506123c1856119b460088901610e71565b6123ce61117e6001610e45565b1115611aa2576123e86123e0866124e8565b611bc26113b0565b6123fd61111d6000610eec8760028c01610f42565b6340c10f19908690803b156102025761209d6000809461241f61209060405190565b03925af180156122d457612434575b50611aa2565b6124449060006122bf81836105f3565b3861242e565b905061245961117e6000610e45565b1180612466575b38611a85565b508361247561117e6001610e45565b11612460565b906102b792916111c1565b611a3b61027391612495600090565b5060006000805160206147728339815191526110ab565b611a3b6124c6916124bb600090565b5060096110ab6140ff565b6124d461117e610273611192565b1490565b6102b7919061114782338361413a565b6124f9906119b46008610e9d6140ff565b8061250761117e6002610e45565b1161251757506102736000610e45565b80610273916113c2565b61252c6111076140ff565b6102b7614418565b1561253b57565b60405162461bcd60e51b815260206004820152601a60248201527f6172726179206c656e6774687320696e636f6e73697374656e740000000000006044820152606490fd5b929190926125a361258f825190565b61259d61117e610273885190565b14612534565b6125bc6125ae825190565b61259d61117e610273865190565b6125c66000610e45565b806125d561117e610273855190565b101561261d57612618906126126125ec828561144e565b516125f7838961144e565b516107be612605858961144e565b516001600160a01b031690565b60010190565b6125c6565b5050509050565b6102736004600080516020614772833981519152610e3f565b6111d4906126496142dd565b6102b790612655614379565b612aca565b1561266157565b60405162461bcd60e51b815260206004820152601460248201527337b7363c903830b9b9b837b93a103437b63232b960611b6044820152606490fd5b156126a457565b60405162461bcd60e51b815260206004820152602660248201527f63616e206368616e67652077616c6c6574206f6e6c79206265666f726520636c60448201526561696d696e6760d01b6064820152608490fd5b9160001960089290920291821b911b61138b565b921b90565b91906127226102736113ac93610e45565b9083546126f8565b6102b791600091612711565b818110612741575050565b8061274f600060019361272a565b01612736565b9190601f811161276457505050565b6127766102b793600052602060002090565b906020601f840181900483019310612799575b6020601f909101045b0190612736565b9091508190612789565b600019600883021c1916906002021790565b906127be815190565b906001600160401b038211610614576127e1826127db8554610d48565b85612755565b602090601f831160011461280f576113ac929160009183612804575b50506127a3565b0151905038806127fd565b601f1983169161282485600052602060002090565b9260005b81811061286257509160029391856001969410612849575b50505002019055565b01516000196008601f8516021c19169055388080612840565b91936020600181928787015181550195019201612828565b906102b7916127b5565b9060ff9061138b565b9061289d6102736113ac92151590565b8254612884565b906128da604060026102b7946128c8600082016128c2600088015190565b9061287a565b6118916001820161186b602088015190565b9061288d565b906102b7916128a4565b906128fd90600019906020036008021c90565b8154169055565b9060009161292261291a82600052602060002090565b9283546127a3565b905555565b919290602082101561297f57601f8411600114612949576113ac9293506127a3565b509061297a6102b793600161297161296685600052602060002090565b92601f602091010490565b82019101612736565b612904565b506129b88293612996600194600052602060002090565b6127926020601f860104820192601f8616806129c0575b50601f602091010490565b600202179055565b6129cc908886036128ea565b386129ad565b9290916801000000000000000082116106145760201115612a1e5760208110156129ff576113ac916127a3565b60019160ff1916612a1584600052602060002090565b55600202019055565b60019150600202019055565b908154612a3681610d48565b90818311612a5f575b818310612a4d575b50505050565b612a5693612927565b38808080612a47565b612a6b838383876129d2565b612a3f565b60006102b791612a2a565b90600003612a8c576102b790612a70565b6117c8565b9190600861138b91029161270c60ff841b90565b9190612ab66102736113ac93151590565b908354612a91565b6102b791600091612aa5565b612bd760006002612bd16004612ade6140ff565b612af6612af18561107933858701611024565b61265a565b612b26612b14612b04611192565b6119b4611a3b3360098701611024565b612b2061117e88610e45565b1161269d565b612b9a85612b3633848601611024565b01612b89612b4b6001610e9d33878901611024565b612b80612b5e8961107933898b01611024565b91612b79612b73612b6d610ffd565b96610e21565b8c870152565b6020850152565b15156040830152565b612b9589848601611024565b6128e0565b612bb18580612bab33858701611024565b01612a7b565b612bc9856001612bc333858701611024565b0161272a565b013390611024565b01612abe565b7f64cbbd34f3faebfd04eff088ae5832f6d254dbb81820b0055e9d85c534aa700d90612c0b612c05336103ae565b916103ae565b91612c1560405190565b80805b0390a3565b6102b79061263d565b611a3b61027391612c35600090565b506006610fd56140ff565b6102736007610eec6140ff565b610eae9133610f02565b612c7161027391612c66600090565b506003610e976140ff565b611037565b6102736001610e9d6005612c886140ff565b016119ba612c94611192565b6119b485610e45565b61027391612cc7611a3b92612cb0600090565b5060016000805160206147728339815191526110ab565b611024565b6102739060401c610fed565b6102739054612ccc565b610273905b6001600160401b031690565b6102739054612ce2565b612ce76102736102739290565b906001600160401b039061138b565b612ce7610273610273926001600160401b031690565b90612d3f6102736113ac92612d19565b8254612d0a565b9068ff00000000000000009060401b61138b565b90612d6a6102736113ac92151590565b8254612d46565b6102cd90612cfd565b6020810192916102b79190612d71565b909192612db47ff0c57e16840df040f15088dc2f81fe391c3923bec73e23a9662efc9c229c6a0090565b93612dc5612dc186612cd8565b1590565b93612dcf86612cf3565b80612dea612ddd6000612cfd565b916001600160401b031690565b1480612ed5575b90612dff612ddd6001612cfd565b1480612eb2575b90155b9081612ea9575b50612e9757612e3693612e2c612e266001612cfd565b88612d2f565b85612e87576132d9565b612e3d5750565b612e4990600090612d5a565b6001612e827fc7f505b2f371ae2175ee4913f4499e1f2633a7b5936321eed1cdaeb6115181d291612e7960405190565b91829182612d7a565b0390a1565b612e92600188612d5a565b6132d9565b63f92ee8a960e01b6000908152600490fd5b15905038612e10565b50612e09612ebf306103ae565b3b612ecd61117e6000610e45565b149050612e06565b5085612df1565b90612ee96106658361062d565b918252565b612ef86003612edc565b6205749560ec1b602082015290565b610273612eee565b15612f1657565b60405162461bcd60e51b815260206004820152601460248201527315995c9a599a595c881a5cc81c995c5d5a5c995960621b6044820152606490fd5b15612f5957565b60405162461bcd60e51b815260206004820152601c60248201527f44414f20646973747269627574696f6e206973207265717569726564000000006044820152606490fd5b15612fa557565b60405162461bcd60e51b815260206004820152601960248201527f576f726c644d756c7469536967206973207265717569726564000000000000006044820152606490fd5b15612ff157565b60405162461bcd60e51b815260206004820152601c60248201527f496e697469616c206f70657261746f72206973207265717569726564000000006044820152606490fd5b6130406012612edc565b71556e69746564204e6174696f6e732044414f60701b602082015290565b610273613036565b6130706006612edc565b65554e2044414f60d01b602082015290565b610273613066565b8051825290610273906060806130c46130b2608085016020880151868203602088015261022a565b6040870151858203604087015261022a565b9401516001600160a01b0316910152565b60208082526102739291019061308a565b905051906102b782610309565b909291926131036106658261069f565b938185526020808601920283019281841161020257915b8383106131275750505050565b6020809161313584866130e6565b81520192019161311a565b9080601f83011215610202578151610273926020016130f3565b905051906102b7826102a1565b90916060828403126102025781516001600160401b0381116102025761319284610273928501613140565b936131a0816020860161315a565b9360400161315a565b6102739051610ecc565b6102b7919061186b906060906003906131cf8161188b876131a9565b6131ea6001820161188b60208801516001600160a01b031690565b611e116002820161186b604088015190565b906102b7916131b3565b9060208282031261020257610273916130e6565b1561322157565b60405162461bcd60e51b815260206004820152602a60248201527f576f726c644d756c7469536967206973206e6f7420636f6e74726f6c6c6564206044820152690627920746865205749560b41b6064820152608490fd5b600e815260209081015b6d556e69746564204e6174696f6e7360901b81520190565b6132cc610273936132bc606084019460008501906001600160a01b03169052565b6001600160a01b03166020830152565b6040818303910152613279565b6000613480919493946132fb6132ed612f07565b6132f5612f07565b90614437565b613303614454565b61331d816133166111226102fd8661133e565b1415612f0f565b613337846133306111226102fd8661133e565b1415612f52565b6133518661334a6111226102fd8661133e565b1415612f9e565b61336b856133646111226102fd8661133e565b1415612fea565b61337361446f565b61340e6134066133d96133e8613387611683565b6133ca3261339d613396610f0a565b938a850152565b6133a8612b7961305e565b6133ba6133b3613082565b6040850152565b6001600160a01b03166060830152565b604051928391602083016130d5565b602082018103825203826105f3565b9261111d6133fd6133f76140ff565b986103ae565b600189016117fb565b8386016117fb565b61342661341d61111d886103ae565b600786016117fb565b61344761343e613434611192565b6119b46001610e45565b60088601611395565b61345661111d60018601610ed5565b61347583639ca33c9e61346860405190565b9687958694859360e01b90565b835260048301610262565b03925af180156122d45761111d61111d9161352d93600091613691575b509561111d6134bc61111d6126058a6134b66000610e45565b9061144e565b613519610cfe6134d36126058c6134b66001610e45565b61350d6135126a011b1eea4c8e67b1a0000061350d6001946134fd6134f6610f0a565b998a610f48565b6001600160a01b03166020890152565b610e45565b6040860152565b61352860028801611e18611683565b6131fc565b9163027a5ed890833b15610202576135739361355c6000809461354f60405190565b9788958694859360e01b90565b83526001600160a01b031660048301526024820190565b03925af19081156122d45761111d600761359a926135a99560209561367b575b5001610ed5565b638aa140bb906120e360405190565b825260049082905afa80156122d4576135da9160009161364d575b506135d46111226102fd306103ae565b1461321a565b6135e2611683565b32906136066126056135fb612605866134b66000610e45565b946134b66001610e45565b6136376136317fce8afa6fd6580b8feafdfdab8ac12b1a23979b5e03f0f7c90d5a6fcdd4ada4049390565b936103ae565b93612c1861364460405190565b9283928361329b565b61366e915060203d8111613674575b61366681836105f3565b810190613206565b386135c4565b503d61365c565b61368b9060006122bf81836105f3565b38613593565b6136ae91503d806000833e6136a681836105f3565b810190613167565b5061349d565b906102b7939291612d8a565b6111d4906136cc6142dd565b6102b7906136d8614379565b613baa565b909291926136ed6106658261062d565b93818552602085019082840111610202576102b792610207565b9080601f83011215610202578151610273926020016136dd565b9291906137306106658261069f565b93818552602080860192028101918383116102025781905b838210613756575050505050565b81516001600160401b038111610202576020916137768784938701613707565b815201910190613748565b9080601f8301121561020257815161027392602001613721565b91909161016081840312610202576137b4610160610619565b9260008201516001600160401b03811161020257816137d4918401613707565b845260208201516001600160401b03811161020257816137f5918401613781565b602085015260408201516001600160401b0381116102025781613819918401613707565b604085015260608201516001600160401b038111610202578161383d918401613707565b606085015260808201516001600160401b0381116102025781613861918401613707565b608085015260a08201516001600160401b0381116102025781613885918401613707565b60a085015260c0820151916001600160401b038311610202576138ad826138f5948301613707565b60c08601526138bf8260e0830161315a565b60e08601526138d282610100830161315a565b6101008601526138e682610120830161315a565b6101208601526101400161315a565b610140830152565b8015156102a3565b905051906102b7826138fd565b919060a0838203126102025782516001600160401b038111610202578161393a91850161379b565b92613948826020830161315a565b926139568360408401613905565b926060830151906001600160401b0382116102025761397a81610273938601613707565b936080016130e6565b61398f61117e60029390565b6000915b8383106139a05750505050565b6139ba6139b36001928451815260200190565b9260200190565b92019190613993565b9061025e81604093613983565b6139dc61117e60029390565b6000915b8383106139ed5750505050565b6139fd6139b360019284516139c3565b920191906139e0565b613a1261117e60159390565b6000915b838310613a235750505050565b613a366139b36001928451815260200190565b92019190613a16565b9061010060606102b793613a5b60008201516000860190613983565b613a6d602082015160408601906139d0565b613a7f604082015160c0860190613983565b0151910190613a06565b6103a0810192916102b79190613a3f565b6001600160a01b03919091168152901515602082015260400190565b61025e613ace92602092613ac8815190565b94859290565b93849101610207565b61027391613ab6565b613af690613aed60405190565b91829182613ad7565b03902090565b613b0890600492613ab6565b632044414f60e01b81520190565b906102b7613b2360405190565b8093613b33602083019182613afc565b908103825203836105f3565b906102b7613b4c60405190565b8093613b33602083019182613ad7565b613b7f6102739492936132bc606084019560008501906001600160a01b03169052565b604081840391015261022a565b600e90613283565b61027390613b8c565b60405180613af681613b94565b613be36000613bb76140ff565b92613bc661111d838601610ed5565b613bd8836308e1547861346860405190565b835260048301613a89565b03925af180156122d457600080808080929391959094614054575b50613c5f90929493919384817f04881682880396c5d7f330e192fcd4f8b3d4645842908712b7a005170b3120cc91613c41613c3860405190565b92839283613a9a565b0390a1612dc1613c52613434611192565b611a698760098b01611024565b156112e2578151613c716119f4825190565b2090613c8861111d6000610eec8560028b01610f42565b613c986111226102fd600061133e565b03613f405750613cf560006133d9613ce6846133ca613cb985890151613b16565b6133ba613cc8878b0151613b3f565b6133b38c93613cdf613cd8610f0a565b978b890152565b6020870152565b61345661111d60018a01610ed5565b03925af19081156122d457600091613f25575b5090613d45613d2161111d612605856134b66000610e45565b613d38610cfe6134d3612605876134b66001610e45565b6135288360028a01610f42565b8390613d5e6126056135fb612605866134b66000610e45565b8451937fce8afa6fd6580b8feafdfdab8ac12b1a23979b5e03f0f7c90d5a6fcdd4ada40492613da490613d9190956103ae565b95613d9b60405190565b93849384613b5c565b0390a35b613dd2613dbe6002610e9d818801611e18611683565b6111a26003610e9d60028901611e18611683565b80613de061117e6001610e45565b11613e46575b50906004846110ab6000612b9595613e1d6003613e0b60026102b79c01611e18611683565b0161186b613e1882610e71565b6118aa565b015195613e3d600191613e36613e31610ffd565b998a52565b6020890152565b15156040870152565b613e6061111d6000610eec60028997969701611e18611683565b946340c10f19838397803b156102025761209d60008094613e90613e8360405190565b9c8d968795869460e01b90565b03925af19586156122d4576000612b95956004946110ab936102b79a613f09575b50867fc962c543f7754038c30dfa2ecf80cc21460e0dd165a30c7b72a5faff61641a5291613eef613ee9613ee3613b9d565b92610e45565b926103ae565b92613ef960405190565b600090a494955050509450613de6565b613f1f90843d81116122cd576122bf81836105f3565b38613eb1565b613f3a91503d806000833e6136a681836105f3565b50613d08565b90613f67613f556002610e9d848a8301610f42565b6111a26003610e9d8560028c01610f42565b80613f7561117e6001610e45565b11613f95575b50613f909150613e0b60039160028801610f42565b613da8565b613faa61111d6000610eec8560028c01610f42565b916340c10f19868394803b156102025761209d60008094613fda613fcd60405190565b998a968795869460e01b90565b03925af19182156122d457613f9094600394613e0b9461403e575b50908790614029613ee9613ee37ff15cf73a700a5af7b78b60f8bec965ed4042021257f20ab061625e19bd39f97295613ae0565b9261403360405190565b600090a49150613f7b565b61404e9060006122bf81836105f3565b38613ff5565b92505050613c5f925061407a91503d806000833e61407281836105f3565b810190613912565b9194939093613bfe565b6102b7906136c0565b61027390610e45565b6133d96140db6140c86134347f6465e05dbf987d5ce487353011b9f15a03812c6b68f6fd29aa9cd14e32f7cb8161408d565b6040519283916020830190815260200190565b6140e66119f4825190565b206140fb6140f761350d60ff610e45565b1990565b1690565b610273614096565b916102b79291600192614477565b6001600160a01b0390911681526060810193926102b79290916040916113f2906106e5565b9192916141478282612c9d565b906000198210614158575050509050565b84821061417a5792936141719392910390600092614477565b8038808061261d565b50637dc7a0d960e11b60009081529182916110f8918691906004614115565b91826141ab6111226102fd600061133e565b1461420257816141c16111226102fd600061133e565b146141d2576102b792919091614577565b6110f86141df600061133e565b63ec442f0560e01b60009081526001600160a01b03909116600452908190602490565b6110f861420f600061133e565b634b637e8f60e11b60009081526001600160a01b03909116600452908190602490565b61423a614682565b6102b76142586000805160206147928339815191525b60009061288d565b33612e827f5db9ee0a495bf2e6ff9c91a7834c1ba4fdd244a5e8aa4e537bd38aeae4b073aa9161428760405190565b918291826001600160a01b03909116815260200190565b6102b7614232565b90816142b86111226102fd600061133e565b14614202576102b791906142cc600061133e565b9091614577565b6102736002610e45565b7f9b779b17422d0df92223018b32b4d1fa46e071723d6817e2486d003becc55f0061430781610e71565b61431561117e6102736142d3565b1461432f576102b79060006143286142d3565b9101611395565b633ee5aeb560e01b6000908152600490fd5b6102736001610e45565b6102b77f9b779b17422d0df92223018b32b4d1fa46e071723d6817e2486d003becc55f006000614328614341565b6143816111a8565b61438757565b63d93c066560e01b6000908152600490fd5b806143aa6111226102fd600061133e565b146141d2576102b7916143bd600061133e565b919091614577565b6143cd614379565b6102b76143e9600160008051602061479283398151915261288d565b33612e827f62e78cea01bee320cd4e420270b5ea74000d11b0c9f74754ebdbfc544b05a2589161428760405190565b6102b76143c5565b906102b79161442d6146a5565b906102b791614704565b906102b791614420565b6144496146a5565b6102b76102b7614716565b6102b7614441565b6144646146a5565b6102b76102b7614740565b6102b761445c565b9092600080516020614772833981519152826144996111226102fd600061133e565b1461454757846144af6111226102fd600061133e565b14614517576144d190611a696144ca60018793018690611024565b8790611024565b6144da57505050565b919091612c1861450d6136317f8c5be1e5ebec7d5bd14f71427d1e84f3dd0314c0f7b2291e5b200ac8c7c3b925936103ae565b936102f060405190565b6110f8614524600061133e565b634a1406b160e11b60009081526001600160a01b03909116600452908190602490565b6110f8614554600061133e565b63e602df0560e01b60009081526001600160a01b03909116600452908190602490565b9091906000805160206147728339815191528161459a6111226102fd600061133e565b03614639576145b36002820161186b85611bfe83610e71565b836145c46111226102fd600061133e565b03614614576145e19060020161186b846145dd83610e71565b0390565b919091612c1861450d6136317fddf252ad1be2c89b69c2b068fc378daa952ba7f163c4a11628f55a4df523b3ef936103ae565b6146349061186b61462a60008693018790611024565b9161025e83610e71565b6145e1565b614646611a3b8383611024565b8381106146635761465e90849003611a698484611024565b6145b3565b63391434e360e21b60009081529384936110f893509091906004614115565b61468d612dc16111a8565b61469357565b638dfc202b60e01b6000908152600490fd5b6146b0612dc1614748565b6146b657565b631afcd79f60e31b6000908152600490fd5b906102b7916146d56146a5565b60046102b7926146fd6146f360008051602061477283398151915290565b936003850161287a565b910161287a565b906102b7916146c8565b6111d46146a5565b6102b761470e565b6147266146a5565b6102b76102b7600080516020614792833981519152614250565b6102b761471e565b6102737ff0c57e16840df040f15088dc2f81fe391c3923bec73e23a9662efc9c229c6a00612cd856fe52c63247e1f47db19d5ce0460030c497f067ca4cebf71ba98eeadabe20bace00cd5ed15c6e187e77e9aee88184c21f4f2182ab5827cb3b7e07fbedcd63f03300a164736f6c634300081c000a",
  "devdoc": {
    "author": "Peeramid Labs, 2024",
    "custom:security-contact": "sirt@peeramid.xyz",
    "details": "Implements an upgradeable ERC20 token with specialized governance features including:      - Passport verification for citizenship      - Country-specific DAOs and tokens      - Daily proposal submissions      - Cross-country and same-country voting with quadratic/cubic scoring",
    "errors": {
      "ERC20InsufficientAllowance(address,uint256,uint256)": [
        {
          "details": "Indicates a failure with the `spender`s `allowance`. Used in transfers.",
          "params": {
            "allowance": "Amount of tokens a `spender` is allowed to operate with.",
            "needed": "Minimum amount required to perform a transfer.",
            "spender": "Address that may be allowed to operate on tokens without being their owner."
          }
        }
      ],
      "ERC20InsufficientBalance(address,uint256,uint256)": [
        {
          "details": "Indicates an error related to the current `balance` of a `sender`. Used in transfers.",
          "params": {
            "balance": "Current balance for the interacting account.",
            "needed": "Minimum amount required to perform a transfer.",
            "sender": "Address whose tokens are being transferred."
          }
        }
      ],
      "ERC20InvalidApprover(address)": [
        {
          "details": "Indicates a failure with the `approver` of a token to be approved. Used in approvals.",
          "params": {
            "approver": "Address initiating an approval operation."
          }
        }
      ],
      "ERC20InvalidReceiver(address)": [
        {
          "details": "Indicates a failure with the token `receiver`. Used in transfers.",
          "params": {
            "receiver": "Address to which tokens are being transferred."
          }
        }
      ],
      "ERC20InvalidSender(address)": [
        {
          "details": "Indicates a failure with the token `sender`. Used in transfers.",
          "params": {
            "sender": "Address whose tokens are being transferred."
          }
        }
      ],
      "ERC20InvalidSpender(address)": [
        {
          "details": "Indicates a failure with the `spender` to be approved. Used in approvals.",
          "params": {
            "spender": "Address that may be allowed to operate on tokens without being their owner."
          }
        }
      ],
      "EnforcedPause()": [
        {
          "details": "The operation failed because the contract is paused."
        }
      ],
      "ExpectedPause()": [
        {
          "details": "The operation failed because the contract is not paused."
        }
      ],
      "InvalidInitialization()": [
        {
          "details": "The contract is already initialized."
        }
      ],
      "NotInitializing()": [
        {
          "details": "The contract is not initializing."
        }
      ],
      "ReentrancyGuardReentrantCall()": [
        {
          "details": "Unauthorized reentrant call."
        }
      ]
    },
    "events": {
      "Approval(address,address,uint256)": {
        "details": "Emitted when the allowance of a `spender` for an `owner` is set by a call to {approve}. `value` is the new allowance."
      },
      "FirstCitizenOnboarded(string,uint256,address)": {
        "params": {
          "citizen": "Address of the onboarded citizen",
          "country": "Name of the country",
          "onboardingBonus": "Amount of tokens given as onboarding bonus"
        }
      },
      "Initialized(uint64)": {
        "details": "Triggered when the contract has been initialized or reinitialized."
      },
      "NewCountryOnboarded(bytes32,address,address,address,string)": {
        "params": {
          "country": "Hashed identifier of the country",
          "countryName": "Human-readable name of the country",
          "dao": "Address of the country's DAO contract",
          "godFather": "Address of the first citizen who created the country DAO",
          "token": "Address of the country's governance token"
        }
      },
      "Paused(address)": {
        "details": "Emitted when the pause is triggered by `account`."
      },
      "ProposingByAddress(address,uint256,bytes32,string,uint256)": {
        "params": {
          "day": "Day number when the proposal was created",
          "proposal": "Hash of the proposal",
          "proposalText": "Full text of the proposal",
          "proposer": "Address of the proposal creator"
        }
      },
      "ProposingByCountry(bytes32,uint256,bytes32,string,string,uint256)": {
        "params": {
          "country": "Hashed identifier of the proposer's country",
          "countryString": "Human-readable name of the country",
          "day": "Day number when the proposal was created",
          "proposal": "Hash of the proposal",
          "proposalText": "Full text of the proposal"
        }
      },
      "Transfer(address,address,uint256)": {
        "details": "Emitted when `value` tokens are moved from one account (`from`) to another (`to`). Note that `value` may be zero."
      },
      "Unpaused(address)": {
        "details": "Emitted when the pause is lifted by `account`."
      },
      "Verified(address,bool)": {
        "params": {
          "citizen": "Address of the verified citizen",
          "isExpired": "Whether the passport is expired"
        }
      },
      "VotingByAddress(address,uint256,bytes32,string,string,uint256)": {
        "params": {
          "country": "Country of the voter",
          "day": "Day number when the vote was cast",
          "participant": "Address of the voter",
          "proposal": "Hash of the proposal being voted on",
          "proposerCountry": "Country of the proposal creator",
          "scoreGiven": "Amount of voting power allocated"
        }
      },
      "VotingByCountry(bytes32,uint256,bytes32,address,address,string,uint256)": {
        "params": {
          "country": "Hashed identifier of the voter's country",
          "day": "Day number when the vote was cast",
          "proposal": "Hash of the proposal being voted on",
          "proposer": "Address of the proposal creator",
          "proposerCountry": "Country of the proposal creator",
          "scoreGiven": "Amount of voting power allocated",
          "voter": "Address of the voter"
        }
      },
      "WalletChanged(address,address)": {
        "params": {
          "newWallet": "The new wallet address",
          "oldWallet": "The previous wallet address"
        }
      }
    },
    "kind": "dev",
    "methods": {
      "allowance(address,address)": {
        "details": "See {IERC20-allowance}."
      },
      "approve(address,uint256)": {
        "details": "See {IERC20-approve}. NOTE: If `value` is the maximum `uint256`, the allowance is not updated on `transferFrom`. This is semantically equivalent to an infinite approval. Requirements: - `spender` cannot be the zero address."
      },
      "balanceOf(address)": {
        "details": "See {IERC20-balanceOf}."
      },
      "burn(uint256)": {
        "details": "Destroys a `value` amount of tokens from the caller. See {ERC20-_burn}."
      },
      "burnFrom(address,uint256)": {
        "details": "Destroys a `value` amount of tokens from `account`, deducting from the caller's allowance. See {ERC20-_burn} and {ERC20-allowance}. Requirements: - the caller must have allowance for ``accounts``'s tokens of at least `value`."
      },
      "changeWallet(address)": {
        "custom:security": "Can only be called by a qualified passport holder who hasn't claimed today",
        "details": "Moves citizenship data from the caller to the new wallet address",
        "params": {
          "newWallet": "Address of the new wallet"
        }
      },
      "claim(string,(bytes32,uint256)[],address)": {
        "custom:security": "Uses quadratic voting for same-country proposals and cubic voting for cross-country proposals",
        "details": "Handles multiple operations: token claiming, proposal submission, and voting on previous proposals",
        "params": {
          "newProposal": "Text of the new proposal being submitted",
          "onBehalfOf": "Address to claim/propose/vote on behalf of (if authorized)",
          "vote": "Array of VoteElement structs for voting on previous proposals"
        }
      },
      "claimBatch(string[],(bytes32,uint256)[][],address[])": {
        "custom:security": "Uses quadratic voting for same-country proposals and cubic voting for cross-country proposals",
        "details": "Handles multiple operations: token claiming, proposal submission, and voting on previous proposals",
        "params": {
          "accounts": "Array of addresses to claim/propose/vote on behalf of (if authorized)",
          "proposals": "Array of proposal texts being submitted",
          "votes": "Array of VoteElement arrays for voting on previous proposals"
        }
      },
      "constructor": {
        "details": "Intentionally empty as initialization happens in initialize()"
      },
      "currentDay()": {
        "details": "Used for daily token claiming and proposal tracking",
        "returns": {
          "_0": "uint256 Current day number (timestamp / 1 day)"
        }
      },
      "daoDistribution()": {
        "returns": {
          "_0": "IDistribution The DAO distribution contract"
        }
      },
      "daos(bytes32)": {
        "params": {
          "state": "Hashed identifier of the country"
        },
        "returns": {
          "_0": "DAO Struct containing governance token and DAO details"
        }
      },
      "decimals()": {
        "details": "Returns the number of decimals used to get its user representation. For example, if `decimals` equals `2`, a balance of `505` tokens should be displayed to a user as `5.05` (`505 / 10 ** 2`). Tokens usually opt for a value of 18, imitating the relationship between Ether and Wei. This is the default value returned by this function, unless it's overridden. NOTE: This information is only used for _display_ purposes: it in no way affects any of the arithmetic of the contract, including {IERC20-balanceOf} and {IERC20-transfer}."
      },
      "getDayProposalCnt(uint256)": {
        "params": {
          "day": "The day number to query"
        },
        "returns": {
          "_0": "uint256 Number of proposals submitted on that day"
        }
      },
      "getNoProposalBonus(uint256)": {
        "details": "Rewards users who claim after days with no proposals",
        "params": {
          "day": "The day to calculate the bonus for"
        },
        "returns": {
          "_0": "uint256 The bonus multiplier (days without proposals squared)"
        }
      },
      "getYesterdayProposalCnt()": {
        "returns": {
          "_0": "uint256 Number of proposals submitted yesterday"
        }
      },
      "initialize(address,address,address,address)": {
        "details": "Sets up the contract with required dependencies and initializes the base contracts",
        "params": {
          "_daoDistribution": "Address of the DAO distribution contract",
          "_worldMultiSig": "Address of the WorldMultiSig contract",
          "initialOperator": "Address with initial control of the WorldMultiSig",
          "verifier": "Address of the passport verification contract"
        }
      },
      "name()": {
        "details": "Returns the name of the token."
      },
      "nullifiers(uint256)": {
        "params": {
          "nullifier": "The nullifier value to check"
        },
        "returns": {
          "_0": "bool True if the nullifier has been used"
        }
      },
      "passportHolders(address)": {
        "params": {
          "account": "Address to query passport information for"
        },
        "returns": {
          "_0": "PassportHolder Struct containing citizenship data"
        }
      },
      "pause()": {
        "details": "Can only be called by the WorldMultiSig contract"
      },
      "paused()": {
        "details": "Returns true if the contract is paused, and false otherwise."
      },
      "proposalScores(bytes32)": {
        "params": {
          "proposal": "Hash of the proposal to query"
        },
        "returns": {
          "_0": "uint256 Current score/votes for the proposal"
        }
      },
      "symbol()": {
        "details": "Returns the symbol of the token, usually a shorter version of the name."
      },
      "totalSupply()": {
        "details": "See {IERC20-totalSupply}."
      },
      "transfer(address,uint256)": {
        "details": "See {IERC20-transfer}. Requirements: - `to` cannot be the zero address. - the caller must have a balance of at least `value`."
      },
      "transferFrom(address,address,uint256)": {
        "details": "See {IERC20-transferFrom}. Skips emitting an {Approval} event indicating an allowance update. This is not required by the ERC. See {xref-ERC20-_approve-address-address-uint256-bool-}[_approve]. NOTE: Does not update the allowance if the current allowance is the maximum `uint256`. Requirements: - `from` and `to` cannot be the zero address. - `from` must have a balance of at least `value`. - the caller must have allowance for ``from``'s tokens of at least `value`."
      },
      "unpause()": {
        "details": "Can only be called by the WorldMultiSig contract"
      },
      "verifySelfProof((uint256[2],uint256[2][2],uint256[2],uint256[21]))": {
        "custom:security": "Requires valid proof and non-expired passport",
        "details": "Uses zero-knowledge proofs for privacy-preserving verification",
        "params": {
          "proof": "The zero-knowledge proof of passport validity"
        }
      },
      "votedToday(address)": {
        "params": {
          "account": "The address to check"
        },
        "returns": {
          "_0": "bool True if the account has claimed today"
        }
      },
      "worldMultiSig()": {
        "returns": {
          "_0": "WorldMultiSigV1 The WorldMultiSig contract for governance control"
        }
      }
    },
    "stateVariables": {
      "CLAIMABLE_AMOUNT": {
        "details": "Chosen as it is both square of 8 and cube of 4 for scoring calculations"
      }
    },
    "title": "World Improvement Proposals (WIP)",
    "version": 1
  },
  "userdoc": {
    "events": {
      "FirstCitizenOnboarded(string,uint256,address)": {
        "notice": "Event emitted when the first citizen of a country is onboarded"
      },
      "NewCountryOnboarded(bytes32,address,address,address,string)": {
        "notice": "Event emitted when a new country DAO is created"
      },
      "ProposingByAddress(address,uint256,bytes32,string,uint256)": {
        "notice": "Event for tracking proposals by address"
      },
      "ProposingByCountry(bytes32,uint256,bytes32,string,string,uint256)": {
        "notice": "Event for tracking proposals by country"
      },
      "Verified(address,bool)": {
        "notice": "Event emitted when a passport is verified"
      },
      "VotingByAddress(address,uint256,bytes32,string,string,uint256)": {
        "notice": "Event emitted when a user votes on proposals"
      },
      "VotingByCountry(bytes32,uint256,bytes32,address,address,string,uint256)": {
        "notice": "Event for tracking votes by country"
      },
      "WalletChanged(address,address)": {
        "notice": "Event emitted when a user changes their wallet address"
      }
    },
    "kind": "user",
    "methods": {
      "changeWallet(address)": {
        "notice": "Allows a citizen to transfer their passport to a new wallet"
      },
      "claim(string,(bytes32,uint256)[],address)": {
        "notice": "Main function for claiming daily tokens, submitting proposals, and voting"
      },
      "claimBatch(string[],(bytes32,uint256)[][],address[])": {
        "notice": "Main function for claiming daily tokens, submitting proposals, and voting"
      },
      "constructor": {
        "notice": "Constructor"
      },
      "currentDay()": {
        "notice": "Get the current day number based on timestamp"
      },
      "daoDistribution()": {
        "notice": "Returns the DAODistribution contract instance"
      },
      "daos(bytes32)": {
        "notice": "Retrieves the DAO information for a given country"
      },
      "getDayProposalCnt(uint256)": {
        "notice": "Gets the number of proposals for a specific day"
      },
      "getNoProposalBonus(uint256)": {
        "notice": "Calculates bonus tokens for days without proposals"
      },
      "getYesterdayProposalCnt()": {
        "notice": "Gets the number of proposals from yesterday"
      },
      "initialize(address,address,address,address)": {
        "notice": "Initializes the WIP contract"
      },
      "nullifiers(uint256)": {
        "notice": "Checks if a nullifier has been used"
      },
      "passportHolders(address)": {
        "notice": "Retrieves the passport holder information for a given account"
      },
      "pause()": {
        "notice": "Pauses all contract functions with the whenNotPaused modifier"
      },
      "proposalScores(bytes32)": {
        "notice": "Gets the total score for a proposal"
      },
      "unpause()": {
        "notice": "Unpauses contract functions"
      },
      "verifySelfProof((uint256[2],uint256[2][2],uint256[2],uint256[21]))": {
        "notice": "Verifies a citizen's passport and registers them in the system"
      },
      "votedToday(address)": {
        "notice": "Checks if an account has already claimed tokens today"
      },
      "worldMultiSig()": {
        "notice": "Returns the WorldMultiSig contract instance"
      }
    },
    "notice": "Main contract for the World Improvement Proposals system, enabling citizenship-based         governance across multiple countries with democratic proposal and voting mechanisms.",
    "version": 1
  },
  "storageLayout": {
    "storage": [],
    "types": null
  }
}