{
  "address": "0xB77fe99593321039D24268463C3Ad09C61339015",
  "abi": [
    {
      "inputs": [],
      "stateMutability": "nonpayable",
      "type": "constructor"
    },
    {
      "inputs": [],
      "name": "CheckpointUnorderedInsertion",
      "type": "error"
    },
    {
      "inputs": [],
      "name": "FailedCall",
      "type": "error"
    },
    {
      "inputs": [
        {
          "internalType": "address",
          "name": "voter",
          "type": "address"
        }
      ],
      "name": "GovernorAlreadyCastVote",
      "type": "error"
    },
    {
      "inputs": [
        {
          "internalType": "uint256",
          "name": "proposalId",
          "type": "uint256"
        }
      ],
      "name": "GovernorAlreadyQueuedProposal",
      "type": "error"
    },
    {
      "inputs": [],
      "name": "GovernorDisabledDeposit",
      "type": "error"
    },
    {
      "inputs": [
        {
          "internalType": "address",
          "name": "proposer",
          "type": "address"
        },
        {
          "internalType": "uint256",
          "name": "votes",
          "type": "uint256"
        },
        {
          "internalType": "uint256",
          "name": "threshold",
          "type": "uint256"
        }
      ],
      "name": "GovernorInsufficientProposerVotes",
      "type": "error"
    },
    {
      "inputs": [
        {
          "internalType": "uint256",
          "name": "targets",
          "type": "uint256"
        },
        {
          "internalType": "uint256",
          "name": "calldatas",
          "type": "uint256"
        },
        {
          "internalType": "uint256",
          "name": "values",
          "type": "uint256"
        }
      ],
      "name": "GovernorInvalidProposalLength",
      "type": "error"
    },
    {
      "inputs": [
        {
          "internalType": "uint256",
          "name": "quorumNumerator",
          "type": "uint256"
        },
        {
          "internalType": "uint256",
          "name": "quorumDenominator",
          "type": "uint256"
        }
      ],
      "name": "GovernorInvalidQuorumFraction",
      "type": "error"
    },
    {
      "inputs": [
        {
          "internalType": "address",
          "name": "voter",
          "type": "address"
        }
      ],
      "name": "GovernorInvalidSignature",
      "type": "error"
    },
    {
      "inputs": [],
      "name": "GovernorInvalidVoteParams",
      "type": "error"
    },
    {
      "inputs": [],
      "name": "GovernorInvalidVoteType",
      "type": "error"
    },
    {
      "inputs": [
        {
          "internalType": "uint256",
          "name": "votingPeriod",
          "type": "uint256"
        }
      ],
      "name": "GovernorInvalidVotingPeriod",
      "type": "error"
    },
    {
      "inputs": [
        {
          "internalType": "uint256",
          "name": "proposalId",
          "type": "uint256"
        }
      ],
      "name": "GovernorNonexistentProposal",
      "type": "error"
    },
    {
      "inputs": [
        {
          "internalType": "uint256",
          "name": "proposalId",
          "type": "uint256"
        }
      ],
      "name": "GovernorNotQueuedProposal",
      "type": "error"
    },
    {
      "inputs": [
        {
          "internalType": "address",
          "name": "account",
          "type": "address"
        }
      ],
      "name": "GovernorOnlyExecutor",
      "type": "error"
    },
    {
      "inputs": [
        {
          "internalType": "address",
          "name": "account",
          "type": "address"
        }
      ],
      "name": "GovernorOnlyProposer",
      "type": "error"
    },
    {
      "inputs": [],
      "name": "GovernorQueueNotImplemented",
      "type": "error"
    },
    {
      "inputs": [
        {
          "internalType": "address",
          "name": "proposer",
          "type": "address"
        }
      ],
      "name": "GovernorRestrictedProposer",
      "type": "error"
    },
    {
      "inputs": [
        {
          "internalType": "uint256",
          "name": "proposalId",
          "type": "uint256"
        },
        {
          "internalType": "enum IGovernor.ProposalState",
          "name": "current",
          "type": "uint8"
        },
        {
          "internalType": "bytes32",
          "name": "expectedStates",
          "type": "bytes32"
        }
      ],
      "name": "GovernorUnexpectedProposalState",
      "type": "error"
    },
    {
      "inputs": [
        {
          "internalType": "address",
          "name": "account",
          "type": "address"
        },
        {
          "internalType": "uint256",
          "name": "currentNonce",
          "type": "uint256"
        }
      ],
      "name": "InvalidAccountNonce",
      "type": "error"
    },
    {
      "inputs": [],
      "name": "InvalidInitialization",
      "type": "error"
    },
    {
      "inputs": [],
      "name": "NotInitializing",
      "type": "error"
    },
    {
      "inputs": [
        {
          "internalType": "uint8",
          "name": "bits",
          "type": "uint8"
        },
        {
          "internalType": "uint256",
          "name": "value",
          "type": "uint256"
        }
      ],
      "name": "SafeCastOverflowedUintDowncast",
      "type": "error"
    },
    {
      "anonymous": false,
      "inputs": [],
      "name": "EIP712DomainChanged",
      "type": "event"
    },
    {
      "anonymous": false,
      "inputs": [
        {
          "indexed": false,
          "internalType": "uint64",
          "name": "version",
          "type": "uint64"
        }
      ],
      "name": "Initialized",
      "type": "event"
    },
    {
      "anonymous": false,
      "inputs": [
        {
          "indexed": false,
          "internalType": "uint256",
          "name": "proposalId",
          "type": "uint256"
        }
      ],
      "name": "ProposalCanceled",
      "type": "event"
    },
    {
      "anonymous": false,
      "inputs": [
        {
          "indexed": false,
          "internalType": "uint256",
          "name": "proposalId",
          "type": "uint256"
        },
        {
          "indexed": false,
          "internalType": "address",
          "name": "proposer",
          "type": "address"
        },
        {
          "indexed": false,
          "internalType": "address[]",
          "name": "targets",
          "type": "address[]"
        },
        {
          "indexed": false,
          "internalType": "uint256[]",
          "name": "values",
          "type": "uint256[]"
        },
        {
          "indexed": false,
          "internalType": "string[]",
          "name": "signatures",
          "type": "string[]"
        },
        {
          "indexed": false,
          "internalType": "bytes[]",
          "name": "calldatas",
          "type": "bytes[]"
        },
        {
          "indexed": false,
          "internalType": "uint256",
          "name": "voteStart",
          "type": "uint256"
        },
        {
          "indexed": false,
          "internalType": "uint256",
          "name": "voteEnd",
          "type": "uint256"
        },
        {
          "indexed": false,
          "internalType": "string",
          "name": "description",
          "type": "string"
        }
      ],
      "name": "ProposalCreated",
      "type": "event"
    },
    {
      "anonymous": false,
      "inputs": [
        {
          "indexed": false,
          "internalType": "uint256",
          "name": "proposalId",
          "type": "uint256"
        }
      ],
      "name": "ProposalExecuted",
      "type": "event"
    },
    {
      "anonymous": false,
      "inputs": [
        {
          "indexed": false,
          "internalType": "uint256",
          "name": "proposalId",
          "type": "uint256"
        },
        {
          "indexed": false,
          "internalType": "uint256",
          "name": "etaSeconds",
          "type": "uint256"
        }
      ],
      "name": "ProposalQueued",
      "type": "event"
    },
    {
      "anonymous": false,
      "inputs": [
        {
          "indexed": false,
          "internalType": "uint256",
          "name": "oldProposalThreshold",
          "type": "uint256"
        },
        {
          "indexed": false,
          "internalType": "uint256",
          "name": "newProposalThreshold",
          "type": "uint256"
        }
      ],
      "name": "ProposalThresholdSet",
      "type": "event"
    },
    {
      "anonymous": false,
      "inputs": [
        {
          "indexed": false,
          "internalType": "uint256",
          "name": "oldQuorumNumerator",
          "type": "uint256"
        },
        {
          "indexed": false,
          "internalType": "uint256",
          "name": "newQuorumNumerator",
          "type": "uint256"
        }
      ],
      "name": "QuorumNumeratorUpdated",
      "type": "event"
    },
    {
      "anonymous": false,
      "inputs": [
        {
          "indexed": true,
          "internalType": "address",
          "name": "voter",
          "type": "address"
        },
        {
          "indexed": false,
          "internalType": "uint256",
          "name": "proposalId",
          "type": "uint256"
        },
        {
          "indexed": false,
          "internalType": "uint8",
          "name": "support",
          "type": "uint8"
        },
        {
          "indexed": false,
          "internalType": "uint256",
          "name": "weight",
          "type": "uint256"
        },
        {
          "indexed": false,
          "internalType": "string",
          "name": "reason",
          "type": "string"
        }
      ],
      "name": "VoteCast",
      "type": "event"
    },
    {
      "anonymous": false,
      "inputs": [
        {
          "indexed": true,
          "internalType": "address",
          "name": "voter",
          "type": "address"
        },
        {
          "indexed": false,
          "internalType": "uint256",
          "name": "proposalId",
          "type": "uint256"
        },
        {
          "indexed": false,
          "internalType": "uint8",
          "name": "support",
          "type": "uint8"
        },
        {
          "indexed": false,
          "internalType": "uint256",
          "name": "weight",
          "type": "uint256"
        },
        {
          "indexed": false,
          "internalType": "string",
          "name": "reason",
          "type": "string"
        },
        {
          "indexed": false,
          "internalType": "bytes",
          "name": "params",
          "type": "bytes"
        }
      ],
      "name": "VoteCastWithParams",
      "type": "event"
    },
    {
      "anonymous": false,
      "inputs": [
        {
          "indexed": false,
          "internalType": "uint256",
          "name": "oldVotingDelay",
          "type": "uint256"
        },
        {
          "indexed": false,
          "internalType": "uint256",
          "name": "newVotingDelay",
          "type": "uint256"
        }
      ],
      "name": "VotingDelaySet",
      "type": "event"
    },
    {
      "anonymous": false,
      "inputs": [
        {
          "indexed": false,
          "internalType": "uint256",
          "name": "oldVotingPeriod",
          "type": "uint256"
        },
        {
          "indexed": false,
          "internalType": "uint256",
          "name": "newVotingPeriod",
          "type": "uint256"
        }
      ],
      "name": "VotingPeriodSet",
      "type": "event"
    },
    {
      "inputs": [],
      "name": "BALLOT_TYPEHASH",
      "outputs": [
        {
          "internalType": "bytes32",
          "name": "",
          "type": "bytes32"
        }
      ],
      "stateMutability": "view",
      "type": "function"
    },
    {
      "inputs": [],
      "name": "CLOCK_MODE",
      "outputs": [
        {
          "internalType": "string",
          "name": "",
          "type": "string"
        }
      ],
      "stateMutability": "view",
      "type": "function"
    },
    {
      "inputs": [],
      "name": "COUNTING_MODE",
      "outputs": [
        {
          "internalType": "string",
          "name": "",
          "type": "string"
        }
      ],
      "stateMutability": "pure",
      "type": "function"
    },
    {
      "inputs": [],
      "name": "EXTENDED_BALLOT_TYPEHASH",
      "outputs": [
        {
          "internalType": "bytes32",
          "name": "",
          "type": "bytes32"
        }
      ],
      "stateMutability": "view",
      "type": "function"
    },
    {
      "inputs": [
        {
          "internalType": "uint256",
          "name": "proposalId",
          "type": "uint256"
        }
      ],
      "name": "cancel",
      "outputs": [],
      "stateMutability": "nonpayable",
      "type": "function"
    },
    {
      "inputs": [
        {
          "internalType": "address[]",
          "name": "targets",
          "type": "address[]"
        },
        {
          "internalType": "uint256[]",
          "name": "values",
          "type": "uint256[]"
        },
        {
          "internalType": "bytes[]",
          "name": "calldatas",
          "type": "bytes[]"
        },
        {
          "internalType": "bytes32",
          "name": "descriptionHash",
          "type": "bytes32"
        }
      ],
      "name": "cancel",
      "outputs": [
        {
          "internalType": "uint256",
          "name": "",
          "type": "uint256"
        }
      ],
      "stateMutability": "nonpayable",
      "type": "function"
    },
    {
      "inputs": [
        {
          "internalType": "uint256",
          "name": "proposalId",
          "type": "uint256"
        },
        {
          "internalType": "uint8",
          "name": "support",
          "type": "uint8"
        }
      ],
      "name": "castVote",
      "outputs": [
        {
          "internalType": "uint256",
          "name": "",
          "type": "uint256"
        }
      ],
      "stateMutability": "nonpayable",
      "type": "function"
    },
    {
      "inputs": [
        {
          "internalType": "uint256",
          "name": "proposalId",
          "type": "uint256"
        },
        {
          "internalType": "uint8",
          "name": "support",
          "type": "uint8"
        },
        {
          "internalType": "address",
          "name": "voter",
          "type": "address"
        },
        {
          "internalType": "bytes",
          "name": "signature",
          "type": "bytes"
        }
      ],
      "name": "castVoteBySig",
      "outputs": [
        {
          "internalType": "uint256",
          "name": "",
          "type": "uint256"
        }
      ],
      "stateMutability": "nonpayable",
      "type": "function"
    },
    {
      "inputs": [
        {
          "internalType": "uint256",
          "name": "proposalId",
          "type": "uint256"
        },
        {
          "internalType": "uint8",
          "name": "support",
          "type": "uint8"
        },
        {
          "internalType": "string",
          "name": "reason",
          "type": "string"
        }
      ],
      "name": "castVoteWithReason",
      "outputs": [
        {
          "internalType": "uint256",
          "name": "",
          "type": "uint256"
        }
      ],
      "stateMutability": "nonpayable",
      "type": "function"
    },
    {
      "inputs": [
        {
          "internalType": "uint256",
          "name": "proposalId",
          "type": "uint256"
        },
        {
          "internalType": "uint8",
          "name": "support",
          "type": "uint8"
        },
        {
          "internalType": "string",
          "name": "reason",
          "type": "string"
        },
        {
          "internalType": "bytes",
          "name": "params",
          "type": "bytes"
        }
      ],
      "name": "castVoteWithReasonAndParams",
      "outputs": [
        {
          "internalType": "uint256",
          "name": "",
          "type": "uint256"
        }
      ],
      "stateMutability": "nonpayable",
      "type": "function"
    },
    {
      "inputs": [
        {
          "internalType": "uint256",
          "name": "proposalId",
          "type": "uint256"
        },
        {
          "internalType": "uint8",
          "name": "support",
          "type": "uint8"
        },
        {
          "internalType": "address",
          "name": "voter",
          "type": "address"
        },
        {
          "internalType": "string",
          "name": "reason",
          "type": "string"
        },
        {
          "internalType": "bytes",
          "name": "params",
          "type": "bytes"
        },
        {
          "internalType": "bytes",
          "name": "signature",
          "type": "bytes"
        }
      ],
      "name": "castVoteWithReasonAndParamsBySig",
      "outputs": [
        {
          "internalType": "uint256",
          "name": "",
          "type": "uint256"
        }
      ],
      "stateMutability": "nonpayable",
      "type": "function"
    },
    {
      "inputs": [],
      "name": "clock",
      "outputs": [
        {
          "internalType": "uint48",
          "name": "",
          "type": "uint48"
        }
      ],
      "stateMutability": "view",
      "type": "function"
    },
    {
      "inputs": [],
      "name": "contractURI",
      "outputs": [
        {
          "internalType": "string",
          "name": "",
          "type": "string"
        }
      ],
      "stateMutability": "view",
      "type": "function"
    },
    {
      "inputs": [],
      "name": "eip712Domain",
      "outputs": [
        {
          "internalType": "bytes1",
          "name": "fields",
          "type": "bytes1"
        },
        {
          "internalType": "string",
          "name": "name",
          "type": "string"
        },
        {
          "internalType": "string",
          "name": "version",
          "type": "string"
        },
        {
          "internalType": "uint256",
          "name": "chainId",
          "type": "uint256"
        },
        {
          "internalType": "address",
          "name": "verifyingContract",
          "type": "address"
        },
        {
          "internalType": "bytes32",
          "name": "salt",
          "type": "bytes32"
        },
        {
          "internalType": "uint256[]",
          "name": "extensions",
          "type": "uint256[]"
        }
      ],
      "stateMutability": "view",
      "type": "function"
    },
    {
      "inputs": [
        {
          "internalType": "address[]",
          "name": "targets",
          "type": "address[]"
        },
        {
          "internalType": "uint256[]",
          "name": "values",
          "type": "uint256[]"
        },
        {
          "internalType": "bytes[]",
          "name": "calldatas",
          "type": "bytes[]"
        },
        {
          "internalType": "bytes32",
          "name": "descriptionHash",
          "type": "bytes32"
        }
      ],
      "name": "execute",
      "outputs": [
        {
          "internalType": "uint256",
          "name": "",
          "type": "uint256"
        }
      ],
      "stateMutability": "payable",
      "type": "function"
    },
    {
      "inputs": [
        {
          "internalType": "uint256",
          "name": "proposalId",
          "type": "uint256"
        }
      ],
      "name": "execute",
      "outputs": [],
      "stateMutability": "payable",
      "type": "function"
    },
    {
      "inputs": [
        {
          "internalType": "address",
          "name": "account",
          "type": "address"
        },
        {
          "internalType": "uint256",
          "name": "timepoint",
          "type": "uint256"
        }
      ],
      "name": "getVotes",
      "outputs": [
        {
          "internalType": "uint256",
          "name": "",
          "type": "uint256"
        }
      ],
      "stateMutability": "view",
      "type": "function"
    },
    {
      "inputs": [
        {
          "internalType": "address",
          "name": "account",
          "type": "address"
        },
        {
          "internalType": "uint256",
          "name": "timepoint",
          "type": "uint256"
        },
        {
          "internalType": "bytes",
          "name": "params",
          "type": "bytes"
        }
      ],
      "name": "getVotesWithParams",
      "outputs": [
        {
          "internalType": "uint256",
          "name": "",
          "type": "uint256"
        }
      ],
      "stateMutability": "view",
      "type": "function"
    },
    {
      "inputs": [
        {
          "internalType": "uint256",
          "name": "proposalId",
          "type": "uint256"
        },
        {
          "internalType": "address",
          "name": "account",
          "type": "address"
        }
      ],
      "name": "hasVoted",
      "outputs": [
        {
          "internalType": "bool",
          "name": "",
          "type": "bool"
        }
      ],
      "stateMutability": "view",
      "type": "function"
    },
    {
      "inputs": [
        {
          "internalType": "address[]",
          "name": "targets",
          "type": "address[]"
        },
        {
          "internalType": "uint256[]",
          "name": "values",
          "type": "uint256[]"
        },
        {
          "internalType": "bytes[]",
          "name": "calldatas",
          "type": "bytes[]"
        },
        {
          "internalType": "bytes32",
          "name": "descriptionHash",
          "type": "bytes32"
        }
      ],
      "name": "hashProposal",
      "outputs": [
        {
          "internalType": "uint256",
          "name": "",
          "type": "uint256"
        }
      ],
      "stateMutability": "pure",
      "type": "function"
    },
    {
      "inputs": [
        {
          "internalType": "contract IVotes",
          "name": "_token",
          "type": "address"
        }
      ],
      "name": "initialize",
      "outputs": [],
      "stateMutability": "nonpayable",
      "type": "function"
    },
    {
      "inputs": [],
      "name": "name",
      "outputs": [
        {
          "internalType": "string",
          "name": "",
          "type": "string"
        }
      ],
      "stateMutability": "view",
      "type": "function"
    },
    {
      "inputs": [
        {
          "internalType": "address",
          "name": "owner",
          "type": "address"
        }
      ],
      "name": "nonces",
      "outputs": [
        {
          "internalType": "uint256",
          "name": "",
          "type": "uint256"
        }
      ],
      "stateMutability": "view",
      "type": "function"
    },
    {
      "inputs": [
        {
          "internalType": "address",
          "name": "",
          "type": "address"
        },
        {
          "internalType": "address",
          "name": "",
          "type": "address"
        },
        {
          "internalType": "uint256[]",
          "name": "",
          "type": "uint256[]"
        },
        {
          "internalType": "uint256[]",
          "name": "",
          "type": "uint256[]"
        },
        {
          "internalType": "bytes",
          "name": "",
          "type": "bytes"
        }
      ],
      "name": "onERC1155BatchReceived",
      "outputs": [
        {
          "internalType": "bytes4",
          "name": "",
          "type": "bytes4"
        }
      ],
      "stateMutability": "nonpayable",
      "type": "function"
    },
    {
      "inputs": [
        {
          "internalType": "address",
          "name": "",
          "type": "address"
        },
        {
          "internalType": "address",
          "name": "",
          "type": "address"
        },
        {
          "internalType": "uint256",
          "name": "",
          "type": "uint256"
        },
        {
          "internalType": "uint256",
          "name": "",
          "type": "uint256"
        },
        {
          "internalType": "bytes",
          "name": "",
          "type": "bytes"
        }
      ],
      "name": "onERC1155Received",
      "outputs": [
        {
          "internalType": "bytes4",
          "name": "",
          "type": "bytes4"
        }
      ],
      "stateMutability": "nonpayable",
      "type": "function"
    },
    {
      "inputs": [
        {
          "internalType": "address",
          "name": "",
          "type": "address"
        },
        {
          "internalType": "address",
          "name": "",
          "type": "address"
        },
        {
          "internalType": "uint256",
          "name": "",
          "type": "uint256"
        },
        {
          "internalType": "bytes",
          "name": "",
          "type": "bytes"
        }
      ],
      "name": "onERC721Received",
      "outputs": [
        {
          "internalType": "bytes4",
          "name": "",
          "type": "bytes4"
        }
      ],
      "stateMutability": "nonpayable",
      "type": "function"
    },
    {
      "inputs": [],
      "name": "proposalCount",
      "outputs": [
        {
          "internalType": "uint256",
          "name": "",
          "type": "uint256"
        }
      ],
      "stateMutability": "view",
      "type": "function"
    },
    {
      "inputs": [
        {
          "internalType": "uint256",
          "name": "proposalId",
          "type": "uint256"
        }
      ],
      "name": "proposalDeadline",
      "outputs": [
        {
          "internalType": "uint256",
          "name": "",
          "type": "uint256"
        }
      ],
      "stateMutability": "view",
      "type": "function"
    },
    {
      "inputs": [
        {
          "internalType": "uint256",
          "name": "proposalId",
          "type": "uint256"
        }
      ],
      "name": "proposalDetails",
      "outputs": [
        {
          "internalType": "address[]",
          "name": "targets",
          "type": "address[]"
        },
        {
          "internalType": "uint256[]",
          "name": "values",
          "type": "uint256[]"
        },
        {
          "internalType": "bytes[]",
          "name": "calldatas",
          "type": "bytes[]"
        },
        {
          "internalType": "bytes32",
          "name": "descriptionHash",
          "type": "bytes32"
        }
      ],
      "stateMutability": "view",
      "type": "function"
    },
    {
      "inputs": [
        {
          "internalType": "uint256",
          "name": "index",
          "type": "uint256"
        }
      ],
      "name": "proposalDetailsAt",
      "outputs": [
        {
          "internalType": "uint256",
          "name": "proposalId",
          "type": "uint256"
        },
        {
          "internalType": "address[]",
          "name": "targets",
          "type": "address[]"
        },
        {
          "internalType": "uint256[]",
          "name": "values",
          "type": "uint256[]"
        },
        {
          "internalType": "bytes[]",
          "name": "calldatas",
          "type": "bytes[]"
        },
        {
          "internalType": "bytes32",
          "name": "descriptionHash",
          "type": "bytes32"
        }
      ],
      "stateMutability": "view",
      "type": "function"
    },
    {
      "inputs": [
        {
          "internalType": "uint256",
          "name": "proposalId",
          "type": "uint256"
        }
      ],
      "name": "proposalEta",
      "outputs": [
        {
          "internalType": "uint256",
          "name": "",
          "type": "uint256"
        }
      ],
      "stateMutability": "view",
      "type": "function"
    },
    {
      "inputs": [
        {
          "internalType": "uint256",
          "name": "",
          "type": "uint256"
        }
      ],
      "name": "proposalNeedsQueuing",
      "outputs": [
        {
          "internalType": "bool",
          "name": "",
          "type": "bool"
        }
      ],
      "stateMutability": "view",
      "type": "function"
    },
    {
      "inputs": [
        {
          "internalType": "uint256",
          "name": "proposalId",
          "type": "uint256"
        }
      ],
      "name": "proposalProposer",
      "outputs": [
        {
          "internalType": "address",
          "name": "",
          "type": "address"
        }
      ],
      "stateMutability": "view",
      "type": "function"
    },
    {
      "inputs": [
        {
          "internalType": "uint256",
          "name": "proposalId",
          "type": "uint256"
        }
      ],
      "name": "proposalSnapshot",
      "outputs": [
        {
          "internalType": "uint256",
          "name": "",
          "type": "uint256"
        }
      ],
      "stateMutability": "view",
      "type": "function"
    },
    {
      "inputs": [],
      "name": "proposalThreshold",
      "outputs": [
        {
          "internalType": "uint256",
          "name": "",
          "type": "uint256"
        }
      ],
      "stateMutability": "view",
      "type": "function"
    },
    {
      "inputs": [
        {
          "internalType": "uint256",
          "name": "proposalId",
          "type": "uint256"
        }
      ],
      "name": "proposalVotes",
      "outputs": [
        {
          "internalType": "uint256",
          "name": "againstVotes",
          "type": "uint256"
        },
        {
          "internalType": "uint256",
          "name": "forVotes",
          "type": "uint256"
        },
        {
          "internalType": "uint256",
          "name": "abstainVotes",
          "type": "uint256"
        }
      ],
      "stateMutability": "view",
      "type": "function"
    },
    {
      "inputs": [
        {
          "internalType": "address[]",
          "name": "targets",
          "type": "address[]"
        },
        {
          "internalType": "uint256[]",
          "name": "values",
          "type": "uint256[]"
        },
        {
          "internalType": "bytes[]",
          "name": "calldatas",
          "type": "bytes[]"
        },
        {
          "internalType": "string",
          "name": "description",
          "type": "string"
        }
      ],
      "name": "propose",
      "outputs": [
        {
          "internalType": "uint256",
          "name": "",
          "type": "uint256"
        }
      ],
      "stateMutability": "nonpayable",
      "type": "function"
    },
    {
      "inputs": [
        {
          "internalType": "address[]",
          "name": "targets",
          "type": "address[]"
        },
        {
          "internalType": "uint256[]",
          "name": "values",
          "type": "uint256[]"
        },
        {
          "internalType": "bytes[]",
          "name": "calldatas",
          "type": "bytes[]"
        },
        {
          "internalType": "bytes32",
          "name": "descriptionHash",
          "type": "bytes32"
        }
      ],
      "name": "queue",
      "outputs": [
        {
          "internalType": "uint256",
          "name": "",
          "type": "uint256"
        }
      ],
      "stateMutability": "nonpayable",
      "type": "function"
    },
    {
      "inputs": [
        {
          "internalType": "uint256",
          "name": "proposalId",
          "type": "uint256"
        }
      ],
      "name": "queue",
      "outputs": [],
      "stateMutability": "nonpayable",
      "type": "function"
    },
    {
      "inputs": [
        {
          "internalType": "uint256",
          "name": "blockNumber",
          "type": "uint256"
        }
      ],
      "name": "quorum",
      "outputs": [
        {
          "internalType": "uint256",
          "name": "",
          "type": "uint256"
        }
      ],
      "stateMutability": "view",
      "type": "function"
    },
    {
      "inputs": [],
      "name": "quorumDenominator",
      "outputs": [
        {
          "internalType": "uint256",
          "name": "",
          "type": "uint256"
        }
      ],
      "stateMutability": "view",
      "type": "function"
    },
    {
      "inputs": [
        {
          "internalType": "uint256",
          "name": "timepoint",
          "type": "uint256"
        }
      ],
      "name": "quorumNumerator",
      "outputs": [
        {
          "internalType": "uint256",
          "name": "",
          "type": "uint256"
        }
      ],
      "stateMutability": "view",
      "type": "function"
    },
    {
      "inputs": [],
      "name": "quorumNumerator",
      "outputs": [
        {
          "internalType": "uint256",
          "name": "",
          "type": "uint256"
        }
      ],
      "stateMutability": "view",
      "type": "function"
    },
    {
      "inputs": [
        {
          "internalType": "address",
          "name": "target",
          "type": "address"
        },
        {
          "internalType": "uint256",
          "name": "value",
          "type": "uint256"
        },
        {
          "internalType": "bytes",
          "name": "data",
          "type": "bytes"
        }
      ],
      "name": "relay",
      "outputs": [],
      "stateMutability": "payable",
      "type": "function"
    },
    {
      "inputs": [
        {
          "internalType": "string",
          "name": "uri",
          "type": "string"
        }
      ],
      "name": "setContractURI",
      "outputs": [],
      "stateMutability": "nonpayable",
      "type": "function"
    },
    {
      "inputs": [
        {
          "internalType": "uint256",
          "name": "newProposalThreshold",
          "type": "uint256"
        }
      ],
      "name": "setProposalThreshold",
      "outputs": [],
      "stateMutability": "nonpayable",
      "type": "function"
    },
    {
      "inputs": [
        {
          "internalType": "uint48",
          "name": "newVotingDelay",
          "type": "uint48"
        }
      ],
      "name": "setVotingDelay",
      "outputs": [],
      "stateMutability": "nonpayable",
      "type": "function"
    },
    {
      "inputs": [
        {
          "internalType": "uint32",
          "name": "newVotingPeriod",
          "type": "uint32"
        }
      ],
      "name": "setVotingPeriod",
      "outputs": [],
      "stateMutability": "nonpayable",
      "type": "function"
    },
    {
      "inputs": [
        {
          "internalType": "uint256",
          "name": "proposalId",
          "type": "uint256"
        }
      ],
      "name": "state",
      "outputs": [
        {
          "internalType": "enum IGovernor.ProposalState",
          "name": "",
          "type": "uint8"
        }
      ],
      "stateMutability": "view",
      "type": "function"
    },
    {
      "inputs": [
        {
          "internalType": "bytes4",
          "name": "interfaceId",
          "type": "bytes4"
        }
      ],
      "name": "supportsInterface",
      "outputs": [
        {
          "internalType": "bool",
          "name": "",
          "type": "bool"
        }
      ],
      "stateMutability": "view",
      "type": "function"
    },
    {
      "inputs": [],
      "name": "token",
      "outputs": [
        {
          "internalType": "contract IERC5805",
          "name": "",
          "type": "address"
        }
      ],
      "stateMutability": "view",
      "type": "function"
    },
    {
      "inputs": [
        {
          "internalType": "uint256",
          "name": "newQuorumNumerator",
          "type": "uint256"
        }
      ],
      "name": "updateQuorumNumerator",
      "outputs": [],
      "stateMutability": "nonpayable",
      "type": "function"
    },
    {
      "inputs": [],
      "name": "version",
      "outputs": [
        {
          "internalType": "string",
          "name": "",
          "type": "string"
        }
      ],
      "stateMutability": "view",
      "type": "function"
    },
    {
      "inputs": [],
      "name": "votingDelay",
      "outputs": [
        {
          "internalType": "uint256",
          "name": "",
          "type": "uint256"
        }
      ],
      "stateMutability": "view",
      "type": "function"
    },
    {
      "inputs": [],
      "name": "votingPeriod",
      "outputs": [
        {
          "internalType": "uint256",
          "name": "",
          "type": "uint256"
        }
      ],
      "stateMutability": "view",
      "type": "function"
    },
    {
      "stateMutability": "payable",
      "type": "receive"
    }
  ],
  "transactionHash": "0x7a25c2bf2b9659d7e86f312faacd19630f95cd78d493f7e4583a3334b4339623",
  "args": [],
  "numDeployments": 1,
  "solcInputHash": "423d191a746a9ecdc01440b7845e3561",
  "bytecode": "0x60806040523461002257610011610027565b604051615aa061014e8239615aa090f35b600080fd5b61002f6100aa565b565b61003e9060401c60ff1690565b90565b61003e9054610031565b61003e905b6001600160401b031690565b61003e905461004b565b61003e90610050906001600160401b031682565b9061008a61003e6100a692610066565b82546001600160401b0319166001600160401b03919091161790565b9055565b7ff0c57e16840df040f15088dc2f81fe391c3923bec73e23a9662efc9c229c6a006100d481610041565b61013b576100e18161005c565b6001600160401b03908116036100f45750565b610106906001600160401b039061007a565b6040516001600160401b0381527fc7f505b2f371ae2175ee4913f4499e1f2633a7b5936321eed1cdaeb6115181d290602090a1565b63f92ee8a960e01b6000908152600490fdfe60806040526004361015610023575b361561001957600080fd5b6100216131fa565b005b60003560e01c806301ffc9a71461039357806302a251a31461038e57806306f3f9e61461038957806306fdde0314610384578063143489d01461037f578063150b7a021461037a578063160cbed71461037557806316e9eaec146103705780632656227d1461036b5780632d63f693146103665780632e82db94146103615780632fe3e2611461035c5780633932abb1146103575780633e4f49e61461035257806340e58ee51461034d5780634385963214610348578063452115d6146103435780634bf5d7e91461033e578063544ffc9c1461033957806354fd4d5014610334578063567813881461032f5780635b8d0e0d1461032a5780635f398a141461032557806360c4247f14610320578063790518871461031b5780637b3c71d3146103165780637d5e81e2146103115780637ecebe001461030c57806384b0196e146103075780638ff262e31461030257806391ddadf4146102fd578063938e3d7b146102f857806397c3d334146102f35780639a802a6d146102ee578063a7713a70146102e9578063a9a95294146102e4578063ab58fb8e146102df578063b58131b0146102da578063bc197c81146102d5578063c01f9e37146102d0578063c28bc2fa146102cb578063c4d66de8146102c6578063c59057e4146102c1578063da35c664146102bc578063dd4e2ba5146102b7578063ddf0b009146102b2578063deaaa7cc146102ad578063e540d01d146102a8578063e8a3d485146102a3578063eb9019d41461029e578063ece40cc114610299578063f23a6e6114610294578063f8ce560a1461028f578063fc0c546a1461028a5763fe0d94c10361000e5761159e565b611577565b61151d565b6114fe565b6114a5565b611489565b61144b565b611433565b6113cd565b6113b5565b61139a565b611371565b611352565b61133a565b611323565b6112e5565b6112c6565b611228565b61120d565b6111f1565b6111d6565b6111ba565b61115e565b611146565b6110ed565b6110ce565b611069565b610fd2565b610f9f565b610f19565b610ebc565b610e72565b610e53565b610dcd565b610cf0565b610c9c565b610c72565b610c35565b610c16565b610bfa565b610bbf565b610b98565b610b2c565b610af3565b610ac2565b610a5a565b610a40565b610a0f565b610896565b610687565b610525565b6104f2565b610469565b610416565b6103da565b6001600160e01b031981165b036103ab57565b600080fd5b905035906103bd82610398565b565b906020828203126103ab576103d3916103b0565b90565b9052565b346103ab576104076103f56103f03660046103bf565b6115b1565b60405191829182901515815260200190565b0390f35b60009103126103ab57565b346103ab5761042636600461040b565b610407610431611601565b6040515b9182918290815260200190565b806103a4565b905035906103bd82610442565b906020828203126103ab576103d391610448565b346103ab5761048161047c366004610455565b61161e565b604051005b60005b8381106104995750506000910152565b8181015183820152602001610489565b6104ca6104d36020936104dd936104be815190565b80835293849260200190565b95869101610486565b601f01601f191690565b0190565b60208082526103d3929101906104a9565b346103ab5761050236600461040b565b61040761050d61171f565b604051918291826104e1565b6001600160a01b031690565b346103ab5761040761054061053b366004610455565b61175f565b604051918291826001600160a01b03909116815260200190565b6001600160a01b0381166103a4565b905035906103bd8261055a565b634e487b7160e01b600052604160045260246000fd5b90601f01601f191681019081106001600160401b038211176105ad57604052565b610576565b906103bd6105bf60405190565b928361058c565b6001600160401b0381116105ad57602090601f01601f19160190565b90826000939282370152565b909291926106036105fe826105c6565b6105b2565b938185526020850190828401116103ab576103bd926105e2565b9080601f830112156103ab578160206103d3933591016105ee565b906080828203126103ab5761064d8183610569565b9261065b8260208501610569565b926106698360408301610448565b9260608201356001600160401b0381116103ab576103d3920161061d565b346103ab576104076106a661069d366004610638565b929190916117bd565b604051918291826001600160e01b0319909116815260200190565b6001600160401b0381116105ad5760208091020190565b909291926106e86105fe826106c1565b93818552602080860192028301928184116103ab57915b83831061070c5750505050565b6020809161071a8486610569565b8152019201916106ff565b9080601f830112156103ab578160206103d3933591016106d8565b909291926107506105fe826106c1565b93818552602080860192028301928184116103ab57915b8383106107745750505050565b602080916107828486610448565b815201920191610767565b9080601f830112156103ab578160206103d393359101610740565b9291906107b76105fe826106c1565b93818552602080860192028101918383116103ab5781905b8382106107dd575050505050565b81356001600160401b0381116103ab576020916107fd878493870161061d565b8152019101906107cf565b9080601f830112156103ab578160206103d3933591016107a8565b6080818303126103ab5780356001600160401b0381116103ab5782610849918301610725565b9260208201356001600160401b0381116103ab578361086991840161078d565b926040830135906001600160401b0382116103ab5761088d816103d3938601610808565b93606001610448565b346103ab576104076104316108ac366004610823565b929190916118a7565b906108d56108ce6108c4845190565b8084529260200190565b9260200190565b9060005b8181106108e65750505090565b90919261090c61090560019286516001600160a01b0316815260200190565b9460200190565b9291016108d9565b906109236108ce6108c4845190565b9060005b8181106109345750505090565b90919261094a6109056001928651815260200190565b929101610927565b906103d3916104a9565b90610972610968835190565b8083529160200190565b90816109846020830284019460200190565b926000915b83831061099857505050505090565b909192939460206109bb6109b483856001950387528951610952565b9760200190565b9301930191939290610989565b9493916103bd936109fc610a0a926109ee60609560808b01908b820360008d01526108b5565b9089820360208b0152610914565b90878203604089015261095c565b940152565b346103ab57610407610a2a610a25366004610455565b611bea565b90610a3794929460405190565b948594856109c8565b610407610431610a51366004610823565b92919091611cc7565b346103ab57610407610431610a70366004610455565b611e7c565b95949293610ab46103bd95610aa689608096610a99610a0a97600060a08501940152565b8b820360208d01526108b5565b9089820360408b0152610914565b90878203606089015261095c565b346103ab57610407610add610ad8366004610455565b611ed4565b91610aea95939560405190565b95869586610a75565b346103ab57610b0336600461040b565b6104077f3e83946653575f9a39005e1545185629e92736b7528ab20ca3816f315424a811610431565b346103ab57610b3c36600461040b565b610407610431611f0e565b634e487b7160e01b600052602160045260246000fd5b60081115610b6757565b610b47565b906103bd82610b5d565b6103d390610b6c565b6103d690610b76565b6020810192916103bd9190610b7f565b346103ab57610407610bb3610bae366004610455565b611f44565b60405191829182610b88565b346103ab57610481610bd2366004610455565b612066565b91906040838203126103ab576103d390610bf18185610448565b93602001610569565b346103ab576104076103f5610c10366004610bd7565b906120dc565b346103ab57610407610431610c2c366004610823565b92919091612125565b346103ab57610c4536600461040b565b61040761050d612238565b9081526060810193926103bd929091604091610c6e905b6020830152565b0152565b346103ab57610407610c8d610c88366004610455565b6122b3565b60405191939193849384610c50565b346103ab57610cac36600461040b565b61040761050d612312565b60ff81166103a4565b905035906103bd82610cb7565b91906040838203126103ab576103d390610ce78185610448565b93602001610cc0565b346103ab57610407610431610d06366004610ccd565b9061232c565b909182601f830112156103ab578135916001600160401b0383116103ab5760200192600183028401116103ab57565b919060c0838203126103ab57610d518184610448565b92610d5f8260208301610cc0565b92610d6d8360408401610569565b9260608301356001600160401b0381116103ab5781610d8d918501610d0c565b92909360808101356001600160401b0381116103ab5783610daf91830161061d565b9260a08201356001600160401b0381116103ab576103d3920161061d565b346103ab57610407610431610de3366004610d3b565b9594909493919361234a565b91906080838203126103ab57610e058184610448565b92610e138260208301610cc0565b9260408201356001600160401b0381116103ab5783610e33918401610d0c565b92909360608201356001600160401b0381116103ab576103d3920161061d565b346103ab57610407610431610e69366004610def565b9392909261247a565b346103ab57610407610431610e88366004610455565b612502565b65ffffffffffff81166103a4565b905035906103bd82610e8d565b906020828203126103ab576103d391610e9b565b346103ab57610481610ecf366004610ea8565b6125b3565b916060838303126103ab57610ee98284610448565b92610ef78360208301610cc0565b9260408201356001600160401b0381116103ab57610f159201610d0c565b9091565b346103ab57610407610431610f2f366004610ed4565b929190916125bc565b906080828203126103ab5781356001600160401b0381116103ab5781610f5f918401610725565b9260208301356001600160401b0381116103ab5782610f7f91850161078d565b9260408101356001600160401b0381116103ab5783610669918301610808565b346103ab57610407610431610fb5366004610f38565b9291909161261e565b906020828203126103ab576103d391610569565b346103ab57610407610431610fe8366004610fbe565b6126cf565b9395919461104561103d61105c9561102f611055956103d39c9a61102260e08c019260008d01906001600160f81b0319169052565b8a820360208c01526104a9565b9088820360408a01526104a9565b976060870152565b6001600160a01b03166080850152565b60a0830152565b60c0818403910152610914565b346103ab5761107936600461040b565b61040761108461277a565b9361109497959793919360405190565b97889788610fed565b906080828203126103ab576110b28183610448565b926110c08260208501610cc0565b926106698360408301610569565b346103ab576104076104316110e436600461109d565b9291909161285e565b346103ab576110fd36600461040b565b610407611108612910565b6040519182918265ffffffffffff909116815260200190565b906020828203126103ab5781356001600160401b0381116103ab576103d3920161061d565b346103ab57610481611159366004611121565b612b6d565b346103ab5761116e36600461040b565b610407610431612b9a565b916060838303126103ab5761118e8284610569565b9261119c8360208301610448565b9260408201356001600160401b0381116103ab576103d3920161061d565b346103ab576104076104316111d0366004611179565b91612ba4565b346103ab576111e636600461040b565b610407610431612baf565b346103ab576104076103f5611207366004610455565b50600090565b346103ab57610407610431611223366004610455565b612bdb565b346103ab5761123836600461040b565b610407610431612c0b565b91909160a0818403126103ab5761125a8382610569565b926112688160208401610569565b9260408301356001600160401b0381116103ab578261128891850161078d565b9260608101356001600160401b0381116103ab57836112a891830161078d565b9260808201356001600160401b0381116103ab576103d3920161061d565b346103ab576104076106a66112dc366004611243565b93929092612c13565b346103ab576104076104316112fb366004610455565b612c9a565b916060838303126103ab576113158284610569565b92610ef78360208301610448565b610481611331366004611300565b92919091612d68565b346103ab5761048161134d366004610fbe565b61301a565b346103ab57610407610431611368366004610823565b9291909161302c565b346103ab5761138136600461040b565b610407610431600080516020615a148339815191525490565b346103ab576113aa36600461040b565b61040761050d6130a4565b346103ab576104816113c8366004610455565b6130ac565b346103ab576113dd36600461040b565b6104077ff2aad550cf55f045cb27e9c559f9889fdfb6e6cdaa032301d6ea397784ae51d7610431565b63ffffffff81166103a4565b905035906103bd82611406565b906020828203126103ab576103d391611412565b346103ab5761048161144636600461141f565b613105565b346103ab5761145b36600461040b565b61040761050d61310e565b91906040838203126103ab576103d3906114808185610569565b93602001610448565b346103ab5761040761043161149f366004611466565b9061311b565b346103ab576104816114b8366004610455565b613142565b91909160a0818403126103ab576114d48382610569565b926114e28160208401610569565b926114f08260408501610448565b926112a88360608301610448565b346103ab576104076106a66115143660046114bd565b9392909261314b565b346103ab57610407610431611533366004610455565b613182565b6103d390610519906001600160a01b031682565b6103d390611538565b6103d39061154c565b6103d690611555565b6020810192916103bd919061155e565b346103ab5761158736600461040b565b61040761159261318b565b60405191829182611567565b6104816115ac366004610455565b6131b6565b806115cc6332a2ad4360e11b5b916001600160e01b03191690565b1480156115e9575b9081156115df575090565b6103d39150613218565b50806115fb630271189760e51b6115be565b146115d4565b6103d3613255565b6103bd90611615613285565b6103bd90613325565b6103bd90611609565b634e487b7160e01b600052602260045260246000fd5b906001600283049216801561165d575b602083101461165857565b611627565b91607f169161164d565b8054600093929161168461167a8361163d565b8085529360200190565b91600181169081156116d6575060011461169d57505050565b6116b09192939450600052602060002090565b916000925b8184106116c25750500190565b8054848401526020909301926001016116b5565b92949550505060ff1916825215156020020190565b906103d391611667565b906103bd61170f9261170660405190565b938480926116eb565b038361058c565b6103d3906116f5565b6103d36000600080516020615a748339815191525b01611716565b6103d36103d36103d39290565b906117519061173a565b600052602052604060002090565b60006117896103d392611770600090565b506001600080516020615a748339815191525b01611747565b01546001600160a01b031690565b6117b06117aa6103d39263ffffffff1690565b60e01b90565b6001600160e01b03191690565b505050506117c9600090565b506117d26133d8565b6117ee6117e161051930611555565b916001600160a01b031690565b03611800576103d363150b7a02611797565b637485328f60e11b60009081528060045b0390fd5b6118226103d36103d39290565b65ffffffffffff1690565b9065ffffffffffff905b9181191691161790565b6118226103d36103d39265ffffffffffff1690565b906118666103d361186d92611841565b825461182d565b9055565b6103d36103d36103d39265ffffffffffff1690565b6103d690611871565b9081526040810192916103bd916020905b0190611886565b6118f291936118b4600090565b50600080516020615a74833981519152936118d18282888661302c565b956118e6876118e060046133fa565b90613442565b50869390919293613490565b908161190d6119016000611815565b9165ffffffffffff1690565b1461196b5761192c906001611926818593018690611747565b01611856565b81907f9a2e42fd6722813d69113e7d0079d3d940171428df7373df9c7f7617cfda28929161196561195c60405190565b9283928361188f565b0390a190565b634844252360e11b6000908152600490fd5b9061199861198c6108c4845490565b92600052602060002090565b9060005b8181106119a95750505090565b9091926119de6119d76001926119c687546001600160a01b031690565b6001600160a01b0316815260200190565b9460010190565b92910161199c565b906103d39161197d565b906103bd61170f92611a0160405190565b938480926119e6565b6103d39081565b6103d39054611a0a565b90611a2a61198c6108c4845490565b9060005b818110611a3b5750505090565b909192611a586119d7600192611a5087611a11565b815260200190565b929101611a2e565b906103d391611a1b565b906103bd61170f92611a7b60405190565b93848092611a60565b90611a916105fe836106c1565b918252565b80546000939291611aa961167a8361163d565b91600181169081156116d65750600114611ac257505050565b611ad59192939450600052602060002090565b916000925b818410611ae75750500190565b805484840152602090930192600101611ada565b906103d391611a96565b906103bd61170f92611b1660405190565b93848092611afb565b6103d390611b05565b90611b31825490565b611b3a81611a84565b92611b4e6020850191600052602060002090565b6000915b838310611b5f5750505050565b600160208192611b6e85611b1f565b815201920192019190611b52565b6103d360806105b2565b906103bd611bda6003611b97611b7c565b94611ba8611ba4826119f0565b8752565b611bbe611bb760018301611a6a565b6020880152565b611bd4611bcd60028301611b28565b6040880152565b01611a11565b6060840152565b6103d390611b86565b611c0f611c0a6001600080516020615a148339815191525b018390611747565b611be1565b90611c1b606083015190565b611c2c611c28600061173a565b9190565b14611c5457506000810151602082015192611c4d6060604085015194015190565b9193929190565b636ad0607560e01b6000908152600491909152602490fd5b9060ff60f01b9060f01b611837565b90611c8b6103d361186d92151590565b8254611c6c565b634e487b7160e01b600052603260045260246000fd5b90611cb1825190565b811015611cc2576020809102010190565b611c92565b909290600080516020615a7483398151915291611ce68185878561302c565b93611d0685611cf560046133fa565b611cff60056133fa565b1790613442565b50611d2060016000611d1a88888401611747565b01611c7b565b611d286133d8565b611d376117e161051930611555565b03611dcd575b8495611d4e949593909192936135e5565b611d566133d8565b611d656117e161051930611555565b141580611db4575b611da2575b50806119657f712ae1383f79ac853f8d882153778e0260ef8f03b504e2866e0593e04d2b291f9161043560405190565b611dae906002016136a2565b38611d72565b50611dc8611dc460028301613661565b1590565b611d6d565b929390611dda600061173a565b80611de9611c286103d3875190565b1015611e5d57611e2790611e0d611e008287611ca8565b516001600160a01b031690565b611e1c6117e161051930611555565b14611e2c5760010190565b611dda565b611e5760028801611e3d8389611ca8565b51611e50611e49825190565b9160200190565b2090613562565b60010190565b50909392611d3d565b6103d39060a01c611822565b6103d39054611e66565b611e966000611e906103d393611770600090565b01611e72565b611871565b8054821015611cc257611eb5600191600052602060002090565b91020190600090565b6103d3916008021c81565b906103d39154611ebe565b611ef8611efe91611ee3600090565b50600080516020615a14833981519152611e9b565b90611ec9565b90611f0882611bea565b90919293565b6103d36136c4565b6103d39060f01c5b60ff1690565b6103d39054611f16565b6103d39060f81c611f1e565b6103d39054611f2e565b611f606103d36001600080516020615a74833981519152611c02565b611f756000611f6e83611f24565b9201611f3a565b906120445761203e57611f8781611e7c565b80611f95611c28600061173a565b1461202757611fa5611e96612910565b9081111561202057611fc0611c28611fbc84612c9a565b9290565b10611fcb5750600190565b611fd7611dc4826136ed565b801561200e575b15611fe95750600390565b611ff290612bdb565b611fff611c28600061173a565b0361200957600490565b600590565b5061201b611dc482613751565b611fde565b5050600090565b636ad0607560e01b60009081526004839052602490fd5b50600290565b5050600790565b6103d3906119f0565b6103d390611a6a565b6103d390611b28565b6120876103d36120bc926001611783600080516020615a1483398151915290565b60018101600282016120b66120b06120aa6120a460038701611a11565b9561204b565b93612054565b9161205d565b91612125565b50565b9061175190611555565b6103d390611f1e565b6103d390546120c9565b6103d391600361211a612120936120f1600090565b5060007fa1cefa0f43667ef127a258e673c94202a79b656e62899531c4376d87a7f39800611783565b016120bf565b6120d2565b9290916121348282858761302c565b612142816118e060006133fa565b506121536117e1610519339361175f565b03612165576103d39392909192613813565b63233d98e360e01b600090815233600452602490fd5b9092919261218b6105fe826105c6565b938185526020850190828401116103ab576103bd92610486565b9080601f830112156103ab5781516103d39260200161217b565b906020828203126103ab5781516001600160401b0381116103ab576103d392016121a5565b6040513d6000823e3d90fd5b90611a916105fe836105c6565b612207601d6121f0565b7f6d6f64653d626c6f636b6e756d6265722666726f6d3d64656661756c74000000602082015290565b6103d36121fd565b606090612268600061225061224b61318b565b611555565b634bf5d7e99061225f60405190565b93849260e01b90565b825260049082905afa6000918161228e575b5061228a575090506103d3612230565b9150565b6122ac9192503d806000833e6122a4818361058c565b8101906121bf565b903861227a565b6103d36122ca916122c2600090565b5060006120f1565b906122d482611a11565b906122ed60026122e660018601611a11565b9401611a11565b91929190565b6122fd60016121f0565b603160f81b602082015290565b6103d36122f3565b6103d361230a565b6103d360006121f0565b6103d361231a565b6103d39133612339612324565b926138ba565b6103d39136916105ee565b909193949695611dc48561243d9261243686612425876124168f8e9061236e600090565b508d896123ae6123a87f3e83946653575f9a39005e1545185629e92736b7528ab20ca3816f315424a8119799956123a4846138e0565b9491565b9061233f565b6123b9611e49825190565b20926123c6611e49825190565b20936123d160405190565b98899760208901908152602081019190915260ff90911660408201526001600160a01b03909116606082015260e081019493929091608083015260a082015260c00152565b6020820181038252038261058c565b612430611e49825190565b20613903565b9091613940565b61245b576103d395966124559194929395909561233f565b92613a26565b6394ab6c0760e01b60009081526001600160a01b038516600452602490fd5b91906124556103d39561248b600090565b5033929395909561233f565b634e487b7160e01b600052601160045260246000fd5b919082039182116124ba57565b612497565b6103d390611822565b6103d390546124bf565b6103d39060301c5b6001600160d01b031690565b6103d390546124d2565b6103d39081906001600160d01b031681565b7fe770710421fd2cad75ad828c61aa98f2d77d423a440b67872d0f65554148e000805461254d906125499083906125439061253d600161173a565b906124ad565b90611e9b565b5090565b612562600061255b836124c8565b92016124e6565b9061256e845b91611871565b111561259257506103d39161258d916125879091613b28565b90613b73565b6124f0565b90506103d391506124f0565b6103bd906125aa613285565b6103bd90613c54565b6103bd9061259e565b91906123396103d3946125cd600090565b5033929361233f565b6125e79065ffffffffffff16611901565b90039065ffffffffffff82116124ba57565b6001600160a01b0390911681526060810193926103bd929091604091610c6e90610c67565b93929091903391612632611dc48385613cd5565b6126b05761263e612c0b565b958661264d611c28600061173a565b11612663575b6103d39596509390919293613d70565b6126858461149f611e96612675612910565b61267f6001611815565b906125d6565b8781106126925750612653565b636121770b60e11b6000908152908190611811908a908860046125f9565b63d9b3955760e01b60009081526001600160a01b038416600452602490fd5b6127076103d3916126de600090565b5060007f5ab42ced628888259c08ac98db1eb0cf702fc1501344311d8b100cd1bfe4bb0061211a565b611a11565b1561271357565b60405162461bcd60e51b81526020600482015260156024820152741152540dcc4c8e88155b9a5b9a5d1a585b1a5e9959605a1b6044820152606490fd5b369037565b906103bd61276283611a84565b9260208061277086936106c1565b9201910390612750565b6127b0600080516020615a3483398151915261279581611a11565b6127a2611c28600061173a565b1490816127f8575b5061270c565b6127b8613d7d565b906127c1613d96565b9046906127cd30611555565b906127d8600061173a565b906127eb6127e6600061173a565b612755565b600f60f81b969594939291565b6128059150600101611a11565b612812611c28600061173a565b14386127aa565b909594926103bd9461284e610c6e9261284460809661283d60a088019c6000890152565b6020870152565b60ff166040850152565b6001600160a01b03166060830152565b909192611dc46128bf91612870600090565b508590612436856124257ff2aad550cf55f045cb27e9c559f9889fdfb6e6cdaa032301d6ea397784ae51d76124168a876128a9816138e0565b916128b360405190565b96879560208701612819565b6128d057906103d392612339612324565b6394ab6c0760e01b60009081526001600160a01b038416600452602490fd5b905051906103bd82610e8d565b906020828203126103ab576103d3916128ef565b600090612932602061292361224b61318b565b6391ddadf49061225f60405190565b825260049082905afa60009181612954575b5061228a575090506103d3613daf565b61297691925060203d811161297d575b61296e818361058c565b8101906128fc565b9038612944565b503d612964565b1561298b57565b60405162461bcd60e51b815260206004820152601c60248201527f4f6e6c79207468652044414f2063616e207365742074686520555249000000006044820152606490fd5b634e487b7160e01b600052600060045260246000fd5b9160001960089290920291821b911b611837565b9190612a0b6103d361186d9361173a565b9083546129e6565b6103bd916000916129fa565b818110612a2a575050565b80612a386000600193612a13565b01612a1f565b9190601f8111612a4d57505050565b612a5f6103bd93600052602060002090565b906020601f840181900483019310612a82575b6020601f909101045b0190612a1f565b9091508190612a72565b600019600883021c1916906002021790565b90612aa7815190565b906001600160401b0382116105ad57612aca82612ac4855461163d565b85612a3e565b602090601f8311600114612af85761186d929160009183612aed575b5050612a8c565b015190503880612ae6565b601f19831691612b0d85600052602060002090565b9260005b818110612b4b57509160029391856001969410612b32575b50505002019055565b01516000196008601f8516021c19169055388080612b29565b91936020600181928787015181550195019201612b11565b906103bd91612a9e565b6103bd90612b8a33612b846117e161051930611555565b14612984565b6000612b94613e21565b01612b63565b6103d3606461173a565b6103d3929190613e67565b6103d361258d7fe770710421fd2cad75ad828c61aa98f2d77d423a440b67872d0f65554148e000613ee9565b611e966001612c056103d393612bef600090565b5082600080516020615a74833981519152611783565b016124c8565b6103d3613ef0565b5050505050612c20600090565b50612c296133d8565b612c386117e161051930611555565b03611800576103d363bc197c81611797565b6103d39060d01c5b63ffffffff1690565b6103d39054612c4a565b6118226103d36103d39263ffffffff1690565b612c899065ffffffffffff16611901565b019065ffffffffffff82116124ba57565b611e966103d391612ca9600090565b50612ce9612ce46000612cde600080516020615a74833981519152946001612cd784611e9084848b01611747565b9601611747565b01612c5b565b612c65565b90612c78565b906103bd939291612cfe613285565b612d3c565b90916104dd90839080936105e2565b90916103d392612d03565b3d15612d3757612d2c3d6121f0565b903d6000602084013e565b606090565b6040516120bc946000948594918391612d56919083612d12565b03925af1612d62612d1d565b90613f09565b906103bd939291612cef565b6103d39060401c611f1e565b6103d39054612d74565b6103d3905b6001600160401b031690565b6103d39054612d8a565b612d8f6103d36103d39290565b906001600160401b0390611837565b612d8f6103d36103d3926001600160401b031690565b90612de76103d361186d92612dc1565b8254612db2565b9068ff00000000000000009060401b611837565b90612e126103d361186d92151590565b8254612dee565b6103d690612da5565b6020810192916103bd9190612e19565b7ff0c57e16840df040f15088dc2f81fe391c3923bec73e23a9662efc9c229c6a0090612e60611dc483612d80565b90612e6a83612d9b565b80612e85612e786000612da5565b916001600160401b031690565b1480612f70575b90612e9a612e786001612da5565b1480612f4d575b90155b9081612f44575b50612f3257612ed190612ec7612ec16001612da5565b85612dd7565b82612f2257612fab565b612ed85750565b612ee490600090612e02565b6001612f1d7fc7f505b2f371ae2175ee4913f4499e1f2633a7b5936321eed1cdaeb6115181d291612f1460405190565b91829182612e22565b0390a1565b612f2d600185612e02565b612fab565b63f92ee8a960e01b6000908152600490fd5b15905038612eab565b50612ea4612f5a30611555565b3b612f68611c28600061173a565b149050612ea1565b5082612e8c565b612f8160096121f0565b68574f524c445f44414f60b81b602082015290565b6103d3612f77565b612c526103d36103d39290565b61300890612fbf612fba612f96565b613f3d565b612ff36224ea00670de0b6b3a7640000612fed612fe7612fe1620fd200611815565b93612f9e565b9161173a565b91613f5f565b612ffb613f72565b613003613f72565b613f8f565b6103bd613015604261173a565b613fad565b6103bd90612e32565b6103d39061173a565b906124166103d39461305893613040600090565b50929461304c60405190565b958694602086016109c8565b613063611e49825190565b20613023565b61307360206121f0565b7f737570706f72743d627261766f2671756f72756d3d666f722c6162737461696e602082015290565b6103d3613069565b6103d361309c565b6130cd6103d36120bc926001611783600080516020615a1483398151915290565b60018101600282016130ea6120b06120aa6120a460038701611a11565b916118a7565b6103bd906130fc613285565b6103bd90614039565b6103bd906130f0565b6103d36000611734613e21565b6103d3916131276140d1565b91613e67565b6103bd90613139613285565b6103bd906140d9565b6103bd9061312d565b5050505050613158600090565b506131616133d8565b6131706117e161051930611555565b03611800576103d363f23a6e61611797565b6103d39061416a565b6103d360007f3ba4977254e415696610a40ebf2258dbfa0ec6a2ff64e84bfe715ff16977cc00611789565b6131d76103d36120bc926001611783600080516020615a1483398151915290565b60018101600282016131f46120b06120aa6120a460038701611a11565b91611cc7565b6132026133d8565b6132116117e161051930611555565b0361180057565b6132286301ffc9a760e01b6115be565b1490565b6103d39060301c612c52565b6103d3905461322c565b6103d36103d36103d39263ffffffff1690565b6103d36132807ed7616c8fe29c6c2fbe1d0c5bc8f2faa4c35b43746e70b24b4d532752affd01613238565b613242565b600080516020615a7483398151915261329c6133d8565b6132a86117e133610519565b036132fc576132b56133d8565b6132c46117e161051930611555565b036132cc5750565b6132d76000366123a8565b6132e2611e49825190565b20905b6132f16002820161422a565b8290036132e5575050565b6347096e4760e01b600090815233600452602490fd5b9081526040810192916103bd9160200152565b7fe770710421fd2cad75ad828c61aa98f2d77d423a440b67872d0f65554148e00061334e612b9a565b8083116133bc575061338261336b6000613366612baf565b930190565b613373612910565b61337c85614289565b916142c8565b5050907f0553476bf02ef2726e8ce5ced78d63e26e602e4a2257b1f559418e24b463399791612f1d6133b360405190565b92839283613312565b63243e544560e01b600090815290819061181190856004613312565b6103d330611555565b6103d3906133f5611c286103d39460ff1690565b901b90565b61341d6103d391613409600090565b50613418612fe7600192610b76565b6133e1565b61173a565b9081526060810193926103bd929091604091610c6e906020830190610b7f565b9061344c82611f44565b91613456836133fa565b8216613468611c286103d3600061173a565b1461347257505090565b6331b75e4d60e01b6000908152918291611811919085906004613422565b505050505061349d600090565b506103d36000611815565b6103d39060801c5b6001600160801b031690565b6103d390546134a8565b6134b06103d36103d39290565b6103d3906134b0565b6103d390546134d3565b6103d3604161173a565b6134b06103d36103d3926001600160801b031690565b90611751906134f0565b9060001990611837565b906135286103d361186d9290565b8254613510565b906fffffffffffffffffffffffffffffffff199060801b611837565b9061355b6103d361186d926134f0565b825461352f565b61356b816134bc565b6135868161357960016134c6565b016001600160801b031690565b6135a26135956134b0856134dc565b916001600160801b031690565b146135d8576135d16000916135c76103bd956135c2600187018490613506565b61351a565b61357960016134c6565b910161354b565b6135e06134e6565b6142e7565b50909392506135f4600061173a565b80613603611c286103d3855190565b101561365a576136559061364e600080613620611e008588611ca8565b61363161362d868c611ca8565b5190565b61363b868a611ca8565b5190602082019151925af1612d62612d1d565b5060010190565b6135f4565b5050509050565b6132286135956134b06000613675856134bc565b94016134dc565b906001600160801b0390611837565b9061369b6103d361186d926134f0565b825461367c565b6103bd906136b96136b360006134c6565b8261368b565b60006135d1816134c6565b6103d3611e966001600080516020615a54833981519152612c05565b919082018092116124ba57565b61374c611c286103d361372d61153361372783877fa1cefa0f43667ef127a258e673c94202a79b656e62899531c4376d87a7f39800611747565b95611e7c565b93613746600261373f60018401611a11565b9201611a11565b906136e0565b111590565b6103d3613760916120f1600090565b613777611c286103d360006122e660018601611a11565b1190565b611f1e6103d36103d39290565b6137979060ff165b9160ff1690565b019060ff82116124ba57565b60ff1660ff81116124ba5760020a90565b6103d361341d6137df6137da6137ca6007610b76565b6137d4600161377b565b90613788565b6137a3565b61253d600161173a565b906001600160f81b03199060f81b611837565b9061380c6103d361186d92151590565b82546137e9565b929061383f9161388b93613825600090565b50600080516020615a74833981519152959290919261302c565b916138738361384c6137b4565b61385660026133fa565b1861386160066133fa565b1861386c60076133fa565b1890613442565b50600061388560018093018590611747565b016137fc565b806119657f789cf55be980739dad1d0699b93b58e806b51c9d96619bfa8fe0a28abaa7b30c9161043560405190565b6103d393909290916138ca6140d1565b93613a26565b906135286103d361186d9261173a565b6138eb9060006126de565b6103d36138f782611a11565b91600183015b906138d0565b6103d39061390f6142f8565b6042916040519161190160f01b8352600283015260228201522090565b60041115610b6757565b906103bd8261392c565b9190823b613951611c28600061173a565b036139975790613960916143cf565b509190916139776139716000613936565b91613936565b14918261398357505090565b9150613228906001600160a01b03166117e1565b6103d392614318565b936139d06103d396946139c96139dd956139bf60a08a019660008b0152565b60ff166020890152565b6040870152565b84820360608601526104a9565b9160808184039101526104a9565b9092613a1990613a126103d39694613a0860808601976000870152565b60ff166020850152565b6040830152565b60608184039101526104a9565b9190613a36836118e060016133fa565b50613a58613a4e82613a4786611e7c565b8891613e67565b869084848761446b565b94613a61815190565b613a6e611c28600061173a565b03613abd575091613ab78594613aa47fb8e138887d0aa13bab447e82de9d5c1777041ecd21ca36ba824ff1e6c07ddda495611555565b95613aae60405190565b948594856139eb565b0390a290565b85947fe2babfbac5889a709b63bb7f598b324e08bc5a4fb9ec647fb3cbc9ec07eb87129492613ab7929190613af190611555565b96613afb60405190565b958695866139a0565b6103d69061377b565b9160206103bd929493610c6e60408201966000830190613b04565b80613b3b611c2865ffffffffffff611871565b11613b49576103d390611815565b6306dfcc6560e41b60009081529081906118119060306004613b0d565b6124da6103d36103d39290565b90613ba2908254613b84600061173a565b908080613b94611c28600561173a565b11613bf0575b5091846147a2565b80613bb0611c28600061173a565b03613bc15750506103d36000613b66565b613bea600091613bde611c28846103d396019261253d600161173a565b60005260206000200190565b016124e6565b613bfd9061253d81614578565b9083613c146119016118226000612c05878c613bde565b1015613c245750905b9038613b9a565b9150613c3490613746600161173a565b613c1d565b9160206103bd9294936118a060408201966000830190611886565b6103bd90600080516020615a5483398151915290600190613c937ed7616c8fe29c6c2fbe1d0c5bc8f2faa4c35b43746e70b24b4d532752affd016124c8565b817fc565b045403dc03c2eea82b81a0465edad9e2e7fc4d97e11421c209da93d7a9391613ccb613cc260405190565b92839283613c39565b0390a19101611856565b81519182613ce6611c28603461173a565b10613d6857613d1a613d0d82613d0586613d00603461173a565b900390565b016020015190565b6001600160b01b03191690565b692370726f706f7365723d60b01b906001600160b01b03191603613d6857613d5c92613d569190613d4f81613d00602a61173a565b9091614826565b92901590565b91821561398357505090565b505050600190565b6103d39493929190614e3c565b6103d36002600080516020615a34833981519152611734565b6103d36003600080516020615a34833981519152611734565b6103d343613b28565b612416613dfd613dea6137df7ff9244010f36f9c83ef9dc96efea4f7821556ecdb5989f81dbf22ac0984b4de20613023565b6040519283916020830190815260200190565b613e08611e49825190565b20613e1d613e1961341d60ff61173a565b1990565b1690565b6103d3613db8565b905051906103bd82610442565b906020828203126103ab576103d391613e29565b6001600160a01b0390911681526040810192916103bd9160200152565b9150602090613e7761224b61318b565b613e9b633a46b1a8949294613ea6613e8e60405190565b9687958694859460e01b90565b845260048401613e4a565b03915afa908115613ee457600091613ebc575090565b6103d3915060203d8111613edd575b613ed5818361058c565b810190613e36565b503d613ecb565b6121e4565b8054613ba2565b6103d36000600080516020615a54833981519152611bd4565b9091906103bd5750614ec7565b6103bd90613f22614ef6565b6103bd90613f3881613f32612312565b90614f7e565b614fae565b6103bd90613f16565b906103bd9291613f54614ef6565b6103bd929190614fe0565b906103bd9291613f46565b6103bd614ef6565b6103bd613f6a565b6103bd90613f86614ef6565b6103bd9061505c565b6103bd90613f7a565b6103bd90613fa4614ef6565b6103bd90615071565b6103bd90613f98565b6103d69061173a565b6020810192916103bd9190613fb6565b6103d690613242565b9160206103bd929493613ff360408201966000830190613fcf565b0190613fcf565b9069ffffffff0000000000009060301b611837565b612c526103d36103d39263ffffffff1690565b906140326103d361186d9261400f565b8254613ffa565b600080516020615a54833981519152816140606140566000612f9e565b9163ffffffff1690565b146140b85760016103bd92614076828401613238565b817f7e3f7f0708a84de9203036abaa450dccc85ad5ff52f78c170f3edb55cf5e8828916140ae6140a560405190565b92839283613fd8565b0390a19101614022565b63f1cfbf0560e01b600090815280611811816004613fbf565b6103d3612324565b6103bd90600080516020615a54833981519152906000906140f983611a11565b817fccb45da8d5717e6c4544694297c4ba5cf151d455c9bb0ed4fc7a38411bc05461916141286133b360405190565b0390a191016138d0565b818102929181159184041417156124ba57565b634e487b7160e01b600052601260045260246000fd5b8115614165570490565b614145565b6141a9602061417a61224b61318b565b638e539e8c9061419b859261418e60405190565b9586948593849360e01b90565b835260048301526024820190565b03915afa8015613ee4576103d3926141d3926000926141e1575b506141cd90612502565b90614132565b6141db612b9a565b9061415b565b6141cd9192506141fe9060203d8111613edd57613ed5818361058c565b91906141c3565b6103d3603161173a565b9190612a0b6103d361186d9390565b6103bd9160009161420f565b90614234826134dc565b91826142456135956134b0846134bc565b14614281576103bd90600061427a6142636127078760018601613506565b956135c7836142758360018801613506565b61421e565b910161368b565b6135e0614205565b8061429d611c286001600160d01b036124f0565b116142ab576103d390613b66565b6306dfcc6560e41b60009081529081906118119060d06004613b0d565b916142e26000610f15946142da600090565b500192919290565b615138565b634e487b716000526020526024601cfd5b6103d3615269565b9081526040602082018190526103d3929101906104a9565b906000926143508493614329600090565b509261241661433760405190565b630b135d3f60e11b602082015293849260248401614300565b602081019051915afa614361612d1d565b90806143a2575b9081614372575090565b61438c91506020614381825190565b818301019101613e36565b613228611c286103d3630b135d3f60e11b6117b0565b5080516143b2611c28602061173a565b1015614368565b6105196103d36103d39290565b6103d3906143b9565b90919082516143e1611c28604161173a565b036144155761440e91926143f3600090565b5060208101516060604083015192015160001a9091926152ef565b9192909190565b5061442060006143c6565b906122ed61341d6002945190565b9060ff90611837565b906144476103d361186d92151590565b825461442e565b60031115610b6757565b906103bd8261444e565b6103d390614458565b61447e919394506103d3906120f1600090565b9161448f61212082600386016120bf565b61453e576144ab906144a6600191600386016120bf565b614437565b806144bc613790611f1e6000614462565b036144d857506103d3906138fd836144d383611a11565b6136e0565b806144e9613790611f1e6001614462565b0361450357506103d3906001016138fd836144d383611a11565b614513613790611f1e6002614462565b0361452c576103d3906002016138fd836144d383611a11565b6303599be160e11b6000908152600490fd5b6371c6af4960e01b60009081526001600160a01b0391909116600452602490fd5b6103d390614573611c286103d39460ff1690565b901c90565b80614586611c28600161173a565b11156103d3576103d390613d006146ab61466c61467c816146a1816146978161468d818b6104dd614686838b81856145be600161173a565b90806145d0611c28600160801b61173a565b1015614780575b806145e8611c28600160401b61173a565b101561475e575b80614601611c2864010000000061173a565b101561473c575b80614618611c286201000061173a565b101561471a575b8061462e611c2861010061173a565b10156146f8575b80614643611c28601061173a565b10156146d6575b614657611c28600461173a565b10156146bd575b614668600361173a565b0290565b614676600161377b565b9061455f565b6104dd818661415b565b809261415b565b6104dd818c61415b565b6104dd818a61415b565b6104dd818861415b565b91613777611c286103d385809461415b565b6146d1906146cb600161377b565b906133e1565b61465e565b6146e76146f291614676600461377b565b916146cb600261377b565b9061464a565b61470961471491614676600861377b565b916146cb600461377b565b90614635565b61472b61473691614676601061377b565b916146cb600861377b565b9061461f565b61474d61475891614676602061377b565b916146cb601061377b565b90614608565b61476f61477a91614676604061377b565b916146cb602061377b565b906145ef565b61479161479c91614676608061377b565b916146cb604061377b565b906145d7565b939190926147ae600090565b505b80821015614811576147c281836153a4565b906147da6000612c0588859060005260206000200190565b6147eb65ffffffffffff8716611901565b11156147fa5750915b916147b0565b92915061480b90613746600161173a565b906147f4565b925050915090565b6001600160f01b03191690565b90919081614838611c286103d3845190565b1180156148fa575b6148b65781614859611c286103d386613746600161173a565b11806148c6575b61487f906144d3612fe7614875602893151590565b6141cd600261173a565b61488f611c28611fbc86866124ad565b036148b6576148b193926103d3926148a9929190916153d3565b9390936143b9565b61154c565b5050506000906103d360006143c6565b5061487f6148da6148198584016020015190565b6148f261060f60f31b5b916001600160f01b03191690565b149050614860565b50818311614840565b90815491600160401b8310156105ad57826149269160016103bd95018155611e9b565b906129fa565b818110614937575050565b806149456000600193612a13565b0161492c565b9061495e90600019906020036008021c90565b8154169055565b909182811061497357505050565b6103bd92906149819061198c565b908101910161492c565b90600160401b81116105ad57816149a36103bd935490565b90828155614965565b8151916001600160401b0383116105ad576149d661198c6001926149d0868661498b565b60200190565b92049160005b8381106149e95750505050565b6001906020614a026103d386516001600160a01b031690565b94019381840155016149dc565b906103bd916149ac565b818110614a24575050565b80614a326000600193612a13565b01614a19565b9091828110614a4657505050565b6103bd9290614a549061198c565b9081019101614a19565b90600160401b81116105ad5781614a766103bd935490565b90828155614a38565b8151916001600160401b0383116105ad57614aa361198c6001926149d08686614a5e565b92049160005b838110614ab65750505050565b6001906020614ac66103d3865190565b9401938184015501614aa9565b906103bd91614a7f565b90600091614afb614af382600052602060002090565b928354612a8c565b905555565b9192906020821015614b5857601f8411600114614b225761186d929350612a8c565b5090614b536103bd936001614b4a614b3f85600052602060002090565b92601f602091010490565b82019101612a1f565b614add565b50614b918293614b6f600194600052602060002090565b612a7b6020601f860104820192601f861680614b99575b50601f602091010490565b600202179055565b614ba59088860361494b565b38614b86565b929091600160401b82116105ad5760201115614bf2576020811015614bd35761186d91612a8c565b60019160ff1916614be984600052602060002090565b55600202019055565b60019150600202019055565b908154614c0a8161163d565b90818311614c33575b818310614c21575b50505050565b614c2a93614b00565b38808080614c1b565b614c3f83838387614bab565b614c13565b60006103bd91614bfe565b90600003614c60576103bd90614c44565b6129d0565b818110614c70575050565b80614c7e6000600193614c4f565b01614c65565b9091828110614c9257505050565b6103bd9290614ca09061198c565b9081019101614c65565b90600160401b81116105ad5781614cc26103bd935490565b90828155614c84565b90614cd4815190565b906001600160401b0382116105ad57614cf182612ac4855461163d565b602090601f8311600114614d135761186d929160009183612aed575050612a8c565b601f19831691614d2885600052602060002090565b9260005b818110614d4c57509160029391856001969410612b325750505002019055565b91936020600181928787015181550195019201614d2c565b906103bd91614ccb565b614d93614d87614d7c845190565b936149d08585614caa565b91600052602060002090565b6000915b838310614da45750505050565b6001602082614dbb614db584955190565b86614d64565b01920192019190614d97565b906103bd91614d6e565b90614e2c606060036103bd94614df560008201614def600088015190565b90614a0f565b614e0d60018201614e07602088015190565b90614ad3565b614e2560028201614e1f604088015190565b90614dc7565b0192015190565b9061351a565b906103bd91614dd1565b93600190614eba614ec29394614eb36103d397614e57600090565b50611bcd614e8f614e7e600080516020615a14833981519152978d908c8890879293615648565b9b614e898d89614903565b99949290565b614e9a611e49825190565b2093614eac614ea7611b7c565b9a8b52565b60208a0152565b6060860152565b018490611747565b614e32565b8051614ed6611c28600061173a565b1115614ee457805190602001fd5b63d6bda27560e01b6000908152600490fd5b614f01611dc461580c565b614f0757565b631afcd79f60e31b6000908152600490fd5b906103bd91614f26614ef6565b614f586103bd92614f4f614f45600080516020615a3483398151915290565b9360028501612b63565b60038301612b63565b614f6b614f65600061173a565b8261351a565b6001614f77600061173a565b910161351a565b906103bd91614f19565b6103bd90614f94614ef6565b6103bd906000600080516020615a74833981519152612b94565b6103bd90614f88565b906103bd9291614fc5614ef6565b6103bd9291614fd6614fdb92613c54565b614039565b6140d9565b906103bd9291614fb7565b6103bd90614ff7614ef6565b615022565b906001600160a01b0390611837565b9061501b6103d361186d92611555565b8254614ffc565b6103bd90600061505561224b7f3ba4977254e415696610a40ebf2258dbfa0ec6a2ff64e84bfe715ff16977cc0093611555565b910161500b565b6103bd90614feb565b6103bd90611615614ef6565b6103bd90615065565b6103d360406105b2565b9065ffffffffffff199060301b611837565b6103d3906124da906001600160d01b031682565b906150ba6103d361186d92615096565b8254615084565b6103bd91906150fa906020906000906150ea816150e4875165ffffffffffff1690565b90611856565b019201516001600160d01b031690565b906150aa565b9190614c60576103bd916150c1565b90815491600160401b8310156105ad57826151329160016103bd95018155611e9b565b90615100565b9192919081548061514c611c28600061173a565b111561520a5761517290615165849161253d600161173a565b9060005260206000200190565b9061517c826124c8565b92615186836124e6565b938061519965ffffffffffff8516611901565b116151f8576151af65ffffffffffff8416611901565b036151c15750611c28918591506150aa565b611c2892506151f3866151e36151d561507a565b65ffffffffffff9095168552565b6001600160d01b03166020840152565b61510f565b632520601d60e01b6000908152600490fd5b5061521e916151f3856151e36151d561507a565b611c286000613b66565b909594926103bd9461525361525a9261524c60809661283d60a088019c6000890152565b6040850152565b6060830152565b01906001600160a01b03169052565b7f8b73c3c69bb8fe3d512ecc4cf759cc79239f7b179b0ffacaa9a75d522b39400f6152c1615295615835565b916124166152a16158ad565b466152ab30611555565b916152b560405190565b96879560208701615228565b6152cc611e49825190565b2090565b610c6e6103bd94613a12606094989795613a08608086019a6000870152565b9293926152fb85613023565b615327611c287f7fffffffffffffffffffffffffffffff5d576e7357a4501ddfe92f46681b20a061173a565b116153915760405193946020946000946153459291948594856152d0565b838052039060015afa15613ee457600051806153676117e161051960006143c6565b14615379576000916122ed600061173a565b5061538460006143c6565b6001916122ed600061173a565b50505061539e60006143c6565b91600391565b6137466103d3926153b3600090565b5082811692186141db600261173a565b6103d36103d36103d39260ff1690565b826153e8611c286103d385613746600161173a565b1180615499575b6153fe61487561540e92151590565b615408600061173a565b936136e0565b915b8383101561548e5761543d61543861542b8585016020015190565b6001600160f81b03191690565b615909565b908161544c613790600f61377b565b1161547c57615476916104dd61546961546f936141cd601061173a565b916153c3565b9260010190565b91615410565b50505050506000906103d3600061173a565b939250505060019190565b5061540e6153fe6148756154b36148198686016020015190565b6154c46148e461060f60f31b614819565b14925050506153ef565b9065ffffffffffff60a01b9060a01b611837565b906154f26103d361186d92611841565b82546154ce565b9063ffffffff60d01b9060d01b611837565b9061551b6103d361186d9261400f565b82546154f9565b60005b82811061553157505050565b606082820152602001615525565b906103bd61554c83611a84565b9260208061555a86936106c1565b9201910390615522565b90615570610968835190565b90816155826020830284019460200190565b926000915b83831061559657505050505090565b909192939460206155b26109b483856001950387528951610952565b9301930191939290615587565b959061563a9561560f6103d39b999a9661560161561d94615633986155f461562b9960208f61525a6101208201966000830152565b8c820360408e01526108b5565b908a820360608c0152610914565b9088820360808a0152615564565b9086820360a088015261095c565b9560c0850152565b60e0830152565b6101008184039101526104a9565b9294939092600080516020615a74833981519152906156768185878a61566f611e49825190565b209261302c565b9661567f825190565b61568d611c286103d3895190565b141580156157f4575b80156157de575b6157af576156b36000611e908a60018701611747565b6156c06119016000611815565b0361578057612f1d926156df6156d4612910565b6144d3612568611f0e565b9061572a6156fc6103d360016156f3611601565b94018d90611747565b615706888261500b565b61571861571285613b28565b826154e2565b6000615723846159d7565b910161550b565b89959661574a61574261573d879b975190565b61553f565b9192846136e0565b93947f7d84a6263ae0d98d3329bd7b46bb4e8d6f98cd35a7adb45c274c8b7fd5ebd5e09961577760405190565b998a998a6155bf565b8761578a81611f44565b90611811615798600061173a565b6331b75e4d60e01b60009081529384936004613422565b85856118116157c76157c26157c2875190565b935190565b630447b05d60e41b60009081529384936004610c50565b5081516157ee611c28600061173a565b1461569d565b508151615805611c286103d3885190565b1415615696565b6103d37ff0c57e16840df040f15088dc2f81fe391c3923bec73e23a9662efc9c229c6a00612d80565b600080516020615a3483398151915261584c613d7d565b805161585b611c28600061173a565b11156158685790506152c1565b5061587290611a11565b80615880611c28600061173a565b146158885790565b507fc5d2460186f7233c927e7db2dcc703c0e500b653ca82273b7bfad8045d85a47090565b600080516020615a348339815191526158c4613d96565b80516158d3611c28600061173a565b11156158e05790506152c1565b5060016158729101611a11565b611f1e6103d36103d39260ff1690565b6103d39060f81c6158ed565b615912906158fd565b80615920613790602f61377b565b11806159c2575b15615942576103d39061593a603061377b565b900360ff1690565b80615950613790606061377b565b11806159ad575b1561596a576103d39061593a605761377b565b80615978613790604061377b565b1180615998575b15615992576103d39061593a603761377b565b5060ff90565b50806159a7613790604761377b565b1061597f565b50806159bc613790606761377b565b10615957565b50806159d1613790603a61377b565b10615927565b806159e8611c2863ffffffff613242565b116159f6576103d390612f9e565b6306dfcc6560e41b60009081529081906118119060206004613b0d56fe7fd223d3380145bd26132714391e777c488a0df7ac2dd4b66419d8549fb3a600a16a46d94261c7517cc8ff89f61c0ce93598e3c849801011dee649a6a557d10000d7616c8fe29c6c2fbe1d0c5bc8f2faa4c35b43746e70b24b4d532752affd007c712897014dbe49c045ef1299aa2d5f9e67e48eea4403efa21f1e0f3ac0cb00a164736f6c634300081c000a",
  "devdoc": {
    "custom:security-contact": "sirt@peeramid.xyz",
    "errors": {
      "CheckpointUnorderedInsertion()": [
        {
          "details": "A value was attempted to be inserted on a past checkpoint."
        }
      ],
      "FailedCall()": [
        {
          "details": "A call to an address target failed. The target may have reverted."
        }
      ],
      "GovernorAlreadyCastVote(address)": [
        {
          "details": "The vote was already cast."
        }
      ],
      "GovernorAlreadyQueuedProposal(uint256)": [
        {
          "details": "The proposal has already been queued."
        }
      ],
      "GovernorDisabledDeposit()": [
        {
          "details": "Token deposits are disabled in this contract."
        }
      ],
      "GovernorInsufficientProposerVotes(address,uint256,uint256)": [
        {
          "details": "The `proposer` does not have the required votes to create a proposal."
        }
      ],
      "GovernorInvalidProposalLength(uint256,uint256,uint256)": [
        {
          "details": "Empty proposal or a mismatch between the parameters length for a proposal call."
        }
      ],
      "GovernorInvalidQuorumFraction(uint256,uint256)": [
        {
          "details": "The quorum set is not a valid fraction."
        }
      ],
      "GovernorInvalidSignature(address)": [
        {
          "details": "The provided signature is not valid for the expected `voter`. If the `voter` is a contract, the signature is not valid using {IERC1271-isValidSignature}."
        }
      ],
      "GovernorInvalidVoteParams()": [
        {
          "details": "The provided params buffer is not supported by the counting module."
        }
      ],
      "GovernorInvalidVoteType()": [
        {
          "details": "The vote type used is not valid for the corresponding counting module."
        }
      ],
      "GovernorInvalidVotingPeriod(uint256)": [
        {
          "details": "The voting period set is not a valid period."
        }
      ],
      "GovernorNonexistentProposal(uint256)": [
        {
          "details": "The `proposalId` doesn't exist."
        }
      ],
      "GovernorNotQueuedProposal(uint256)": [
        {
          "details": "The proposal hasn't been queued yet."
        }
      ],
      "GovernorOnlyExecutor(address)": [
        {
          "details": "The `account` is not the governance executor."
        }
      ],
      "GovernorOnlyProposer(address)": [
        {
          "details": "The `account` is not a proposer."
        }
      ],
      "GovernorQueueNotImplemented()": [
        {
          "details": "Queue operation is not implemented for this governor. Execute should be called directly."
        }
      ],
      "GovernorRestrictedProposer(address)": [
        {
          "details": "The `proposer` is not allowed to create a proposal."
        }
      ],
      "GovernorUnexpectedProposalState(uint256,uint8,bytes32)": [
        {
          "details": "The current state of a proposal is not the required for performing an operation. The `expectedStates` is a bitmap with the bits enabled for each ProposalState enum position counting from right to left. NOTE: If `expectedState` is `bytes32(0)`, the proposal is expected to not be in any state (i.e. not exist). This is the case when a proposal that is expected to be unset is already initiated (the proposal is duplicated). See {Governor-_encodeStateBitmap}."
        }
      ],
      "InvalidAccountNonce(address,uint256)": [
        {
          "details": "The nonce used for an `account` is not the expected current nonce."
        }
      ],
      "InvalidInitialization()": [
        {
          "details": "The contract is already initialized."
        }
      ],
      "NotInitializing()": [
        {
          "details": "The contract is not initializing."
        }
      ],
      "SafeCastOverflowedUintDowncast(uint8,uint256)": [
        {
          "details": "Value doesn't fit in an uint of `bits` size."
        }
      ]
    },
    "events": {
      "EIP712DomainChanged()": {
        "details": "MAY be emitted to signal that the domain could have changed."
      },
      "Initialized(uint64)": {
        "details": "Triggered when the contract has been initialized or reinitialized."
      },
      "ProposalCanceled(uint256)": {
        "details": "Emitted when a proposal is canceled."
      },
      "ProposalCreated(uint256,address,address[],uint256[],string[],bytes[],uint256,uint256,string)": {
        "details": "Emitted when a proposal is created."
      },
      "ProposalExecuted(uint256)": {
        "details": "Emitted when a proposal is executed."
      },
      "ProposalQueued(uint256,uint256)": {
        "details": "Emitted when a proposal is queued."
      },
      "VoteCast(address,uint256,uint8,uint256,string)": {
        "details": "Emitted when a vote is cast without params. Note: `support` values should be seen as buckets. Their interpretation depends on the voting module used."
      },
      "VoteCastWithParams(address,uint256,uint8,uint256,string,bytes)": {
        "details": "Emitted when a vote is cast with params. Note: `support` values should be seen as buckets. Their interpretation depends on the voting module used. `params` are additional encoded parameters. Their interpretation  also depends on the voting module used."
      }
    },
    "kind": "dev",
    "methods": {
      "CLOCK_MODE()": {
        "details": "Machine-readable description of the clock as specified in ERC-6372."
      },
      "COUNTING_MODE()": {
        "details": "See {IGovernor-COUNTING_MODE}."
      },
      "cancel(address[],uint256[],bytes[],bytes32)": {
        "details": "See {IGovernor-cancel}."
      },
      "cancel(uint256)": {
        "details": "ProposalId version of {IGovernor-cancel}."
      },
      "castVote(uint256,uint8)": {
        "details": "See {IGovernor-castVote}."
      },
      "castVoteBySig(uint256,uint8,address,bytes)": {
        "details": "See {IGovernor-castVoteBySig}."
      },
      "castVoteWithReason(uint256,uint8,string)": {
        "details": "See {IGovernor-castVoteWithReason}."
      },
      "castVoteWithReasonAndParams(uint256,uint8,string,bytes)": {
        "details": "See {IGovernor-castVoteWithReasonAndParams}."
      },
      "castVoteWithReasonAndParamsBySig(uint256,uint8,address,string,bytes,bytes)": {
        "details": "See {IGovernor-castVoteWithReasonAndParamsBySig}."
      },
      "clock()": {
        "details": "Clock (as specified in ERC-6372) is set to match the token's clock. Fallback to block numbers if the token does not implement ERC-6372."
      },
      "constructor": {
        "custom:oz-upgrades-unsafe-allow": "constructor"
      },
      "eip712Domain()": {
        "details": "See {IERC-5267}."
      },
      "execute(address[],uint256[],bytes[],bytes32)": {
        "details": "See {IGovernor-execute}."
      },
      "execute(uint256)": {
        "details": "Version of {IGovernor-execute} with only `proposalId` as an argument."
      },
      "getVotes(address,uint256)": {
        "details": "See {IGovernor-getVotes}."
      },
      "getVotesWithParams(address,uint256,bytes)": {
        "details": "See {IGovernor-getVotesWithParams}."
      },
      "hasVoted(uint256,address)": {
        "details": "See {IGovernor-hasVoted}."
      },
      "hashProposal(address[],uint256[],bytes[],bytes32)": {
        "details": "See {IGovernor-hashProposal}. The proposal id is produced by hashing the ABI encoded `targets` array, the `values` array, the `calldatas` array and the descriptionHash (bytes32 which itself is the keccak256 hash of the description string). This proposal id can be produced from the proposal data which is part of the {ProposalCreated} event. It can even be computed in advance, before the proposal is submitted. Note that the chainId and the governor address are not part of the proposal id computation. Consequently, the same proposal (with same operation and same description) will have the same id if submitted on multiple governors across multiple networks. This also means that in order to execute the same operation twice (on the same governor) the proposer will have to change the description in order to avoid proposal id conflicts."
      },
      "name()": {
        "details": "See {IGovernor-name}."
      },
      "nonces(address)": {
        "details": "Returns the next unused nonce for an address."
      },
      "onERC1155BatchReceived(address,address,uint256[],uint256[],bytes)": {
        "details": "See {IERC1155Receiver-onERC1155BatchReceived}. Receiving tokens is disabled if the governance executor is other than the governor itself (eg. when using with a timelock)."
      },
      "onERC1155Received(address,address,uint256,uint256,bytes)": {
        "details": "See {IERC1155Receiver-onERC1155Received}. Receiving tokens is disabled if the governance executor is other than the governor itself (eg. when using with a timelock)."
      },
      "onERC721Received(address,address,uint256,bytes)": {
        "details": "See {IERC721Receiver-onERC721Received}. Receiving tokens is disabled if the governance executor is other than the governor itself (eg. when using with a timelock)."
      },
      "proposalCount()": {
        "details": "Returns the number of stored proposals."
      },
      "proposalDeadline(uint256)": {
        "details": "See {IGovernor-proposalDeadline}."
      },
      "proposalDetails(uint256)": {
        "details": "Returns the details of a proposalId. Reverts if `proposalId` is not a known proposal."
      },
      "proposalDetailsAt(uint256)": {
        "details": "Returns the details (including the proposalId) of a proposal given its sequential index."
      },
      "proposalEta(uint256)": {
        "details": "See {IGovernor-proposalEta}."
      },
      "proposalNeedsQueuing(uint256)": {
        "details": "See {IGovernor-proposalNeedsQueuing}."
      },
      "proposalProposer(uint256)": {
        "details": "See {IGovernor-proposalProposer}."
      },
      "proposalSnapshot(uint256)": {
        "details": "See {IGovernor-proposalSnapshot}."
      },
      "proposalVotes(uint256)": {
        "details": "Accessor to the internal vote counts."
      },
      "propose(address[],uint256[],bytes[],string)": {
        "details": "See {IGovernor-propose}. This function has opt-in frontrunning protection, described in {_isValidDescriptionForProposer}."
      },
      "queue(address[],uint256[],bytes[],bytes32)": {
        "details": "See {IGovernor-queue}."
      },
      "queue(uint256)": {
        "details": "Version of {IGovernorTimelock-queue} with only `proposalId` as an argument."
      },
      "quorumDenominator()": {
        "details": "Returns the quorum denominator. Defaults to 100, but may be overridden."
      },
      "quorumNumerator()": {
        "details": "Returns the current quorum numerator. See {quorumDenominator}."
      },
      "quorumNumerator(uint256)": {
        "details": "Returns the quorum numerator at a specific timepoint. See {quorumDenominator}."
      },
      "relay(address,uint256,bytes)": {
        "details": "Relays a transaction or function call to an arbitrary target. In cases where the governance executor is some contract other than the governor itself, like when using a timelock, this function can be invoked in a governance proposal to recover tokens or Ether that was sent to the governor contract by mistake. Note that if the executor is simply the governor itself, use of `relay` is redundant."
      },
      "setProposalThreshold(uint256)": {
        "details": "Update the proposal threshold. This operation can only be performed through a governance proposal. Emits a {ProposalThresholdSet} event."
      },
      "setVotingDelay(uint48)": {
        "details": "Update the voting delay. This operation can only be performed through a governance proposal. Emits a {VotingDelaySet} event."
      },
      "setVotingPeriod(uint32)": {
        "details": "Update the voting period. This operation can only be performed through a governance proposal. Emits a {VotingPeriodSet} event."
      },
      "state(uint256)": {
        "details": "See {IGovernor-state}."
      },
      "supportsInterface(bytes4)": {
        "details": "See {IERC165-supportsInterface}."
      },
      "token()": {
        "details": "The token that voting power is sourced from."
      },
      "updateQuorumNumerator(uint256)": {
        "details": "Changes the quorum numerator. Emits a {QuorumNumeratorUpdated} event. Requirements: - Must be called through a governance proposal. - New numerator must be smaller or equal to the denominator."
      },
      "version()": {
        "details": "See {IGovernor-version}."
      }
    },
    "version": 1
  },
  "userdoc": {
    "kind": "user",
    "methods": {},
    "version": 1
  },
  "storageLayout": {
    "storage": [],
    "types": null
  }
}